{
  "_format": "hh-sol-artifact-1",
  "contractName": "NFT",
  "sourceName": "contracts/NFT.sol",
  "abi": [
    {
      "inputs": [],
      "stateMutability": "nonpayable",
      "type": "constructor"
    },
    {
      "anonymous": false,
      "inputs": [
        {
          "indexed": true,
          "internalType": "address",
          "name": "owner",
          "type": "address"
        },
        {
          "indexed": true,
          "internalType": "address",
          "name": "approved",
          "type": "address"
        },
        {
          "indexed": true,
          "internalType": "uint256",
          "name": "tokenId",
          "type": "uint256"
        }
      ],
      "name": "Approval",
      "type": "event"
    },
    {
      "anonymous": false,
      "inputs": [
        {
          "indexed": true,
          "internalType": "address",
          "name": "owner",
          "type": "address"
        },
        {
          "indexed": true,
          "internalType": "address",
          "name": "operator",
          "type": "address"
        },
        {
          "indexed": false,
          "internalType": "bool",
          "name": "approved",
          "type": "bool"
        }
      ],
      "name": "ApprovalForAll",
      "type": "event"
    },
    {
      "anonymous": false,
      "inputs": [
        {
          "indexed": true,
          "internalType": "address",
          "name": "previousOwner",
          "type": "address"
        },
        {
          "indexed": true,
          "internalType": "address",
          "name": "newOwner",
          "type": "address"
        }
      ],
      "name": "OwnershipTransferred",
      "type": "event"
    },
    {
      "anonymous": false,
      "inputs": [
        {
          "indexed": false,
          "internalType": "address",
          "name": "owner",
          "type": "address"
        },
        {
          "indexed": false,
          "internalType": "uint256",
          "name": "price",
          "type": "uint256"
        },
        {
          "indexed": false,
          "internalType": "uint256",
          "name": "id",
          "type": "uint256"
        },
        {
          "indexed": false,
          "internalType": "string",
          "name": "uri",
          "type": "string"
        }
      ],
      "name": "Purchase",
      "type": "event"
    },
    {
      "anonymous": false,
      "inputs": [
        {
          "indexed": true,
          "internalType": "address",
          "name": "from",
          "type": "address"
        },
        {
          "indexed": true,
          "internalType": "address",
          "name": "to",
          "type": "address"
        },
        {
          "indexed": true,
          "internalType": "uint256",
          "name": "tokenId",
          "type": "uint256"
        }
      ],
      "name": "Transfer",
      "type": "event"
    },
    {
      "inputs": [],
      "name": "MAX_NFTS",
      "outputs": [
        {
          "internalType": "uint256",
          "name": "",
          "type": "uint256"
        }
      ],
      "stateMutability": "view",
      "type": "function"
    },
    {
      "inputs": [],
      "name": "REVEAL_TIMESTAMP",
      "outputs": [
        {
          "internalType": "uint256",
          "name": "",
          "type": "uint256"
        }
      ],
      "stateMutability": "view",
      "type": "function"
    },
    {
      "inputs": [],
      "name": "_owner",
      "outputs": [
        {
          "internalType": "address payable",
          "name": "",
          "type": "address"
        }
      ],
      "stateMutability": "view",
      "type": "function"
    },
    {
      "inputs": [
        {
          "internalType": "address",
          "name": "to",
          "type": "address"
        },
        {
          "internalType": "uint256",
          "name": "tokenId",
          "type": "uint256"
        }
      ],
      "name": "approve",
      "outputs": [],
      "stateMutability": "nonpayable",
      "type": "function"
    },
    {
      "inputs": [
        {
          "internalType": "address",
          "name": "owner",
          "type": "address"
        }
      ],
      "name": "balanceOf",
      "outputs": [
        {
          "internalType": "uint256",
          "name": "",
          "type": "uint256"
        }
      ],
      "stateMutability": "view",
      "type": "function"
    },
    {
      "inputs": [],
      "name": "baseURI",
      "outputs": [
        {
          "internalType": "string",
          "name": "",
          "type": "string"
        }
      ],
      "stateMutability": "view",
      "type": "function"
    },
    {
      "inputs": [
        {
          "internalType": "uint256",
          "name": "_id",
          "type": "uint256"
        }
      ],
      "name": "buy",
      "outputs": [],
      "stateMutability": "payable",
      "type": "function"
    },
    {
      "inputs": [],
      "name": "flipSaleIsActive",
      "outputs": [],
      "stateMutability": "nonpayable",
      "type": "function"
    },
    {
      "inputs": [
        {
          "internalType": "uint256",
          "name": "tokenId",
          "type": "uint256"
        }
      ],
      "name": "getApproved",
      "outputs": [
        {
          "internalType": "address",
          "name": "",
          "type": "address"
        }
      ],
      "stateMutability": "view",
      "type": "function"
    },
    {
      "inputs": [
        {
          "internalType": "address",
          "name": "owner",
          "type": "address"
        },
        {
          "internalType": "address",
          "name": "operator",
          "type": "address"
        }
      ],
      "name": "isApprovedForAll",
      "outputs": [
        {
          "internalType": "bool",
          "name": "",
          "type": "bool"
        }
      ],
      "stateMutability": "view",
      "type": "function"
    },
    {
      "inputs": [
        {
          "internalType": "string",
          "name": "_tokenURI",
          "type": "string"
        },
        {
          "internalType": "uint256",
          "name": "_price",
          "type": "uint256"
        }
      ],
      "name": "mint",
      "outputs": [
        {
          "internalType": "bool",
          "name": "",
          "type": "bool"
        }
      ],
      "stateMutability": "nonpayable",
      "type": "function"
    },
    {
      "inputs": [],
      "name": "name",
      "outputs": [
        {
          "internalType": "string",
          "name": "",
          "type": "string"
        }
      ],
      "stateMutability": "view",
      "type": "function"
    },
    {
      "inputs": [],
      "name": "nftPrice",
      "outputs": [
        {
          "internalType": "uint256",
          "name": "",
          "type": "uint256"
        }
      ],
      "stateMutability": "view",
      "type": "function"
    },
    {
      "inputs": [],
      "name": "owner",
      "outputs": [
        {
          "internalType": "address",
          "name": "",
          "type": "address"
        }
      ],
      "stateMutability": "view",
      "type": "function"
    },
    {
      "inputs": [
        {
          "internalType": "uint256",
          "name": "tokenId",
          "type": "uint256"
        }
      ],
      "name": "ownerOf",
      "outputs": [
        {
          "internalType": "address",
          "name": "",
          "type": "address"
        }
      ],
      "stateMutability": "view",
      "type": "function"
    },
    {
      "inputs": [
        {
          "internalType": "uint256",
          "name": "",
          "type": "uint256"
        }
      ],
      "name": "price",
      "outputs": [
        {
          "internalType": "uint256",
          "name": "",
          "type": "uint256"
        }
      ],
      "stateMutability": "view",
      "type": "function"
    },
    {
      "inputs": [],
      "name": "renounceOwnership",
      "outputs": [],
      "stateMutability": "nonpayable",
      "type": "function"
    },
    {
      "inputs": [
        {
          "internalType": "address",
          "name": "from",
          "type": "address"
        },
        {
          "internalType": "address",
          "name": "to",
          "type": "address"
        },
        {
          "internalType": "uint256",
          "name": "tokenId",
          "type": "uint256"
        }
      ],
      "name": "safeTransferFrom",
      "outputs": [],
      "stateMutability": "nonpayable",
      "type": "function"
    },
    {
      "inputs": [
        {
          "internalType": "address",
          "name": "from",
          "type": "address"
        },
        {
          "internalType": "address",
          "name": "to",
          "type": "address"
        },
        {
          "internalType": "uint256",
          "name": "tokenId",
          "type": "uint256"
        },
        {
          "internalType": "bytes",
          "name": "_data",
          "type": "bytes"
        }
      ],
      "name": "safeTransferFrom",
      "outputs": [],
      "stateMutability": "nonpayable",
      "type": "function"
    },
    {
      "inputs": [],
      "name": "saleIsActive",
      "outputs": [
        {
          "internalType": "bool",
          "name": "",
          "type": "bool"
        }
      ],
      "stateMutability": "view",
      "type": "function"
    },
    {
      "inputs": [
        {
          "internalType": "address",
          "name": "operator",
          "type": "address"
        },
        {
          "internalType": "bool",
          "name": "approved",
          "type": "bool"
        }
      ],
      "name": "setApprovalForAll",
      "outputs": [],
      "stateMutability": "nonpayable",
      "type": "function"
    },
    {
      "inputs": [
        {
          "internalType": "uint256",
          "name": "revealTimeStamp",
          "type": "uint256"
        }
      ],
      "name": "setRevealTimestamp",
      "outputs": [],
      "stateMutability": "nonpayable",
      "type": "function"
    },
    {
      "inputs": [
        {
          "internalType": "uint256",
          "name": "",
          "type": "uint256"
        }
      ],
      "name": "sold",
      "outputs": [
        {
          "internalType": "bool",
          "name": "",
          "type": "bool"
        }
      ],
      "stateMutability": "view",
      "type": "function"
    },
    {
      "inputs": [
        {
          "internalType": "bytes4",
          "name": "interfaceId",
          "type": "bytes4"
        }
      ],
      "name": "supportsInterface",
      "outputs": [
        {
          "internalType": "bool",
          "name": "",
          "type": "bool"
        }
      ],
      "stateMutability": "view",
      "type": "function"
    },
    {
      "inputs": [],
      "name": "symbol",
      "outputs": [
        {
          "internalType": "string",
          "name": "",
          "type": "string"
        }
      ],
      "stateMutability": "view",
      "type": "function"
    },
    {
      "inputs": [
        {
          "internalType": "uint256",
          "name": "index",
          "type": "uint256"
        }
      ],
      "name": "tokenByIndex",
      "outputs": [
        {
          "internalType": "uint256",
          "name": "",
          "type": "uint256"
        }
      ],
      "stateMutability": "view",
      "type": "function"
    },
    {
      "inputs": [
        {
          "internalType": "address",
          "name": "owner",
          "type": "address"
        },
        {
          "internalType": "uint256",
          "name": "index",
          "type": "uint256"
        }
      ],
      "name": "tokenOfOwnerByIndex",
      "outputs": [
        {
          "internalType": "uint256",
          "name": "",
          "type": "uint256"
        }
      ],
      "stateMutability": "view",
      "type": "function"
    },
    {
      "inputs": [
        {
          "internalType": "uint256",
          "name": "tokenId",
          "type": "uint256"
        }
      ],
      "name": "tokenURI",
      "outputs": [
        {
          "internalType": "string",
          "name": "",
          "type": "string"
        }
      ],
      "stateMutability": "view",
      "type": "function"
    },
    {
      "inputs": [],
      "name": "totalSupply",
      "outputs": [
        {
          "internalType": "uint256",
          "name": "",
          "type": "uint256"
        }
      ],
      "stateMutability": "view",
      "type": "function"
    },
    {
      "inputs": [
        {
          "internalType": "address",
          "name": "from",
          "type": "address"
        },
        {
          "internalType": "address",
          "name": "to",
          "type": "address"
        },
        {
          "internalType": "uint256",
          "name": "tokenId",
          "type": "uint256"
        }
      ],
      "name": "transferFrom",
      "outputs": [],
      "stateMutability": "nonpayable",
      "type": "function"
    },
    {
      "inputs": [
        {
          "internalType": "address",
          "name": "newOwner",
          "type": "address"
        }
      ],
      "name": "transferOwnership",
      "outputs": [],
      "stateMutability": "nonpayable",
      "type": "function"
    }
  ],
  "bytecode": "0x608060405267011c37937e080000600b556000600d60006101000a81548160ff0219169083151502179055503480156200003857600080fd5b506040518060400160405280600481526020017f47656e5a000000000000000000000000000000000000000000000000000000008152506040518060400160405280600381526020017f474e5a0000000000000000000000000000000000000000000000000000000000815250620000bd6301ffc9a760e01b6200023160201b60201c565b8160069080519060200190620000d592919062000342565b508060079080519060200190620000ee92919062000342565b50620001076380ac58cd60e01b6200023160201b60201c565b6200011f635b5e139f60e01b6200023160201b60201c565b6200013763780e9d6360e01b6200023160201b60201c565b505060006200014b6200033a60201b60201c565b905080600a60006101000a81548173ffffffffffffffffffffffffffffffffffffffff021916908373ffffffffffffffffffffffffffffffffffffffff1602179055508073ffffffffffffffffffffffffffffffffffffffff16600073ffffffffffffffffffffffffffffffffffffffff167f8be0079c531659141344cd1fd0a4f28419497f9722a3daafe3b4186f6b6457e060405160405180910390a35033600f60006101000a81548173ffffffffffffffffffffffffffffffffffffffff021916908373ffffffffffffffffffffffffffffffffffffffff160217905550620003f1565b63ffffffff60e01b817bffffffffffffffffffffffffffffffffffffffffffffffffffffffff19161415620002ce576040517f08c379a000000000000000000000000000000000000000000000000000000000815260040180806020018281038252601c8152602001807f4552433136353a20696e76616c696420696e746572666163652069640000000081525060200191505060405180910390fd5b6001600080837bffffffffffffffffffffffffffffffffffffffffffffffffffffffff19167bffffffffffffffffffffffffffffffffffffffffffffffffffffffff1916815260200190815260200160002060006101000a81548160ff02191690831515021790555050565b600033905090565b828054600181600116156101000203166002900490600052602060002090601f016020900481019282601f106200038557805160ff1916838001178555620003b6565b82800160010185558215620003b6579182015b82811115620003b557825182559160200191906001019062000398565b5b509050620003c59190620003c9565b5090565b620003ee91905b80821115620003ea576000816000905550600101620003d0565b5090565b90565b613a4b80620004016000396000f3fe6080604052600436106101d85760003560e01c80636352211e11610102578063b2bdfa7b11610095578063e985e9c511610064578063e985e9c514610cf2578063eb8d244414610d7b578063ed06f66b14610daa578063f2fde38b14610dc1576101d8565b8063b2bdfa7b14610aa7578063b88d4fde14610afe578063c87b56dd14610c10578063d96a094a14610cc4576101d8565b80638da5cb5b116100d15780638da5cb5b1461091057806395d89b41146109675780639c03facb146109f7578063a22cb46514610a4a576101d8565b80636352211e146107895780636c0360eb1461080457806370a0823114610894578063715018a6146108f9576101d8565b80630d39fc811161017a57806326a49e371161014957806326a49e37146106015780632f745c591461065057806342842e0e146106bf5780634f6ccce71461073a576101d8565b80630d39fc811461050557806318160ddd1461053057806318e20a381461055b57806323b872dd14610586576101d8565b806306fdde03116101b657806306fdde0314610374578063081812fc14610404578063093d8c641461047f578063095ea7b3146104aa576101d8565b8063018a2c37146101dd57806301ffc9a714610218578063056b01ce1461028a575b600080fd5b3480156101e957600080fd5b506102166004803603602081101561020057600080fd5b8101908080359060200190929190505050610e12565b005b34801561022457600080fd5b506102706004803603602081101561023b57600080fd5b8101908080357bffffffffffffffffffffffffffffffffffffffffffffffffffffffff19169060200190929190505050610ecb565b604051808215151515815260200191505060405180910390f35b34801561029657600080fd5b5061035a600480360360408110156102ad57600080fd5b81019080803590602001906401000000008111156102ca57600080fd5b8201836020820111156102dc57600080fd5b803590602001918460018302840111640100000000831117156102fe57600080fd5b91908080601f016020809104026020016040519081016040528093929190818152602001838380828437600081840152601f19601f82011690508083019250505050505050919291929080359060200190929190505050610f32565b604051808215151515815260200191505060405180910390f35b34801561038057600080fd5b50610389611029565b6040518080602001828103825283818151815260200191508051906020019080838360005b838110156103c95780820151818401526020810190506103ae565b50505050905090810190601f1680156103f65780820380516001836020036101000a031916815260200191505b509250505060405180910390f35b34801561041057600080fd5b5061043d6004803603602081101561042757600080fd5b81019080803590602001909291905050506110cb565b604051808273ffffffffffffffffffffffffffffffffffffffff1673ffffffffffffffffffffffffffffffffffffffff16815260200191505060405180910390f35b34801561048b57600080fd5b50610494611166565b6040518082815260200191505060405180910390f35b3480156104b657600080fd5b50610503600480360360408110156104cd57600080fd5b81019080803573ffffffffffffffffffffffffffffffffffffffff1690602001909291908035906020019092919050505061116c565b005b34801561051157600080fd5b5061051a6112b0565b6040518082815260200191505060405180910390f35b34801561053c57600080fd5b506105456112b6565b6040518082815260200191505060405180910390f35b34801561056757600080fd5b506105706112c7565b6040518082815260200191505060405180910390f35b34801561059257600080fd5b506105ff600480360360608110156105a957600080fd5b81019080803573ffffffffffffffffffffffffffffffffffffffff169060200190929190803573ffffffffffffffffffffffffffffffffffffffff169060200190929190803590602001909291905050506112cd565b005b34801561060d57600080fd5b5061063a6004803603602081101561062457600080fd5b8101908080359060200190929190505050611343565b6040518082815260200191505060405180910390f35b34801561065c57600080fd5b506106a96004803603604081101561067357600080fd5b81019080803573ffffffffffffffffffffffffffffffffffffffff1690602001909291908035906020019092919050505061135b565b6040518082815260200191505060405180910390f35b3480156106cb57600080fd5b50610738600480360360608110156106e257600080fd5b81019080803573ffffffffffffffffffffffffffffffffffffffff169060200190929190803573ffffffffffffffffffffffffffffffffffffffff169060200190929190803590602001909291905050506113b6565b005b34801561074657600080fd5b506107736004803603602081101561075d57600080fd5b81019080803590602001909291905050506113d6565b6040518082815260200191505060405180910390f35b34801561079557600080fd5b506107c2600480360360208110156107ac57600080fd5b81019080803590602001909291905050506113f9565b604051808273ffffffffffffffffffffffffffffffffffffffff1673ffffffffffffffffffffffffffffffffffffffff16815260200191505060405180910390f35b34801561081057600080fd5b50610819611430565b6040518080602001828103825283818151815260200191508051906020019080838360005b8381101561085957808201518184015260208101905061083e565b50505050905090810190601f1680156108865780820380516001836020036101000a031916815260200191505b509250505060405180910390f35b3480156108a057600080fd5b506108e3600480360360208110156108b757600080fd5b81019080803573ffffffffffffffffffffffffffffffffffffffff1690602001909291905050506114d2565b6040518082815260200191505060405180910390f35b34801561090557600080fd5b5061090e6115a7565b005b34801561091c57600080fd5b50610925611717565b604051808273ffffffffffffffffffffffffffffffffffffffff1673ffffffffffffffffffffffffffffffffffffffff16815260200191505060405180910390f35b34801561097357600080fd5b5061097c611741565b6040518080602001828103825283818151815260200191508051906020019080838360005b838110156109bc5780820151818401526020810190506109a1565b50505050905090810190601f1680156109e95780820380516001836020036101000a031916815260200191505b509250505060405180910390f35b348015610a0357600080fd5b50610a3060048036036020811015610a1a57600080fd5b81019080803590602001909291905050506117e3565b604051808215151515815260200191505060405180910390f35b348015610a5657600080fd5b50610aa560048036036040811015610a6d57600080fd5b81019080803573ffffffffffffffffffffffffffffffffffffffff169060200190929190803515159060200190929190505050611803565b005b348015610ab357600080fd5b50610abc6119bb565b604051808273ffffffffffffffffffffffffffffffffffffffff1673ffffffffffffffffffffffffffffffffffffffff16815260200191505060405180910390f35b348015610b0a57600080fd5b50610c0e60048036036080811015610b2157600080fd5b81019080803573ffffffffffffffffffffffffffffffffffffffff169060200190929190803573ffffffffffffffffffffffffffffffffffffffff1690602001909291908035906020019092919080359060200190640100000000811115610b8857600080fd5b820183602082011115610b9a57600080fd5b80359060200191846001830284011164010000000083111715610bbc57600080fd5b91908080601f016020809104026020016040519081016040528093929190818152602001838380828437600081840152601f19601f8201169050808301925050505050505091929192905050506119e1565b005b348015610c1c57600080fd5b50610c4960048036036020811015610c3357600080fd5b8101908080359060200190929190505050611a59565b6040518080602001828103825283818151815260200191508051906020019080838360005b83811015610c89578082015181840152602081019050610c6e565b50505050905090810190601f168015610cb65780820380516001836020036101000a031916815260200191505b509250505060405180910390f35b610cf060048036036020811015610cda57600080fd5b8101908080359060200190929190505050611d2a565b005b348015610cfe57600080fd5b50610d6160048036036040811015610d1557600080fd5b81019080803573ffffffffffffffffffffffffffffffffffffffff169060200190929190803573ffffffffffffffffffffffffffffffffffffffff169060200190929190505050611e3a565b604051808215151515815260200191505060405180910390f35b348015610d8757600080fd5b50610d90611ece565b604051808215151515815260200191505060405180910390f35b348015610db657600080fd5b50610dbf611ee1565b005b348015610dcd57600080fd5b50610e1060048036036020811015610de457600080fd5b81019080803573ffffffffffffffffffffffffffffffffffffffff169060200190929190505050611fbc565b005b610e1a6121b1565b73ffffffffffffffffffffffffffffffffffffffff16610e38611717565b73ffffffffffffffffffffffffffffffffffffffff1614610ec1576040517f08c379a00000000000000000000000000000000000000000000000000000000081526004018080602001828103825260208152602001807f4f776e61626c653a2063616c6c6572206973206e6f7420746865206f776e657281525060200191505060405180910390fd5b80600e8190555050565b6000806000837bffffffffffffffffffffffffffffffffffffffffffffffffffffffff19167bffffffffffffffffffffffffffffffffffffffffffffffffffffffff1916815260200190815260200160002060009054906101000a900460ff169050919050565b6000610f3c6121b1565b73ffffffffffffffffffffffffffffffffffffffff16610f5a611717565b73ffffffffffffffffffffffffffffffffffffffff1614610fe3576040517f08c379a00000000000000000000000000000000000000000000000000000000081526004018080602001828103825260208152602001807f4f776e61626c653a2063616c6c6572206973206e6f7420746865206f776e657281525060200191505060405180910390fd5b60006001610fef6112b6565b01905082601160008381526020019081526020016000208190555061101430826121b9565b61101e81856123ad565b600191505092915050565b606060068054600181600116156101000203166002900480601f0160208091040260200160405190810160405280929190818152602001828054600181600116156101000203166002900480156110c15780601f10611096576101008083540402835291602001916110c1565b820191906000526020600020905b8154815290600101906020018083116110a457829003601f168201915b5050505050905090565b60006110d682612437565b61112b576040517f08c379a000000000000000000000000000000000000000000000000000000000815260040180806020018281038252602c815260200180613914602c913960400191505060405180910390fd5b6004600083815260200190815260200160002060009054906101000a900473ffffffffffffffffffffffffffffffffffffffff169050919050565b600c5481565b6000611177826113f9565b90508073ffffffffffffffffffffffffffffffffffffffff168373ffffffffffffffffffffffffffffffffffffffff1614156111fe576040517f08c379a00000000000000000000000000000000000000000000000000000000081526004018080602001828103825260218152602001806139c46021913960400191505060405180910390fd5b8073ffffffffffffffffffffffffffffffffffffffff1661121d6121b1565b73ffffffffffffffffffffffffffffffffffffffff16148061124c575061124b816112466121b1565b611e3a565b5b6112a1576040517f08c379a00000000000000000000000000000000000000000000000000000000081526004018080602001828103825260388152602001806138676038913960400191505060405180910390fd5b6112ab8383612454565b505050565b600b5481565b60006112c2600261250d565b905090565b600e5481565b6112de6112d86121b1565b82612522565b611333576040517f08c379a00000000000000000000000000000000000000000000000000000000081526004018080602001828103825260318152602001806139e56031913960400191505060405180910390fd5b61133e838383612616565b505050565b60116020528060005260406000206000915090505481565b60006113ae82600160008673ffffffffffffffffffffffffffffffffffffffff1673ffffffffffffffffffffffffffffffffffffffff16815260200190815260200160002061285990919063ffffffff16565b905092915050565b6113d1838383604051806020016040528060008152506119e1565b505050565b6000806113ed83600261287390919063ffffffff16565b50905080915050919050565b6000611429826040518060600160405280602981526020016138c96029913960026128a29092919063ffffffff16565b9050919050565b606060098054600181600116156101000203166002900480601f0160208091040260200160405190810160405280929190818152602001828054600181600116156101000203166002900480156114c85780601f1061149d576101008083540402835291602001916114c8565b820191906000526020600020905b8154815290600101906020018083116114ab57829003601f168201915b5050505050905090565b60008073ffffffffffffffffffffffffffffffffffffffff168273ffffffffffffffffffffffffffffffffffffffff161415611559576040517f08c379a000000000000000000000000000000000000000000000000000000000815260040180806020018281038252602a81526020018061389f602a913960400191505060405180910390fd5b6115a0600160008473ffffffffffffffffffffffffffffffffffffffff1673ffffffffffffffffffffffffffffffffffffffff1681526020019081526020016000206128c1565b9050919050565b6115af6121b1565b73ffffffffffffffffffffffffffffffffffffffff166115cd611717565b73ffffffffffffffffffffffffffffffffffffffff1614611656576040517f08c379a00000000000000000000000000000000000000000000000000000000081526004018080602001828103825260208152602001807f4f776e61626c653a2063616c6c6572206973206e6f7420746865206f776e657281525060200191505060405180910390fd5b600073ffffffffffffffffffffffffffffffffffffffff16600a60009054906101000a900473ffffffffffffffffffffffffffffffffffffffff1673ffffffffffffffffffffffffffffffffffffffff167f8be0079c531659141344cd1fd0a4f28419497f9722a3daafe3b4186f6b6457e060405160405180910390a36000600a60006101000a81548173ffffffffffffffffffffffffffffffffffffffff021916908373ffffffffffffffffffffffffffffffffffffffff160217905550565b6000600a60009054906101000a900473ffffffffffffffffffffffffffffffffffffffff16905090565b606060078054600181600116156101000203166002900480601f0160208091040260200160405190810160405280929190818152602001828054600181600116156101000203166002900480156117d95780601f106117ae576101008083540402835291602001916117d9565b820191906000526020600020905b8154815290600101906020018083116117bc57829003601f168201915b5050505050905090565b60106020528060005260406000206000915054906101000a900460ff1681565b61180b6121b1565b73ffffffffffffffffffffffffffffffffffffffff168273ffffffffffffffffffffffffffffffffffffffff1614156118ac576040517f08c379a00000000000000000000000000000000000000000000000000000000081526004018080602001828103825260198152602001807f4552433732313a20617070726f766520746f2063616c6c65720000000000000081525060200191505060405180910390fd5b80600560006118b96121b1565b73ffffffffffffffffffffffffffffffffffffffff1673ffffffffffffffffffffffffffffffffffffffff16815260200190815260200160002060008473ffffffffffffffffffffffffffffffffffffffff1673ffffffffffffffffffffffffffffffffffffffff16815260200190815260200160002060006101000a81548160ff0219169083151502179055508173ffffffffffffffffffffffffffffffffffffffff166119666121b1565b73ffffffffffffffffffffffffffffffffffffffff167f17307eab39ab6107e8899845ad3d59bd9653f200f220920489ca2b5937696c3183604051808215151515815260200191505060405180910390a35050565b600f60009054906101000a900473ffffffffffffffffffffffffffffffffffffffff1681565b6119f26119ec6121b1565b83612522565b611a47576040517f08c379a00000000000000000000000000000000000000000000000000000000081526004018080602001828103825260318152602001806139e56031913960400191505060405180910390fd5b611a53848484846128d6565b50505050565b6060611a6482612437565b611ab9576040517f08c379a000000000000000000000000000000000000000000000000000000000815260040180806020018281038252602f815260200180613995602f913960400191505060405180910390fd5b6060600860008481526020019081526020016000208054600181600116156101000203166002900480601f016020809104026020016040519081016040528092919081815260200182805460018160011615610100020316600290048015611b625780601f10611b3757610100808354040283529160200191611b62565b820191906000526020600020905b815481529060010190602001808311611b4557829003601f168201915b505050505090506060611b73611430565b9050600081511415611b89578192505050611d25565b600082511115611c5a5780826040516020018083805190602001908083835b60208310611bcb5780518252602082019150602081019050602083039250611ba8565b6001836020036101000a03801982511681845116808217855250505050505090500182805190602001908083835b60208310611c1c5780518252602082019150602081019050602083039250611bf9565b6001836020036101000a0380198251168184511680821785525050505050509050019250505060405160208183030381529060405292505050611d25565b80611c6485612948565b6040516020018083805190602001908083835b60208310611c9a5780518252602082019150602081019050602083039250611c77565b6001836020036101000a03801982511681845116808217855250505050505090500182805190602001908083835b60208310611ceb5780518252602082019150602081019050602083039250611cc8565b6001836020036101000a03801982511681845116808217855250505050505090500192505050604051602081830303815290604052925050505b919050565b611d3381612a78565b611d3c81612c13565b7f6d5507734d4d9e8592119c9e6b3e2bf7eab8bd6252f36e2fa05a5588442479da33601160008481526020019081526020016000205483611d7c85611a59565b604051808573ffffffffffffffffffffffffffffffffffffffff1673ffffffffffffffffffffffffffffffffffffffff16815260200184815260200183815260200180602001828103825283818151815260200191508051906020019080838360005b83811015611dfa578082015181840152602081019050611ddf565b50505050905090810190601f168015611e275780820380516001836020036101000a031916815260200191505b509550505050505060405180910390a150565b6000600560008473ffffffffffffffffffffffffffffffffffffffff1673ffffffffffffffffffffffffffffffffffffffff16815260200190815260200160002060008373ffffffffffffffffffffffffffffffffffffffff1673ffffffffffffffffffffffffffffffffffffffff16815260200190815260200160002060009054906101000a900460ff16905092915050565b600d60009054906101000a900460ff1681565b611ee96121b1565b73ffffffffffffffffffffffffffffffffffffffff16611f07611717565b73ffffffffffffffffffffffffffffffffffffffff1614611f90576040517f08c379a00000000000000000000000000000000000000000000000000000000081526004018080602001828103825260208152602001807f4f776e61626c653a2063616c6c6572206973206e6f7420746865206f776e657281525060200191505060405180910390fd5b600d60009054906101000a900460ff1615600d60006101000a81548160ff021916908315150217905550565b611fc46121b1565b73ffffffffffffffffffffffffffffffffffffffff16611fe2611717565b73ffffffffffffffffffffffffffffffffffffffff161461206b576040517f08c379a00000000000000000000000000000000000000000000000000000000081526004018080602001828103825260208152602001807f4f776e61626c653a2063616c6c6572206973206e6f7420746865206f776e657281525060200191505060405180910390fd5b600073ffffffffffffffffffffffffffffffffffffffff168173ffffffffffffffffffffffffffffffffffffffff1614156120f1576040517f08c379a00000000000000000000000000000000000000000000000000000000081526004018080602001828103825260268152602001806137cb6026913960400191505060405180910390fd5b8073ffffffffffffffffffffffffffffffffffffffff16600a60009054906101000a900473ffffffffffffffffffffffffffffffffffffffff1673ffffffffffffffffffffffffffffffffffffffff167f8be0079c531659141344cd1fd0a4f28419497f9722a3daafe3b4186f6b6457e060405160405180910390a380600a60006101000a81548173ffffffffffffffffffffffffffffffffffffffff021916908373ffffffffffffffffffffffffffffffffffffffff16021790555050565b600033905090565b600073ffffffffffffffffffffffffffffffffffffffff168273ffffffffffffffffffffffffffffffffffffffff16141561225c576040517f08c379a00000000000000000000000000000000000000000000000000000000081526004018080602001828103825260208152602001807f4552433732313a206d696e7420746f20746865207a65726f206164647265737381525060200191505060405180910390fd5b61226581612437565b156122d8576040517f08c379a000000000000000000000000000000000000000000000000000000000815260040180806020018281038252601c8152602001807f4552433732313a20746f6b656e20616c7265616479206d696e7465640000000081525060200191505060405180910390fd5b6122e460008383612cb6565b61233581600160008573ffffffffffffffffffffffffffffffffffffffff1673ffffffffffffffffffffffffffffffffffffffff168152602001908152602001600020612cbb90919063ffffffff16565b5061234c81836002612cd59092919063ffffffff16565b50808273ffffffffffffffffffffffffffffffffffffffff16600073ffffffffffffffffffffffffffffffffffffffff167fddf252ad1be2c89b69c2b068fc378daa952ba7f163c4a11628f55a4df523b3ef60405160405180910390a45050565b6123b682612437565b61240b576040517f08c379a000000000000000000000000000000000000000000000000000000000815260040180806020018281038252602c815260200180613940602c913960400191505060405180910390fd5b806008600084815260200190815260200160002090805190602001906124329291906136d1565b505050565b600061244d826002612d0a90919063ffffffff16565b9050919050565b816004600083815260200190815260200160002060006101000a81548173ffffffffffffffffffffffffffffffffffffffff021916908373ffffffffffffffffffffffffffffffffffffffff160217905550808273ffffffffffffffffffffffffffffffffffffffff166124c7836113f9565b73ffffffffffffffffffffffffffffffffffffffff167f8c5be1e5ebec7d5bd14f71427d1e84f3dd0314c0f7b2291e5b200ac8c7c3b92560405160405180910390a45050565b600061251b82600001612d24565b9050919050565b600061252d82612437565b612582576040517f08c379a000000000000000000000000000000000000000000000000000000000815260040180806020018281038252602c81526020018061383b602c913960400191505060405180910390fd5b600061258d836113f9565b90508073ffffffffffffffffffffffffffffffffffffffff168473ffffffffffffffffffffffffffffffffffffffff1614806125fc57508373ffffffffffffffffffffffffffffffffffffffff166125e4846110cb565b73ffffffffffffffffffffffffffffffffffffffff16145b8061260d575061260c8185611e3a565b5b91505092915050565b8273ffffffffffffffffffffffffffffffffffffffff16612636826113f9565b73ffffffffffffffffffffffffffffffffffffffff16146126a2576040517f08c379a000000000000000000000000000000000000000000000000000000000815260040180806020018281038252602981526020018061396c6029913960400191505060405180910390fd5b600073ffffffffffffffffffffffffffffffffffffffff168273ffffffffffffffffffffffffffffffffffffffff161415612728576040517f08c379a00000000000000000000000000000000000000000000000000000000081526004018080602001828103825260248152602001806137f16024913960400191505060405180910390fd5b612733838383612cb6565b61273e600082612454565b61278f81600160008673ffffffffffffffffffffffffffffffffffffffff1673ffffffffffffffffffffffffffffffffffffffff168152602001908152602001600020612d3590919063ffffffff16565b506127e181600160008573ffffffffffffffffffffffffffffffffffffffff1673ffffffffffffffffffffffffffffffffffffffff168152602001908152602001600020612cbb90919063ffffffff16565b506127f881836002612cd59092919063ffffffff16565b50808273ffffffffffffffffffffffffffffffffffffffff168473ffffffffffffffffffffffffffffffffffffffff167fddf252ad1be2c89b69c2b068fc378daa952ba7f163c4a11628f55a4df523b3ef60405160405180910390a4505050565b60006128688360000183612d4f565b60001c905092915050565b6000806000806128868660000186612dd2565b915091508160001c8160001c8090509350935050509250929050565b60006128b5846000018460001b84612e6b565b60001c90509392505050565b60006128cf82600001612f61565b9050919050565b6128e1848484612616565b6128ed84848484612f72565b612942576040517f08c379a00000000000000000000000000000000000000000000000000000000081526004018080602001828103825260328152602001806137996032913960400191505060405180910390fd5b50505050565b60606000821415612990576040518060400160405280600181526020017f30000000000000000000000000000000000000000000000000000000000000008152509050612a73565b600082905060005b600082146129ba578080600101915050600a82816129b257fe5b049150612998565b6060816040519080825280601f01601f1916602001820160405280156129ef5781602001600182028038833980820191505090505b50905060006001830390508593505b60008414612a6b57600a8481612a1057fe5b0660300160f81b82828060019003935081518110612a2a57fe5b60200101907effffffffffffffffffffffffffffffffffffffffffffffffffffffffffffff1916908160001a905350600a8481612a6357fe5b0493506129fe565b819450505050505b919050565b612a8181612437565b612af3576040517f08c379a00000000000000000000000000000000000000000000000000000000081526004018080602001828103825260158152602001807f4572726f722c2077726f6e6720546f6b656e206964000000000000000000000081525060200191505060405180910390fd5b6010600082815260200190815260200160002060009054906101000a900460ff1615612b87576040517f08c379a00000000000000000000000000000000000000000000000000000000081526004018080602001828103825260148152602001807f4572726f722c20546f6b656e20697320736f6c6400000000000000000000000081525060200191505060405180910390fd5b6011600082815260200190815260200160002054341015612c10576040517f08c379a00000000000000000000000000000000000000000000000000000000081526004018080602001828103825260178152602001807f4572726f722c20546f6b656e20636f737473206d6f726500000000000000000081525060200191505060405180910390fd5b50565b612c1e303383612616565b600f60009054906101000a900473ffffffffffffffffffffffffffffffffffffffff1673ffffffffffffffffffffffffffffffffffffffff166108fc349081150290604051600060405180830381858888f19350505050158015612c86573d6000803e3d6000fd5b5060016010600083815260200190815260200160002060006101000a81548160ff02191690831515021790555050565b505050565b6000612ccd836000018360001b6131b7565b905092915050565b6000612d01846000018460001b8473ffffffffffffffffffffffffffffffffffffffff1660001b613227565b90509392505050565b6000612d1c836000018360001b613303565b905092915050565b600081600001805490509050919050565b6000612d47836000018360001b613326565b905092915050565b600081836000018054905011612db0576040517f08c379a00000000000000000000000000000000000000000000000000000000081526004018080602001828103825260228152602001806137776022913960400191505060405180910390fd5b826000018281548110612dbf57fe5b9060005260206000200154905092915050565b60008082846000018054905011612e34576040517f08c379a00000000000000000000000000000000000000000000000000000000081526004018080602001828103825260228152602001806138f26022913960400191505060405180910390fd5b6000846000018481548110612e4557fe5b906000526020600020906002020190508060000154816001015492509250509250929050565b60008084600101600085815260200190815260200160002054905060008114158390612f32576040517f08c379a00000000000000000000000000000000000000000000000000000000081526004018080602001828103825283818151815260200191508051906020019080838360005b83811015612ef7578082015181840152602081019050612edc565b50505050905090810190601f168015612f245780820380516001836020036101000a031916815260200191505b509250505060405180910390fd5b50846000016001820381548110612f4557fe5b9060005260206000209060020201600101549150509392505050565b600081600001805490509050919050565b6000612f938473ffffffffffffffffffffffffffffffffffffffff1661340e565b612fa057600190506131af565b606061313663150b7a0260e01b612fb56121b1565b888787604051602401808573ffffffffffffffffffffffffffffffffffffffff1673ffffffffffffffffffffffffffffffffffffffff1681526020018473ffffffffffffffffffffffffffffffffffffffff1673ffffffffffffffffffffffffffffffffffffffff16815260200183815260200180602001828103825283818151815260200191508051906020019080838360005b8381101561306557808201518184015260208101905061304a565b50505050905090810190601f1680156130925780820380516001836020036101000a031916815260200191505b5095505050505050604051602081830303815290604052907bffffffffffffffffffffffffffffffffffffffffffffffffffffffff19166020820180517bffffffffffffffffffffffffffffffffffffffffffffffffffffffff8381831617835250505050604051806060016040528060328152602001613799603291398773ffffffffffffffffffffffffffffffffffffffff166134219092919063ffffffff16565b9050600081806020019051602081101561314f57600080fd5b8101908080519060200190929190505050905063150b7a0260e01b7bffffffffffffffffffffffffffffffffffffffffffffffffffffffff1916817bffffffffffffffffffffffffffffffffffffffffffffffffffffffff191614925050505b949350505050565b60006131c38383613439565b61321c578260000182908060018154018082558091505060019003906000526020600020016000909190919091505582600001805490508360010160008481526020019081526020016000208190555060019050613221565b600090505b92915050565b60008084600101600085815260200190815260200160002054905060008114156132ce578460000160405180604001604052808681526020018581525090806001815401808255809150506001900390600052602060002090600202016000909190919091506000820151816000015560208201518160010155505084600001805490508560010160008681526020019081526020016000208190555060019150506132fc565b828560000160018303815481106132e157fe5b90600052602060002090600202016001018190555060009150505b9392505050565b600080836001016000848152602001908152602001600020541415905092915050565b60008083600101600084815260200190815260200160002054905060008114613402576000600182039050600060018660000180549050039050600086600001828154811061337157fe5b906000526020600020015490508087600001848154811061338e57fe5b90600052602060002001819055506001830187600101600083815260200190815260200160002081905550866000018054806133c657fe5b60019003818190600052602060002001600090559055866001016000878152602001908152602001600020600090556001945050505050613408565b60009150505b92915050565b600080823b905060008111915050919050565b6060613430848460008561345c565b90509392505050565b600080836001016000848152602001908152602001600020541415905092915050565b6060824710156134b7576040517f08c379a00000000000000000000000000000000000000000000000000000000081526004018080602001828103825260268152602001806138156026913960400191505060405180910390fd5b6134c08561340e565b613532576040517f08c379a000000000000000000000000000000000000000000000000000000000815260040180806020018281038252601d8152602001807f416464726573733a2063616c6c20746f206e6f6e2d636f6e747261637400000081525060200191505060405180910390fd5b600060608673ffffffffffffffffffffffffffffffffffffffff1685876040518082805190602001908083835b60208310613582578051825260208201915060208101905060208303925061355f565b6001836020036101000a03801982511681845116808217855250505050505090500191505060006040518083038185875af1925050503d80600081146135e4576040519150601f19603f3d011682016040523d82523d6000602084013e6135e9565b606091505b50915091506135f9828286613605565b92505050949350505050565b60608315613615578290506136ca565b6000835111156136285782518084602001fd5b816040517f08c379a00000000000000000000000000000000000000000000000000000000081526004018080602001828103825283818151815260200191508051906020019080838360005b8381101561368f578082015181840152602081019050613674565b50505050905090810190601f1680156136bc5780820380516001836020036101000a031916815260200191505b509250505060405180910390fd5b9392505050565b828054600181600116156101000203166002900490600052602060002090601f016020900481019282601f1061371257805160ff1916838001178555613740565b82800160010185558215613740579182015b8281111561373f578251825591602001919060010190613724565b5b50905061374d9190613751565b5090565b61377391905b8082111561376f576000816000905550600101613757565b5090565b9056fe456e756d657261626c655365743a20696e646578206f7574206f6620626f756e64734552433732313a207472616e7366657220746f206e6f6e20455243373231526563656976657220696d706c656d656e7465724f776e61626c653a206e6577206f776e657220697320746865207a65726f20616464726573734552433732313a207472616e7366657220746f20746865207a65726f2061646472657373416464726573733a20696e73756666696369656e742062616c616e636520666f722063616c6c4552433732313a206f70657261746f7220717565727920666f72206e6f6e6578697374656e7420746f6b656e4552433732313a20617070726f76652063616c6c6572206973206e6f74206f776e6572206e6f7220617070726f76656420666f7220616c6c4552433732313a2062616c616e636520717565727920666f7220746865207a65726f20616464726573734552433732313a206f776e657220717565727920666f72206e6f6e6578697374656e7420746f6b656e456e756d657261626c654d61703a20696e646578206f7574206f6620626f756e64734552433732313a20617070726f76656420717565727920666f72206e6f6e6578697374656e7420746f6b656e4552433732314d657461646174613a2055524920736574206f66206e6f6e6578697374656e7420746f6b656e4552433732313a207472616e73666572206f6620746f6b656e2074686174206973206e6f74206f776e4552433732314d657461646174613a2055524920717565727920666f72206e6f6e6578697374656e7420746f6b656e4552433732313a20617070726f76616c20746f2063757272656e74206f776e65724552433732313a207472616e736665722063616c6c6572206973206e6f74206f776e6572206e6f7220617070726f766564a26469706673582212204354afc852a235babeb9b27bfb4d3c8933376c8d812ecd3eb34da1f796d6edd764736f6c63430006020033",
  "linkReferences": {},
  "deployedLinkReferences": {}
}