{
  "_format": "hh-sol-artifact-1",
  "contractName": "NFT",
  "sourceName": "contracts/NFT.sol",
  "abi": [
    {
      "inputs": [
        {
          "internalType": "string",
          "name": "name",
          "type": "string"
        },
        {
          "internalType": "string",
          "name": "symbol",
          "type": "string"
        },
        {
          "internalType": "string",
          "name": "baseURIp",
          "type": "string"
        },
        {
          "internalType": "uint256",
          "name": "startingIndex",
          "type": "uint256"
        }
      ],
      "stateMutability": "nonpayable",
      "type": "constructor"
    },
    {
      "anonymous": false,
      "inputs": [
        {
          "indexed": true,
          "internalType": "address",
          "name": "owner",
          "type": "address"
        },
        {
          "indexed": true,
          "internalType": "address",
          "name": "approved",
          "type": "address"
        },
        {
          "indexed": true,
          "internalType": "uint256",
          "name": "tokenId",
          "type": "uint256"
        }
      ],
      "name": "Approval",
      "type": "event"
    },
    {
      "anonymous": false,
      "inputs": [
        {
          "indexed": true,
          "internalType": "address",
          "name": "owner",
          "type": "address"
        },
        {
          "indexed": true,
          "internalType": "address",
          "name": "operator",
          "type": "address"
        },
        {
          "indexed": false,
          "internalType": "bool",
          "name": "approved",
          "type": "bool"
        }
      ],
      "name": "ApprovalForAll",
      "type": "event"
    },
    {
      "anonymous": false,
      "inputs": [
        {
          "indexed": true,
          "internalType": "address",
          "name": "previousOwner",
          "type": "address"
        },
        {
          "indexed": true,
          "internalType": "address",
          "name": "newOwner",
          "type": "address"
        }
      ],
      "name": "OwnershipTransferred",
      "type": "event"
    },
    {
      "anonymous": false,
      "inputs": [
        {
          "indexed": false,
          "internalType": "address",
          "name": "owner",
          "type": "address"
        },
        {
          "indexed": false,
          "internalType": "uint256",
          "name": "price",
          "type": "uint256"
        },
        {
          "indexed": false,
          "internalType": "uint256",
          "name": "id",
          "type": "uint256"
        },
        {
          "indexed": false,
          "internalType": "string",
          "name": "uri",
          "type": "string"
        }
      ],
      "name": "Purchase",
      "type": "event"
    },
    {
      "anonymous": false,
      "inputs": [
        {
          "indexed": false,
          "internalType": "uint256",
          "name": "tokenId",
          "type": "uint256"
        },
        {
          "indexed": false,
          "internalType": "address",
          "name": "owner",
          "type": "address"
        },
        {
          "indexed": false,
          "internalType": "uint256",
          "name": "first_encounter",
          "type": "uint256"
        }
      ],
      "name": "TokenMinted",
      "type": "event"
    },
    {
      "anonymous": false,
      "inputs": [
        {
          "indexed": true,
          "internalType": "address",
          "name": "from",
          "type": "address"
        },
        {
          "indexed": true,
          "internalType": "address",
          "name": "to",
          "type": "address"
        },
        {
          "indexed": true,
          "internalType": "uint256",
          "name": "tokenId",
          "type": "uint256"
        }
      ],
      "name": "Transfer",
      "type": "event"
    },
    {
      "inputs": [],
      "name": "CURRENT_PRICE",
      "outputs": [
        {
          "internalType": "uint256",
          "name": "",
          "type": "uint256"
        }
      ],
      "stateMutability": "view",
      "type": "function"
    },
    {
      "inputs": [],
      "name": "MAX_NFTS",
      "outputs": [
        {
          "internalType": "uint256",
          "name": "",
          "type": "uint256"
        }
      ],
      "stateMutability": "view",
      "type": "function"
    },
    {
      "inputs": [],
      "name": "MAX_PURCHASE",
      "outputs": [
        {
          "internalType": "uint256",
          "name": "",
          "type": "uint256"
        }
      ],
      "stateMutability": "view",
      "type": "function"
    },
    {
      "inputs": [],
      "name": "_owner",
      "outputs": [
        {
          "internalType": "address payable",
          "name": "",
          "type": "address"
        }
      ],
      "stateMutability": "view",
      "type": "function"
    },
    {
      "inputs": [
        {
          "internalType": "address",
          "name": "to",
          "type": "address"
        },
        {
          "internalType": "uint256",
          "name": "tokenId",
          "type": "uint256"
        }
      ],
      "name": "approve",
      "outputs": [],
      "stateMutability": "nonpayable",
      "type": "function"
    },
    {
      "inputs": [
        {
          "internalType": "address",
          "name": "owner",
          "type": "address"
        }
      ],
      "name": "balanceOf",
      "outputs": [
        {
          "internalType": "uint256",
          "name": "",
          "type": "uint256"
        }
      ],
      "stateMutability": "view",
      "type": "function"
    },
    {
      "inputs": [
        {
          "internalType": "uint256",
          "name": "id",
          "type": "uint256"
        }
      ],
      "name": "buy",
      "outputs": [],
      "stateMutability": "payable",
      "type": "function"
    },
    {
      "inputs": [],
      "name": "flipSaleIsActive",
      "outputs": [],
      "stateMutability": "nonpayable",
      "type": "function"
    },
    {
      "inputs": [
        {
          "internalType": "uint256",
          "name": "tokenId",
          "type": "uint256"
        }
      ],
      "name": "getApproved",
      "outputs": [
        {
          "internalType": "address",
          "name": "",
          "type": "address"
        }
      ],
      "stateMutability": "view",
      "type": "function"
    },
    {
      "inputs": [],
      "name": "getGoldNFT",
      "outputs": [
        {
          "internalType": "uint256",
          "name": "",
          "type": "uint256"
        }
      ],
      "stateMutability": "view",
      "type": "function"
    },
    {
      "inputs": [
        {
          "internalType": "uint256",
          "name": "tokenId",
          "type": "uint256"
        }
      ],
      "name": "getTokenDetail",
      "outputs": [
        {
          "components": [
            {
              "internalType": "uint256",
              "name": "first_encounter",
              "type": "uint256"
            }
          ],
          "internalType": "struct NFT.NFTDetail",
          "name": "detail",
          "type": "tuple"
        }
      ],
      "stateMutability": "view",
      "type": "function"
    },
    {
      "inputs": [
        {
          "internalType": "address",
          "name": "owner",
          "type": "address"
        },
        {
          "internalType": "address",
          "name": "operator",
          "type": "address"
        }
      ],
      "name": "isApprovedForAll",
      "outputs": [
        {
          "internalType": "bool",
          "name": "",
          "type": "bool"
        }
      ],
      "stateMutability": "view",
      "type": "function"
    },
    {
      "inputs": [
        {
          "internalType": "string",
          "name": "_tokenURI",
          "type": "string"
        },
        {
          "internalType": "uint256",
          "name": "_price",
          "type": "uint256"
        }
      ],
      "name": "mint",
      "outputs": [
        {
          "internalType": "bool",
          "name": "",
          "type": "bool"
        }
      ],
      "stateMutability": "nonpayable",
      "type": "function"
    },
    {
      "inputs": [
        {
          "internalType": "uint256",
          "name": "tokenId",
          "type": "uint256"
        }
      ],
      "name": "mintToken",
      "outputs": [],
      "stateMutability": "nonpayable",
      "type": "function"
    },
    {
      "inputs": [],
      "name": "name",
      "outputs": [
        {
          "internalType": "string",
          "name": "",
          "type": "string"
        }
      ],
      "stateMutability": "view",
      "type": "function"
    },
    {
      "inputs": [],
      "name": "owner",
      "outputs": [
        {
          "internalType": "address",
          "name": "",
          "type": "address"
        }
      ],
      "stateMutability": "view",
      "type": "function"
    },
    {
      "inputs": [
        {
          "internalType": "uint256",
          "name": "tokenId",
          "type": "uint256"
        }
      ],
      "name": "ownerOf",
      "outputs": [
        {
          "internalType": "address",
          "name": "",
          "type": "address"
        }
      ],
      "stateMutability": "view",
      "type": "function"
    },
    {
      "inputs": [
        {
          "internalType": "uint256",
          "name": "",
          "type": "uint256"
        }
      ],
      "name": "price",
      "outputs": [
        {
          "internalType": "uint256",
          "name": "",
          "type": "uint256"
        }
      ],
      "stateMutability": "view",
      "type": "function"
    },
    {
      "inputs": [],
      "name": "renounceOwnership",
      "outputs": [],
      "stateMutability": "nonpayable",
      "type": "function"
    },
    {
      "inputs": [],
      "name": "reserveTokens",
      "outputs": [],
      "stateMutability": "nonpayable",
      "type": "function"
    },
    {
      "inputs": [
        {
          "internalType": "address",
          "name": "from",
          "type": "address"
        },
        {
          "internalType": "address",
          "name": "to",
          "type": "address"
        },
        {
          "internalType": "uint256",
          "name": "tokenId",
          "type": "uint256"
        }
      ],
      "name": "safeTransferFrom",
      "outputs": [],
      "stateMutability": "nonpayable",
      "type": "function"
    },
    {
      "inputs": [
        {
          "internalType": "address",
          "name": "from",
          "type": "address"
        },
        {
          "internalType": "address",
          "name": "to",
          "type": "address"
        },
        {
          "internalType": "uint256",
          "name": "tokenId",
          "type": "uint256"
        },
        {
          "internalType": "bytes",
          "name": "_data",
          "type": "bytes"
        }
      ],
      "name": "safeTransferFrom",
      "outputs": [],
      "stateMutability": "nonpayable",
      "type": "function"
    },
    {
      "inputs": [],
      "name": "saleIsActive",
      "outputs": [
        {
          "internalType": "bool",
          "name": "",
          "type": "bool"
        }
      ],
      "stateMutability": "view",
      "type": "function"
    },
    {
      "inputs": [],
      "name": "selectGoldNFT",
      "outputs": [],
      "stateMutability": "nonpayable",
      "type": "function"
    },
    {
      "inputs": [
        {
          "internalType": "address",
          "name": "operator",
          "type": "address"
        },
        {
          "internalType": "bool",
          "name": "approved",
          "type": "bool"
        }
      ],
      "name": "setApprovalForAll",
      "outputs": [],
      "stateMutability": "nonpayable",
      "type": "function"
    },
    {
      "inputs": [
        {
          "internalType": "string",
          "name": "BaseURI",
          "type": "string"
        }
      ],
      "name": "setBaseURI",
      "outputs": [],
      "stateMutability": "nonpayable",
      "type": "function"
    },
    {
      "inputs": [
        {
          "internalType": "uint256",
          "name": "price",
          "type": "uint256"
        }
      ],
      "name": "setCurrentPrice",
      "outputs": [],
      "stateMutability": "nonpayable",
      "type": "function"
    },
    {
      "inputs": [
        {
          "internalType": "uint256",
          "name": "maxTokens",
          "type": "uint256"
        }
      ],
      "name": "setMaxTokens",
      "outputs": [],
      "stateMutability": "nonpayable",
      "type": "function"
    },
    {
      "inputs": [
        {
          "internalType": "uint256",
          "name": "startingIndex",
          "type": "uint256"
        }
      ],
      "name": "setStartingIndex",
      "outputs": [],
      "stateMutability": "nonpayable",
      "type": "function"
    },
    {
      "inputs": [
        {
          "internalType": "uint256",
          "name": "",
          "type": "uint256"
        }
      ],
      "name": "sold",
      "outputs": [
        {
          "internalType": "bool",
          "name": "",
          "type": "bool"
        }
      ],
      "stateMutability": "view",
      "type": "function"
    },
    {
      "inputs": [
        {
          "internalType": "bytes4",
          "name": "interfaceId",
          "type": "bytes4"
        }
      ],
      "name": "supportsInterface",
      "outputs": [
        {
          "internalType": "bool",
          "name": "",
          "type": "bool"
        }
      ],
      "stateMutability": "view",
      "type": "function"
    },
    {
      "inputs": [],
      "name": "symbol",
      "outputs": [
        {
          "internalType": "string",
          "name": "",
          "type": "string"
        }
      ],
      "stateMutability": "view",
      "type": "function"
    },
    {
      "inputs": [
        {
          "internalType": "uint256",
          "name": "index",
          "type": "uint256"
        }
      ],
      "name": "tokenByIndex",
      "outputs": [
        {
          "internalType": "uint256",
          "name": "",
          "type": "uint256"
        }
      ],
      "stateMutability": "view",
      "type": "function"
    },
    {
      "inputs": [
        {
          "internalType": "address",
          "name": "owner",
          "type": "address"
        },
        {
          "internalType": "uint256",
          "name": "index",
          "type": "uint256"
        }
      ],
      "name": "tokenOfOwnerByIndex",
      "outputs": [
        {
          "internalType": "uint256",
          "name": "",
          "type": "uint256"
        }
      ],
      "stateMutability": "view",
      "type": "function"
    },
    {
      "inputs": [
        {
          "internalType": "uint256",
          "name": "tokenId",
          "type": "uint256"
        }
      ],
      "name": "tokenURI",
      "outputs": [
        {
          "internalType": "string",
          "name": "",
          "type": "string"
        }
      ],
      "stateMutability": "view",
      "type": "function"
    },
    {
      "inputs": [],
      "name": "totalSupply",
      "outputs": [
        {
          "internalType": "uint256",
          "name": "",
          "type": "uint256"
        }
      ],
      "stateMutability": "view",
      "type": "function"
    },
    {
      "inputs": [
        {
          "internalType": "address",
          "name": "from",
          "type": "address"
        },
        {
          "internalType": "address",
          "name": "to",
          "type": "address"
        },
        {
          "internalType": "uint256",
          "name": "tokenId",
          "type": "uint256"
        }
      ],
      "name": "transferFrom",
      "outputs": [],
      "stateMutability": "nonpayable",
      "type": "function"
    },
    {
      "inputs": [
        {
          "internalType": "address",
          "name": "newOwner",
          "type": "address"
        }
      ],
      "name": "transferOwnership",
      "outputs": [],
      "stateMutability": "nonpayable",
      "type": "function"
    },
    {
      "inputs": [],
      "name": "withdraw",
      "outputs": [],
      "stateMutability": "nonpayable",
      "type": "function"
    }
  ],
  "bytecode": "0x6080604052600a600c55612b67600d556000600e5567011c37937e080000600f556000601060006101000a81548160ff021916908315150217905550600060175560006018553480156200005257600080fd5b50604051620050bd380380620050bd8339818101604052810190620000789190620003cc565b838381600090805190602001906200009292919062000293565b508060019080519060200190620000ab92919062000293565b505050620000ce620000c2620000f060201b60201c565b620000f860201b60201c565b620000df82620001be60201b60201c565b80600b81905550505050506200064d565b600033905090565b6000600a60009054906101000a900473ffffffffffffffffffffffffffffffffffffffff16905081600a60006101000a81548173ffffffffffffffffffffffffffffffffffffffff021916908373ffffffffffffffffffffffffffffffffffffffff1602179055508173ffffffffffffffffffffffffffffffffffffffff168173ffffffffffffffffffffffffffffffffffffffff167f8be0079c531659141344cd1fd0a4f28419497f9722a3daafe3b4186f6b6457e060405160405180910390a35050565b620001ce620000f060201b60201c565b73ffffffffffffffffffffffffffffffffffffffff16620001f46200026960201b60201c565b73ffffffffffffffffffffffffffffffffffffffff16146200024d576040517f08c379a00000000000000000000000000000000000000000000000000000000081526004016200024490620004c5565b60405180910390fd5b80601290805190602001906200026592919062000293565b5050565b6000600a60009054906101000a900473ffffffffffffffffffffffffffffffffffffffff16905090565b828054620002a1906200059f565b90600052602060002090601f016020900481019282620002c5576000855562000311565b82601f10620002e057805160ff191683800117855562000311565b8280016001018555821562000311579182015b8281111562000310578251825591602001919060010190620002f3565b5b50905062000320919062000324565b5090565b5b808211156200033f57600081600090555060010162000325565b5090565b60006200035a62000354846200051b565b620004e7565b9050828152602081018484840111156200037357600080fd5b6200038084828562000569565b509392505050565b600082601f8301126200039a57600080fd5b8151620003ac84826020860162000343565b91505092915050565b600081519050620003c68162000633565b92915050565b60008060008060808587031215620003e357600080fd5b600085015167ffffffffffffffff811115620003fe57600080fd5b6200040c8782880162000388565b945050602085015167ffffffffffffffff8111156200042a57600080fd5b620004388782880162000388565b935050604085015167ffffffffffffffff8111156200045657600080fd5b620004648782880162000388565b92505060606200047787828801620003b5565b91505092959194509250565b6000620004926020836200054e565b91507f4f776e61626c653a2063616c6c6572206973206e6f7420746865206f776e65726000830152602082019050919050565b60006020820190508181036000830152620004e08162000483565b9050919050565b6000604051905081810181811067ffffffffffffffff8211171562000511576200051062000604565b5b8060405250919050565b600067ffffffffffffffff82111562000539576200053862000604565b5b601f19601f8301169050602081019050919050565b600082825260208201905092915050565b6000819050919050565b60005b83811015620005895780820151818401526020810190506200056c565b8381111562000599576000848401525b50505050565b60006002820490506001821680620005b857607f821691505b60208210811415620005cf57620005ce620005d5565b5b50919050565b7f4e487b7100000000000000000000000000000000000000000000000000000000600052602260045260246000fd5b7f4e487b7100000000000000000000000000000000000000000000000000000000600052604160045260246000fd5b6200063e816200055f565b81146200064a57600080fd5b50565b614a60806200065d6000396000f3fe6080604052600436106102305760003560e01c806357a16d641161012e578063b2bdfa7b116100ab578063d96a094a1161006f578063d96a094a1461084d578063e985e9c514610869578063eb8d2444146108a6578063ed06f66b146108d1578063f2fde38b146108e857610230565b8063b2bdfa7b14610756578063b88d4fde14610781578063c0bcc07a146107aa578063c634d032146107e7578063c87b56dd1461081057610230565b806388f2ebcb116100f257806388f2ebcb146106715780638da5cb5b1461069a57806395d89b41146106c55780639c03facb146106f0578063a22cb4651461072d57610230565b806357a16d641461058a5780636352211e146105b557806370a08231146105f25780637146bd081461062f578063715018a61461065a57610230565b806323b872dd116101bc57806342842e0e1161018057806342842e0e146104b95780634b369a61146104e25780634f6ccce71461050d57806355f804b31461054a578063571d88741461057357610230565b806323b872dd146103e857806326a49e371461041157806327ac36c41461044e5780632f745c59146104655780633ccfd60b146104a257610230565b8063093d8c6411610203578063093d8c6414610317578063095ea7b31461034257806311e776fe1461036b57806318160ddd1461039457806318b20071146103bf57610230565b806301ffc9a714610235578063056b01ce1461027257806306fdde03146102af578063081812fc146102da575b600080fd5b34801561024157600080fd5b5061025c60048036038101906102579190613661565b610911565b604051610269919061422a565b60405180910390f35b34801561027e57600080fd5b50610299600480360381019061029491906136f4565b61098b565b6040516102a6919061422a565b60405180910390f35b3480156102bb57600080fd5b506102c4610a6b565b6040516102d19190614245565b60405180910390f35b3480156102e657600080fd5b5061030160048036038101906102fc9190613748565b610afd565b60405161030e919061415c565b60405180910390f35b34801561032357600080fd5b5061032c610b82565b60405161033991906145a2565b60405180910390f35b34801561034e57600080fd5b5061036960048036038101906103649190613625565b610b88565b005b34801561037757600080fd5b50610392600480360381019061038d9190613748565b610ca0565b005b3480156103a057600080fd5b506103a9610d26565b6040516103b691906145a2565b60405180910390f35b3480156103cb57600080fd5b506103e660048036038101906103e19190613748565b610d33565b005b3480156103f457600080fd5b5061040f600480360381019061040a919061351f565b610db9565b005b34801561041d57600080fd5b5061043860048036038101906104339190613748565b610e19565b60405161044591906145a2565b60405180910390f35b34801561045a57600080fd5b50610463610e31565b005b34801561047157600080fd5b5061048c60048036038101906104879190613625565b610f75565b60405161049991906145a2565b60405180910390f35b3480156104ae57600080fd5b506104b761101a565b005b3480156104c557600080fd5b506104e060048036038101906104db919061351f565b6110e5565b005b3480156104ee57600080fd5b506104f7611105565b60405161050491906145a2565b60405180910390f35b34801561051957600080fd5b50610534600480360381019061052f9190613748565b61110b565b60405161054191906145a2565b60405180910390f35b34801561055657600080fd5b50610571600480360381019061056c91906136b3565b6111a2565b005b34801561057f57600080fd5b50610588611238565b005b34801561059657600080fd5b5061059f611385565b6040516105ac91906145a2565b60405180910390f35b3480156105c157600080fd5b506105dc60048036038101906105d79190613748565b61145b565b6040516105e9919061415c565b60405180910390f35b3480156105fe57600080fd5b50610619600480360381019061061491906134ba565b61150d565b60405161062691906145a2565b60405180910390f35b34801561063b57600080fd5b506106446115c5565b60405161065191906145a2565b60405180910390f35b34801561066657600080fd5b5061066f6115cb565b005b34801561067d57600080fd5b5061069860048036038101906106939190613748565b611653565b005b3480156106a657600080fd5b506106af6116d9565b6040516106bc919061415c565b60405180910390f35b3480156106d157600080fd5b506106da611703565b6040516106e79190614245565b60405180910390f35b3480156106fc57600080fd5b5061071760048036038101906107129190613748565b611795565b604051610724919061422a565b60405180910390f35b34801561073957600080fd5b50610754600480360381019061074f91906135e9565b6117b5565b005b34801561076257600080fd5b5061076b611936565b6040516107789190614177565b60405180910390f35b34801561078d57600080fd5b506107a860048036038101906107a3919061356e565b61195c565b005b3480156107b657600080fd5b506107d160048036038101906107cc9190613748565b6119be565b6040516107de9190614587565b60405180910390f35b3480156107f357600080fd5b5061080e60048036038101906108099190613748565b6119f5565b005b34801561081c57600080fd5b5061083760048036038101906108329190613748565b611b01565b6040516108449190614245565b60405180910390f35b61086760048036038101906108629190613748565b611c74565b005b34801561087557600080fd5b50610890600480360381019061088b91906134e3565b611cd0565b60405161089d919061422a565b60405180910390f35b3480156108b257600080fd5b506108bb611d64565b6040516108c8919061422a565b60405180910390f35b3480156108dd57600080fd5b506108e6611d77565b005b3480156108f457600080fd5b5061090f600480360381019061090a91906134ba565b611e1f565b005b60007f780e9d63000000000000000000000000000000000000000000000000000000007bffffffffffffffffffffffffffffffffffffffffffffffffffffffff1916827bffffffffffffffffffffffffffffffffffffffffffffffffffffffff19161480610984575061098382611f17565b5b9050919050565b6000610995611ff9565b73ffffffffffffffffffffffffffffffffffffffff166109b36116d9565b73ffffffffffffffffffffffffffffffffffffffff1614610a09576040517f08c379a0000000000000000000000000000000000000000000000000000000008152600401610a00906144a7565b60405180910390fd5b60006001601754610a1a91906146c8565b9050826015600083815260200190815260200160002081905550610a3e3082612001565b610a4881856121cf565b60176000815480929190610a5b9061487d565b9190505550600191505092915050565b606060008054610a7a9061484b565b80601f0160208091040260200160405190810160405280929190818152602001828054610aa69061484b565b8015610af35780601f10610ac857610100808354040283529160200191610af3565b820191906000526020600020905b815481529060010190602001808311610ad657829003601f168201915b5050505050905090565b6000610b0882612243565b610b47576040517f08c379a0000000000000000000000000000000000000000000000000000000008152600401610b3e90614447565b60405180910390fd5b6004600083815260200190815260200160002060009054906101000a900473ffffffffffffffffffffffffffffffffffffffff169050919050565b600d5481565b6000610b938261145b565b90508073ffffffffffffffffffffffffffffffffffffffff168373ffffffffffffffffffffffffffffffffffffffff161415610c04576040517f08c379a0000000000000000000000000000000000000000000000000000000008152600401610bfb90614507565b60405180910390fd5b8073ffffffffffffffffffffffffffffffffffffffff16610c23611ff9565b73ffffffffffffffffffffffffffffffffffffffff161480610c525750610c5181610c4c611ff9565b611cd0565b5b610c91576040517f08c379a0000000000000000000000000000000000000000000000000000000008152600401610c88906143c7565b60405180910390fd5b610c9b83836122af565b505050565b610ca8611ff9565b73ffffffffffffffffffffffffffffffffffffffff16610cc66116d9565b73ffffffffffffffffffffffffffffffffffffffff1614610d1c576040517f08c379a0000000000000000000000000000000000000000000000000000000008152600401610d13906144a7565b60405180910390fd5b80600d8190555050565b6000600880549050905090565b610d3b611ff9565b73ffffffffffffffffffffffffffffffffffffffff16610d596116d9565b73ffffffffffffffffffffffffffffffffffffffff1614610daf576040517f08c379a0000000000000000000000000000000000000000000000000000000008152600401610da6906144a7565b60405180910390fd5b80600f8190555050565b610dca610dc4611ff9565b82612368565b610e09576040517f08c379a0000000000000000000000000000000000000000000000000000000008152600401610e0090614547565b60405180910390fd5b610e14838383612446565b505050565b60156020528060005260406000206000915090505481565b610e39611ff9565b73ffffffffffffffffffffffffffffffffffffffff16610e576116d9565b73ffffffffffffffffffffffffffffffffffffffff1614610ead576040517f08c379a0000000000000000000000000000000000000000000000000000000008152600401610ea4906144a7565b60405180910390fd5b6000806000429050600192505b60148311610f7057610edd6001610ecf610d26565b6126a290919063ffffffff16565b9150600d548211610f5d576040518060200160405280828152506011600084815260200190815260200160002060008201518160000155905050610f2133836126b8565b7f2d03118aa776f7008445f6ca8490a6782ede2db364d741513555ba656ab1879f823383604051610f54939291906145bd565b60405180910390a15b8280610f689061487d565b935050610eba565b505050565b6000610f808361150d565b8210610fc1576040517f08c379a0000000000000000000000000000000000000000000000000000000008152600401610fb890614267565b60405180910390fd5b600660008473ffffffffffffffffffffffffffffffffffffffff1673ffffffffffffffffffffffffffffffffffffffff168152602001908152602001600020600083815260200190815260200160002054905092915050565b611022611ff9565b73ffffffffffffffffffffffffffffffffffffffff166110406116d9565b73ffffffffffffffffffffffffffffffffffffffff1614611096576040517f08c379a000000000000000000000000000000000000000000000000000000000815260040161108d906144a7565b60405180910390fd5b60004790503373ffffffffffffffffffffffffffffffffffffffff166108fc829081150290604051600060405180830381858888f193505050501580156110e1573d6000803e3d6000fd5b5050565b6111008383836040518060200160405280600081525061195c565b505050565b600f5481565b6000611115610d26565b8210611156576040517f08c379a000000000000000000000000000000000000000000000000000000000815260040161114d90614567565b60405180910390fd5b60088281548110611190577f4e487b7100000000000000000000000000000000000000000000000000000000600052603260045260246000fd5b90600052602060002001549050919050565b6111aa611ff9565b73ffffffffffffffffffffffffffffffffffffffff166111c86116d9565b73ffffffffffffffffffffffffffffffffffffffff161461121e576040517f08c379a0000000000000000000000000000000000000000000000000000000008152600401611215906144a7565b60405180910390fd5b80601290805190602001906112349291906132cb565b5050565b611240611ff9565b73ffffffffffffffffffffffffffffffffffffffff1661125e6116d9565b73ffffffffffffffffffffffffffffffffffffffff16146112b4576040517f08c379a00000000000000000000000000000000000000000000000000000000081526004016112ab906144a7565b60405180910390fd5b6000600e54146112f9576040517f08c379a00000000000000000000000000000000000000000000000000000000081526004016112f090614327565b60405180910390fd5b60006001600d5461130a919061474f565b905060006001611318610d26565b611322919061474f565b905060004244604051602001611339929190614130565b6040516020818303038152906040528051906020012060001c9050828161136091906148d0565b9050600581101580156113735750818111155b156113805780600e819055505b505050565b600061138f6116d9565b73ffffffffffffffffffffffffffffffffffffffff163373ffffffffffffffffffffffffffffffffffffffff1614611453576000600b541415611407576040517f08c379a00000000000000000000000000000000000000000000000000000000081526004016113fe906143a7565b60405180910390fd5b600d54611412610d26565b14611452576040517f08c379a000000000000000000000000000000000000000000000000000000000815260040161144990614487565b60405180910390fd5b5b600e54905090565b6000806002600084815260200190815260200160002060009054906101000a900473ffffffffffffffffffffffffffffffffffffffff169050600073ffffffffffffffffffffffffffffffffffffffff168173ffffffffffffffffffffffffffffffffffffffff161415611504576040517f08c379a00000000000000000000000000000000000000000000000000000000081526004016114fb90614407565b60405180910390fd5b80915050919050565b60008073ffffffffffffffffffffffffffffffffffffffff168273ffffffffffffffffffffffffffffffffffffffff16141561157e576040517f08c379a0000000000000000000000000000000000000000000000000000000008152600401611575906143e7565b60405180910390fd5b600360008373ffffffffffffffffffffffffffffffffffffffff1673ffffffffffffffffffffffffffffffffffffffff168152602001908152602001600020549050919050565b600c5481565b6115d3611ff9565b73ffffffffffffffffffffffffffffffffffffffff166115f16116d9565b73ffffffffffffffffffffffffffffffffffffffff1614611647576040517f08c379a000000000000000000000000000000000000000000000000000000000815260040161163e906144a7565b60405180910390fd5b61165160006126d6565b565b61165b611ff9565b73ffffffffffffffffffffffffffffffffffffffff166116796116d9565b73ffffffffffffffffffffffffffffffffffffffff16146116cf576040517f08c379a00000000000000000000000000000000000000000000000000000000081526004016116c6906144a7565b60405180910390fd5b80600b8190555050565b6000600a60009054906101000a900473ffffffffffffffffffffffffffffffffffffffff16905090565b6060600180546117129061484b565b80601f016020809104026020016040519081016040528092919081815260200182805461173e9061484b565b801561178b5780601f106117605761010080835404028352916020019161178b565b820191906000526020600020905b81548152906001019060200180831161176e57829003601f168201915b5050505050905090565b60136020528060005260406000206000915054906101000a900460ff1681565b6117bd611ff9565b73ffffffffffffffffffffffffffffffffffffffff168273ffffffffffffffffffffffffffffffffffffffff16141561182b576040517f08c379a000000000000000000000000000000000000000000000000000000000815260040161182290614307565b60405180910390fd5b8060056000611838611ff9565b73ffffffffffffffffffffffffffffffffffffffff1673ffffffffffffffffffffffffffffffffffffffff16815260200190815260200160002060008473ffffffffffffffffffffffffffffffffffffffff1673ffffffffffffffffffffffffffffffffffffffff16815260200190815260200160002060006101000a81548160ff0219169083151502179055508173ffffffffffffffffffffffffffffffffffffffff166118e5611ff9565b73ffffffffffffffffffffffffffffffffffffffff167f17307eab39ab6107e8899845ad3d59bd9653f200f220920489ca2b5937696c318360405161192a919061422a565b60405180910390a35050565b601060019054906101000a900473ffffffffffffffffffffffffffffffffffffffff1681565b61196d611967611ff9565b83612368565b6119ac576040517f08c379a00000000000000000000000000000000000000000000000000000000081526004016119a390614547565b60405180910390fd5b6119b88484848461279c565b50505050565b6119c6613351565b601160008381526020019081526020016000206040518060200160405290816000820154815250509050919050565b6119fd611ff9565b73ffffffffffffffffffffffffffffffffffffffff16611a1b6116d9565b73ffffffffffffffffffffffffffffffffffffffff1614611a71576040517f08c379a0000000000000000000000000000000000000000000000000000000008152600401611a68906144a7565b60405180910390fd5b611a7a81612243565b15611a8457600080fd5b611a8e33826126b8565b600042905060405180602001604052808281525060116000848152602001908152602001600020600082015181600001559050507f2d03118aa776f7008445f6ca8490a6782ede2db364d741513555ba656ab1879f823383604051611af5939291906145bd565b60405180910390a15050565b6060611b0c82612243565b611b4b576040517f08c379a0000000000000000000000000000000000000000000000000000000008152600401611b42906144e7565b60405180910390fd5b6000601460008481526020019081526020016000208054611b6b9061484b565b80601f0160208091040260200160405190810160405280929190818152602001828054611b979061484b565b8015611be45780601f10611bb957610100808354040283529160200191611be4565b820191906000526020600020905b815481529060010190602001808311611bc757829003601f168201915b505050505090506000611bf56127f8565b9050600081511415611c0b578192505050611c6f565b600082511115611c40578082604051602001611c2892919061410c565b60405160208183030381529060405292505050611c6f565b80611c4a8561288a565b604051602001611c5b92919061410c565b604051602081830303815290604052925050505b919050565b611c7d81612a37565b611c8681612b28565b7f6d5507734d4d9e8592119c9e6b3e2bf7eab8bd6252f36e2fa05a5588442479da33600f5483611cb585611b01565b604051611cc594939291906141de565b60405180910390a150565b6000600560008473ffffffffffffffffffffffffffffffffffffffff1673ffffffffffffffffffffffffffffffffffffffff16815260200190815260200160002060008373ffffffffffffffffffffffffffffffffffffffff1673ffffffffffffffffffffffffffffffffffffffff16815260200190815260200160002060009054906101000a900460ff16905092915050565b601060009054906101000a900460ff1681565b611d7f611ff9565b73ffffffffffffffffffffffffffffffffffffffff16611d9d6116d9565b73ffffffffffffffffffffffffffffffffffffffff1614611df3576040517f08c379a0000000000000000000000000000000000000000000000000000000008152600401611dea906144a7565b60405180910390fd5b601060009054906101000a900460ff1615601060006101000a81548160ff021916908315150217905550565b611e27611ff9565b73ffffffffffffffffffffffffffffffffffffffff16611e456116d9565b73ffffffffffffffffffffffffffffffffffffffff1614611e9b576040517f08c379a0000000000000000000000000000000000000000000000000000000008152600401611e92906144a7565b60405180910390fd5b600073ffffffffffffffffffffffffffffffffffffffff168173ffffffffffffffffffffffffffffffffffffffff161415611f0b576040517f08c379a0000000000000000000000000000000000000000000000000000000008152600401611f02906142a7565b60405180910390fd5b611f14816126d6565b50565b60007f80ac58cd000000000000000000000000000000000000000000000000000000007bffffffffffffffffffffffffffffffffffffffffffffffffffffffff1916827bffffffffffffffffffffffffffffffffffffffffffffffffffffffff19161480611fe257507f5b5e139f000000000000000000000000000000000000000000000000000000007bffffffffffffffffffffffffffffffffffffffffffffffffffffffff1916827bffffffffffffffffffffffffffffffffffffffffffffffffffffffff1916145b80611ff25750611ff182612bcb565b5b9050919050565b600033905090565b600073ffffffffffffffffffffffffffffffffffffffff168273ffffffffffffffffffffffffffffffffffffffff161415612071576040517f08c379a000000000000000000000000000000000000000000000000000000000815260040161206890614427565b60405180910390fd5b61207a81612243565b156120ba576040517f08c379a00000000000000000000000000000000000000000000000000000000081526004016120b1906142c7565b60405180910390fd5b6120c660008383612c35565b6001600360008473ffffffffffffffffffffffffffffffffffffffff1673ffffffffffffffffffffffffffffffffffffffff168152602001908152602001600020600082825461211691906146c8565b92505081905550816002600083815260200190815260200160002060006101000a81548173ffffffffffffffffffffffffffffffffffffffff021916908373ffffffffffffffffffffffffffffffffffffffff160217905550808273ffffffffffffffffffffffffffffffffffffffff16600073ffffffffffffffffffffffffffffffffffffffff167fddf252ad1be2c89b69c2b068fc378daa952ba7f163c4a11628f55a4df523b3ef60405160405180910390a45050565b6121d882612243565b612217576040517f08c379a000000000000000000000000000000000000000000000000000000000815260040161220e90614467565b60405180910390fd5b8060146000848152602001908152602001600020908051906020019061223e9291906132cb565b505050565b60008073ffffffffffffffffffffffffffffffffffffffff166002600084815260200190815260200160002060009054906101000a900473ffffffffffffffffffffffffffffffffffffffff1673ffffffffffffffffffffffffffffffffffffffff1614159050919050565b816004600083815260200190815260200160002060006101000a81548173ffffffffffffffffffffffffffffffffffffffff021916908373ffffffffffffffffffffffffffffffffffffffff160217905550808273ffffffffffffffffffffffffffffffffffffffff166123228361145b565b73ffffffffffffffffffffffffffffffffffffffff167f8c5be1e5ebec7d5bd14f71427d1e84f3dd0314c0f7b2291e5b200ac8c7c3b92560405160405180910390a45050565b600061237382612243565b6123b2576040517f08c379a00000000000000000000000000000000000000000000000000000000081526004016123a990614347565b60405180910390fd5b60006123bd8361145b565b90508073ffffffffffffffffffffffffffffffffffffffff168473ffffffffffffffffffffffffffffffffffffffff16148061242c57508373ffffffffffffffffffffffffffffffffffffffff1661241484610afd565b73ffffffffffffffffffffffffffffffffffffffff16145b8061243d575061243c8185611cd0565b5b91505092915050565b8273ffffffffffffffffffffffffffffffffffffffff166124668261145b565b73ffffffffffffffffffffffffffffffffffffffff16146124bc576040517f08c379a00000000000000000000000000000000000000000000000000000000081526004016124b3906144c7565b60405180910390fd5b600073ffffffffffffffffffffffffffffffffffffffff168273ffffffffffffffffffffffffffffffffffffffff16141561252c576040517f08c379a0000000000000000000000000000000000000000000000000000000008152600401612523906142e7565b60405180910390fd5b612537838383612c35565b6125426000826122af565b6001600360008573ffffffffffffffffffffffffffffffffffffffff1673ffffffffffffffffffffffffffffffffffffffff1681526020019081526020016000206000828254612592919061474f565b925050819055506001600360008473ffffffffffffffffffffffffffffffffffffffff1673ffffffffffffffffffffffffffffffffffffffff16815260200190815260200160002060008282546125e991906146c8565b92505081905550816002600083815260200190815260200160002060006101000a81548173ffffffffffffffffffffffffffffffffffffffff021916908373ffffffffffffffffffffffffffffffffffffffff160217905550808273ffffffffffffffffffffffffffffffffffffffff168473ffffffffffffffffffffffffffffffffffffffff167fddf252ad1be2c89b69c2b068fc378daa952ba7f163c4a11628f55a4df523b3ef60405160405180910390a4505050565b600081836126b091906146c8565b905092915050565b6126d2828260405180602001604052806000815250612d49565b5050565b6000600a60009054906101000a900473ffffffffffffffffffffffffffffffffffffffff16905081600a60006101000a81548173ffffffffffffffffffffffffffffffffffffffff021916908373ffffffffffffffffffffffffffffffffffffffff1602179055508173ffffffffffffffffffffffffffffffffffffffff168173ffffffffffffffffffffffffffffffffffffffff167f8be0079c531659141344cd1fd0a4f28419497f9722a3daafe3b4186f6b6457e060405160405180910390a35050565b6127a7848484612446565b6127b384848484612da4565b6127f2576040517f08c379a00000000000000000000000000000000000000000000000000000000081526004016127e990614287565b60405180910390fd5b50505050565b6060601280546128079061484b565b80601f01602080910402602001604051908101604052809291908181526020018280546128339061484b565b80156128805780601f1061285557610100808354040283529160200191612880565b820191906000526020600020905b81548152906001019060200180831161286357829003601f168201915b5050505050905090565b606060008214156128d2576040518060400160405280600181526020017f30000000000000000000000000000000000000000000000000000000000000008152509050612a32565b600082905060005b600082146129045780806128ed9061487d565b915050600a826128fd919061471e565b91506128da565b60008167ffffffffffffffff811115612946577f4e487b7100000000000000000000000000000000000000000000000000000000600052604160045260246000fd5b6040519080825280601f01601f1916602001820160405280156129785781602001600182028036833780820191505090505b5090505b60008514612a2b57600182612991919061474f565b9150600a856129a091906148d0565b60306129ac91906146c8565b60f81b8183815181106129e8577f4e487b7100000000000000000000000000000000000000000000000000000000600052603260045260246000fd5b60200101907effffffffffffffffffffffffffffffffffffffffffffffffffffffffffffff1916908160001a905350600a85612a24919061471e565b945061297c565b8093505050505b919050565b612a4081612243565b612a7f576040517f08c379a0000000000000000000000000000000000000000000000000000000008152600401612a7690614367565b60405180910390fd5b6013600082815260200190815260200160002060009054906101000a900460ff1615612ae0576040517f08c379a0000000000000000000000000000000000000000000000000000000008152600401612ad790614527565b60405180910390fd5b600f54341015612b25576040517f08c379a0000000000000000000000000000000000000000000000000000000008152600401612b1c90614387565b60405180910390fd5b50565b612b33303383612446565b601060019054906101000a900473ffffffffffffffffffffffffffffffffffffffff1673ffffffffffffffffffffffffffffffffffffffff166108fc349081150290604051600060405180830381858888f19350505050158015612b9b573d6000803e3d6000fd5b5060016013600083815260200190815260200160002060006101000a81548160ff02191690831515021790555050565b60007f01ffc9a7000000000000000000000000000000000000000000000000000000007bffffffffffffffffffffffffffffffffffffffffffffffffffffffff1916827bffffffffffffffffffffffffffffffffffffffffffffffffffffffff1916149050919050565b612c40838383612f3b565b600073ffffffffffffffffffffffffffffffffffffffff168373ffffffffffffffffffffffffffffffffffffffff161415612c8357612c7e81612f40565b612cc2565b8173ffffffffffffffffffffffffffffffffffffffff168373ffffffffffffffffffffffffffffffffffffffff1614612cc157612cc08382612f89565b5b5b600073ffffffffffffffffffffffffffffffffffffffff168273ffffffffffffffffffffffffffffffffffffffff161415612d0557612d00816130f6565b612d44565b8273ffffffffffffffffffffffffffffffffffffffff168273ffffffffffffffffffffffffffffffffffffffff1614612d4357612d428282613239565b5b5b505050565b612d538383612001565b612d606000848484612da4565b612d9f576040517f08c379a0000000000000000000000000000000000000000000000000000000008152600401612d9690614287565b60405180910390fd5b505050565b6000612dc58473ffffffffffffffffffffffffffffffffffffffff166132b8565b15612f2e578373ffffffffffffffffffffffffffffffffffffffff1663150b7a02612dee611ff9565b8786866040518563ffffffff1660e01b8152600401612e109493929190614192565b602060405180830381600087803b158015612e2a57600080fd5b505af1925050508015612e5b57506040513d601f19601f82011682018060405250810190612e58919061368a565b60015b612ede573d8060008114612e8b576040519150601f19603f3d011682016040523d82523d6000602084013e612e90565b606091505b50600081511415612ed6576040517f08c379a0000000000000000000000000000000000000000000000000000000008152600401612ecd90614287565b60405180910390fd5b805181602001fd5b63150b7a0260e01b7bffffffffffffffffffffffffffffffffffffffffffffffffffffffff1916817bffffffffffffffffffffffffffffffffffffffffffffffffffffffff191614915050612f33565b600190505b949350505050565b505050565b6008805490506009600083815260200190815260200160002081905550600881908060018154018082558091505060019003906000526020600020016000909190919091505550565b60006001612f968461150d565b612fa0919061474f565b9050600060076000848152602001908152602001600020549050818114613085576000600660008673ffffffffffffffffffffffffffffffffffffffff1673ffffffffffffffffffffffffffffffffffffffff168152602001908152602001600020600084815260200190815260200160002054905080600660008773ffffffffffffffffffffffffffffffffffffffff1673ffffffffffffffffffffffffffffffffffffffff168152602001908152602001600020600084815260200190815260200160002081905550816007600083815260200190815260200160002081905550505b6007600084815260200190815260200160002060009055600660008573ffffffffffffffffffffffffffffffffffffffff1673ffffffffffffffffffffffffffffffffffffffff16815260200190815260200160002060008381526020019081526020016000206000905550505050565b6000600160088054905061310a919061474f565b9050600060096000848152602001908152602001600020549050600060088381548110613160577f4e487b7100000000000000000000000000000000000000000000000000000000600052603260045260246000fd5b9060005260206000200154905080600883815481106131a8577f4e487b7100000000000000000000000000000000000000000000000000000000600052603260045260246000fd5b90600052602060002001819055508160096000838152602001908152602001600020819055506009600085815260200190815260200160002060009055600880548061321d577f4e487b7100000000000000000000000000000000000000000000000000000000600052603160045260246000fd5b6001900381819060005260206000200160009055905550505050565b60006132448361150d565b905081600660008573ffffffffffffffffffffffffffffffffffffffff1673ffffffffffffffffffffffffffffffffffffffff168152602001908152602001600020600083815260200190815260200160002081905550806007600084815260200190815260200160002081905550505050565b600080823b905060008111915050919050565b8280546132d79061484b565b90600052602060002090601f0160209004810192826132f95760008555613340565b82601f1061331257805160ff1916838001178555613340565b82800160010185558215613340579182015b8281111561333f578251825591602001919060010190613324565b5b50905061334d9190613364565b5090565b6040518060200160405280600081525090565b5b8082111561337d576000816000905550600101613365565b5090565b600061339461338f84614625565b6145f4565b9050828152602081018484840111156133ac57600080fd5b6133b7848285614809565b509392505050565b60006133d26133cd84614655565b6145f4565b9050828152602081018484840111156133ea57600080fd5b6133f5848285614809565b509392505050565b60008135905061340c816149ce565b92915050565b600081359050613421816149e5565b92915050565b600081359050613436816149fc565b92915050565b60008151905061344b816149fc565b92915050565b600082601f83011261346257600080fd5b8135613472848260208601613381565b91505092915050565b600082601f83011261348c57600080fd5b813561349c8482602086016133bf565b91505092915050565b6000813590506134b481614a13565b92915050565b6000602082840312156134cc57600080fd5b60006134da848285016133fd565b91505092915050565b600080604083850312156134f657600080fd5b6000613504858286016133fd565b9250506020613515858286016133fd565b9150509250929050565b60008060006060848603121561353457600080fd5b6000613542868287016133fd565b9350506020613553868287016133fd565b9250506040613564868287016134a5565b9150509250925092565b6000806000806080858703121561358457600080fd5b6000613592878288016133fd565b94505060206135a3878288016133fd565b93505060406135b4878288016134a5565b925050606085013567ffffffffffffffff8111156135d157600080fd5b6135dd87828801613451565b91505092959194509250565b600080604083850312156135fc57600080fd5b600061360a858286016133fd565b925050602061361b85828601613412565b9150509250929050565b6000806040838503121561363857600080fd5b6000613646858286016133fd565b9250506020613657858286016134a5565b9150509250929050565b60006020828403121561367357600080fd5b600061368184828501613427565b91505092915050565b60006020828403121561369c57600080fd5b60006136aa8482850161343c565b91505092915050565b6000602082840312156136c557600080fd5b600082013567ffffffffffffffff8111156136df57600080fd5b6136eb8482850161347b565b91505092915050565b6000806040838503121561370757600080fd5b600083013567ffffffffffffffff81111561372157600080fd5b61372d8582860161347b565b925050602061373e858286016134a5565b9150509250929050565b60006020828403121561375a57600080fd5b6000613768848285016134a5565b91505092915050565b61377a81614795565b82525050565b61378981614783565b82525050565b613798816147a7565b82525050565b60006137a982614685565b6137b3818561469b565b93506137c3818560208601614818565b6137cc816149bd565b840191505092915050565b60006137e282614690565b6137ec81856146ac565b93506137fc818560208601614818565b613805816149bd565b840191505092915050565b600061381b82614690565b61382581856146bd565b9350613835818560208601614818565b80840191505092915050565b600061384e602b836146ac565b91507f455243373231456e756d657261626c653a206f776e657220696e646578206f7560008301527f74206f6620626f756e64730000000000000000000000000000000000000000006020830152604082019050919050565b60006138b46032836146ac565b91507f4552433732313a207472616e7366657220746f206e6f6e20455243373231526560008301527f63656976657220696d706c656d656e74657200000000000000000000000000006020830152604082019050919050565b600061391a6026836146ac565b91507f4f776e61626c653a206e6577206f776e657220697320746865207a65726f206160008301527f64647265737300000000000000000000000000000000000000000000000000006020830152604082019050919050565b6000613980601c836146ac565b91507f4552433732313a20746f6b656e20616c7265616479206d696e746564000000006000830152602082019050919050565b60006139c06024836146ac565b91507f4552433732313a207472616e7366657220746f20746865207a65726f2061646460008301527f72657373000000000000000000000000000000000000000000000000000000006020830152604082019050919050565b6000613a266019836146ac565b91507f4552433732313a20617070726f766520746f2063616c6c6572000000000000006000830152602082019050919050565b6000613a666017836146ac565b91507f476f6c64204e465420616c7265616479206d696e7465640000000000000000006000830152602082019050919050565b6000613aa6602c836146ac565b91507f4552433732313a206f70657261746f7220717565727920666f72206e6f6e657860008301527f697374656e7420746f6b656e00000000000000000000000000000000000000006020830152604082019050919050565b6000613b0c6015836146ac565b91507f4572726f722c2077726f6e6720546f6b656e20696400000000000000000000006000830152602082019050919050565b6000613b4c6017836146ac565b91507f4572726f722c20546f6b656e20636f737473206d6f72650000000000000000006000830152602082019050919050565b6000613b8c6010836146ac565b91507f53616c65206e6f742073746172746564000000000000000000000000000000006000830152602082019050919050565b6000613bcc6038836146ac565b91507f4552433732313a20617070726f76652063616c6c6572206973206e6f74206f7760008301527f6e6572206e6f7220617070726f76656420666f7220616c6c00000000000000006020830152604082019050919050565b6000613c32602a836146ac565b91507f4552433732313a2062616c616e636520717565727920666f7220746865207a6560008301527f726f2061646472657373000000000000000000000000000000000000000000006020830152604082019050919050565b6000613c986029836146ac565b91507f4552433732313a206f776e657220717565727920666f72206e6f6e657869737460008301527f656e7420746f6b656e00000000000000000000000000000000000000000000006020830152604082019050919050565b6000613cfe6020836146ac565b91507f4552433732313a206d696e7420746f20746865207a65726f20616464726573736000830152602082019050919050565b6000613d3e602c836146ac565b91507f4552433732313a20617070726f76656420717565727920666f72206e6f6e657860008301527f697374656e7420746f6b656e00000000000000000000000000000000000000006020830152604082019050919050565b6000613da4602c836146ac565b91507f4552433732314d657461646174613a2055524920736574206f66206e6f6e657860008301527f697374656e7420746f6b656e00000000000000000000000000000000000000006020830152604082019050919050565b6000613e0a6017836146ac565b91507f416c6c204e465473206d757374206265206d696e7465640000000000000000006000830152602082019050919050565b6000613e4a6020836146ac565b91507f4f776e61626c653a2063616c6c6572206973206e6f7420746865206f776e65726000830152602082019050919050565b6000613e8a6029836146ac565b91507f4552433732313a207472616e73666572206f6620746f6b656e2074686174206960008301527f73206e6f74206f776e00000000000000000000000000000000000000000000006020830152604082019050919050565b6000613ef0602f836146ac565b91507f4552433732314d657461646174613a2055524920717565727920666f72206e6f60008301527f6e6578697374656e7420746f6b656e00000000000000000000000000000000006020830152604082019050919050565b6000613f566021836146ac565b91507f4552433732313a20617070726f76616c20746f2063757272656e74206f776e6560008301527f72000000000000000000000000000000000000000000000000000000000000006020830152604082019050919050565b6000613fbc6014836146ac565b91507f4572726f722c20546f6b656e20697320736f6c640000000000000000000000006000830152602082019050919050565b6000613ffc6031836146ac565b91507f4552433732313a207472616e736665722063616c6c6572206973206e6f74206f60008301527f776e6572206e6f7220617070726f7665640000000000000000000000000000006020830152604082019050919050565b6000614062602c836146ac565b91507f455243373231456e756d657261626c653a20676c6f62616c20696e646578206f60008301527f7574206f6620626f756e647300000000000000000000000000000000000000006020830152604082019050919050565b6020820160008201516140d160008501826140d7565b50505050565b6140e0816147ff565b82525050565b6140ef816147ff565b82525050565b614106614101826147ff565b6148c6565b82525050565b60006141188285613810565b91506141248284613810565b91508190509392505050565b600061413c82856140f5565b60208201915061414c82846140f5565b6020820191508190509392505050565b60006020820190506141716000830184613780565b92915050565b600060208201905061418c6000830184613771565b92915050565b60006080820190506141a76000830187613780565b6141b46020830186613780565b6141c160408301856140e6565b81810360608301526141d3818461379e565b905095945050505050565b60006080820190506141f36000830187613780565b61420060208301866140e6565b61420d60408301856140e6565b818103606083015261421f81846137d7565b905095945050505050565b600060208201905061423f600083018461378f565b92915050565b6000602082019050818103600083015261425f81846137d7565b905092915050565b6000602082019050818103600083015261428081613841565b9050919050565b600060208201905081810360008301526142a0816138a7565b9050919050565b600060208201905081810360008301526142c08161390d565b9050919050565b600060208201905081810360008301526142e081613973565b9050919050565b60006020820190508181036000830152614300816139b3565b9050919050565b6000602082019050818103600083015261432081613a19565b9050919050565b6000602082019050818103600083015261434081613a59565b9050919050565b6000602082019050818103600083015261436081613a99565b9050919050565b6000602082019050818103600083015261438081613aff565b9050919050565b600060208201905081810360008301526143a081613b3f565b9050919050565b600060208201905081810360008301526143c081613b7f565b9050919050565b600060208201905081810360008301526143e081613bbf565b9050919050565b6000602082019050818103600083015261440081613c25565b9050919050565b6000602082019050818103600083015261442081613c8b565b9050919050565b6000602082019050818103600083015261444081613cf1565b9050919050565b6000602082019050818103600083015261446081613d31565b9050919050565b6000602082019050818103600083015261448081613d97565b9050919050565b600060208201905081810360008301526144a081613dfd565b9050919050565b600060208201905081810360008301526144c081613e3d565b9050919050565b600060208201905081810360008301526144e081613e7d565b9050919050565b6000602082019050818103600083015261450081613ee3565b9050919050565b6000602082019050818103600083015261452081613f49565b9050919050565b6000602082019050818103600083015261454081613faf565b9050919050565b6000602082019050818103600083015261456081613fef565b9050919050565b6000602082019050818103600083015261458081614055565b9050919050565b600060208201905061459c60008301846140bb565b92915050565b60006020820190506145b760008301846140e6565b92915050565b60006060820190506145d260008301866140e6565b6145df6020830185613780565b6145ec60408301846140e6565b949350505050565b6000604051905081810181811067ffffffffffffffff8211171561461b5761461a61498e565b5b8060405250919050565b600067ffffffffffffffff8211156146405761463f61498e565b5b601f19601f8301169050602081019050919050565b600067ffffffffffffffff8211156146705761466f61498e565b5b601f19601f8301169050602081019050919050565b600081519050919050565b600081519050919050565b600082825260208201905092915050565b600082825260208201905092915050565b600081905092915050565b60006146d3826147ff565b91506146de836147ff565b9250827fffffffffffffffffffffffffffffffffffffffffffffffffffffffffffffffff0382111561471357614712614901565b5b828201905092915050565b6000614729826147ff565b9150614734836147ff565b92508261474457614743614930565b5b828204905092915050565b600061475a826147ff565b9150614765836147ff565b92508282101561477857614777614901565b5b828203905092915050565b600061478e826147df565b9050919050565b60006147a0826147df565b9050919050565b60008115159050919050565b60007fffffffff0000000000000000000000000000000000000000000000000000000082169050919050565b600073ffffffffffffffffffffffffffffffffffffffff82169050919050565b6000819050919050565b82818337600083830152505050565b60005b8381101561483657808201518184015260208101905061481b565b83811115614845576000848401525b50505050565b6000600282049050600182168061486357607f821691505b602082108114156148775761487661495f565b5b50919050565b6000614888826147ff565b91507fffffffffffffffffffffffffffffffffffffffffffffffffffffffffffffffff8214156148bb576148ba614901565b5b600182019050919050565b6000819050919050565b60006148db826147ff565b91506148e6836147ff565b9250826148f6576148f5614930565b5b828206905092915050565b7f4e487b7100000000000000000000000000000000000000000000000000000000600052601160045260246000fd5b7f4e487b7100000000000000000000000000000000000000000000000000000000600052601260045260246000fd5b7f4e487b7100000000000000000000000000000000000000000000000000000000600052602260045260246000fd5b7f4e487b7100000000000000000000000000000000000000000000000000000000600052604160045260246000fd5b6000601f19601f8301169050919050565b6149d781614783565b81146149e257600080fd5b50565b6149ee816147a7565b81146149f957600080fd5b50565b614a05816147b3565b8114614a1057600080fd5b50565b614a1c816147ff565b8114614a2757600080fd5b5056fea264697066735822122087c134609445e57e72cb45029c2875e61d6e2feb5e3ce0f05ce67cae527bd62c64736f6c63430008000033",
  "linkReferences": {},
  "deployedLinkReferences": {}
}