{
  "_format": "hh-sol-artifact-1",
  "contractName": "NFT",
  "sourceName": "contracts/NFT.sol",
  "abi": [
    {
      "inputs": [],
      "stateMutability": "nonpayable",
      "type": "constructor"
    },
    {
      "anonymous": false,
      "inputs": [
        {
          "indexed": true,
          "internalType": "address",
          "name": "owner",
          "type": "address"
        },
        {
          "indexed": true,
          "internalType": "address",
          "name": "approved",
          "type": "address"
        },
        {
          "indexed": true,
          "internalType": "uint256",
          "name": "tokenId",
          "type": "uint256"
        }
      ],
      "name": "Approval",
      "type": "event"
    },
    {
      "anonymous": false,
      "inputs": [
        {
          "indexed": true,
          "internalType": "address",
          "name": "owner",
          "type": "address"
        },
        {
          "indexed": true,
          "internalType": "address",
          "name": "operator",
          "type": "address"
        },
        {
          "indexed": false,
          "internalType": "bool",
          "name": "approved",
          "type": "bool"
        }
      ],
      "name": "ApprovalForAll",
      "type": "event"
    },
    {
      "anonymous": false,
      "inputs": [
        {
          "indexed": true,
          "internalType": "address",
          "name": "previousOwner",
          "type": "address"
        },
        {
          "indexed": true,
          "internalType": "address",
          "name": "newOwner",
          "type": "address"
        }
      ],
      "name": "OwnershipTransferred",
      "type": "event"
    },
    {
      "anonymous": false,
      "inputs": [
        {
          "indexed": false,
          "internalType": "address",
          "name": "owner",
          "type": "address"
        },
        {
          "indexed": false,
          "internalType": "uint256",
          "name": "price",
          "type": "uint256"
        },
        {
          "indexed": false,
          "internalType": "uint256",
          "name": "id",
          "type": "uint256"
        },
        {
          "indexed": false,
          "internalType": "string",
          "name": "uri",
          "type": "string"
        }
      ],
      "name": "Purchase",
      "type": "event"
    },
    {
      "anonymous": false,
      "inputs": [
        {
          "indexed": true,
          "internalType": "address",
          "name": "from",
          "type": "address"
        },
        {
          "indexed": true,
          "internalType": "address",
          "name": "to",
          "type": "address"
        },
        {
          "indexed": true,
          "internalType": "uint256",
          "name": "tokenId",
          "type": "uint256"
        }
      ],
      "name": "Transfer",
      "type": "event"
    },
    {
      "inputs": [],
      "name": "_owner",
      "outputs": [
        {
          "internalType": "address payable",
          "name": "",
          "type": "address"
        }
      ],
      "stateMutability": "view",
      "type": "function"
    },
    {
      "inputs": [
        {
          "internalType": "address",
          "name": "to",
          "type": "address"
        },
        {
          "internalType": "uint256",
          "name": "tokenId",
          "type": "uint256"
        }
      ],
      "name": "approve",
      "outputs": [],
      "stateMutability": "nonpayable",
      "type": "function"
    },
    {
      "inputs": [
        {
          "internalType": "address",
          "name": "owner",
          "type": "address"
        }
      ],
      "name": "balanceOf",
      "outputs": [
        {
          "internalType": "uint256",
          "name": "",
          "type": "uint256"
        }
      ],
      "stateMutability": "view",
      "type": "function"
    },
    {
      "inputs": [
        {
          "internalType": "uint256",
          "name": "_id",
          "type": "uint256"
        }
      ],
      "name": "buy",
      "outputs": [],
      "stateMutability": "payable",
      "type": "function"
    },
    {
      "inputs": [
        {
          "internalType": "uint256",
          "name": "tokenId",
          "type": "uint256"
        }
      ],
      "name": "getApproved",
      "outputs": [
        {
          "internalType": "address",
          "name": "",
          "type": "address"
        }
      ],
      "stateMutability": "view",
      "type": "function"
    },
    {
      "inputs": [
        {
          "internalType": "address",
          "name": "owner",
          "type": "address"
        },
        {
          "internalType": "address",
          "name": "operator",
          "type": "address"
        }
      ],
      "name": "isApprovedForAll",
      "outputs": [
        {
          "internalType": "bool",
          "name": "",
          "type": "bool"
        }
      ],
      "stateMutability": "view",
      "type": "function"
    },
    {
      "inputs": [
        {
          "internalType": "string",
          "name": "_tokenURI",
          "type": "string"
        },
        {
          "internalType": "uint256",
          "name": "_price",
          "type": "uint256"
        }
      ],
      "name": "mint",
      "outputs": [
        {
          "internalType": "bool",
          "name": "",
          "type": "bool"
        }
      ],
      "stateMutability": "nonpayable",
      "type": "function"
    },
    {
      "inputs": [],
      "name": "name",
      "outputs": [
        {
          "internalType": "string",
          "name": "",
          "type": "string"
        }
      ],
      "stateMutability": "view",
      "type": "function"
    },
    {
      "inputs": [],
      "name": "owner",
      "outputs": [
        {
          "internalType": "address",
          "name": "",
          "type": "address"
        }
      ],
      "stateMutability": "view",
      "type": "function"
    },
    {
      "inputs": [
        {
          "internalType": "uint256",
          "name": "tokenId",
          "type": "uint256"
        }
      ],
      "name": "ownerOf",
      "outputs": [
        {
          "internalType": "address",
          "name": "",
          "type": "address"
        }
      ],
      "stateMutability": "view",
      "type": "function"
    },
    {
      "inputs": [
        {
          "internalType": "uint256",
          "name": "",
          "type": "uint256"
        }
      ],
      "name": "price",
      "outputs": [
        {
          "internalType": "uint256",
          "name": "",
          "type": "uint256"
        }
      ],
      "stateMutability": "view",
      "type": "function"
    },
    {
      "inputs": [],
      "name": "renounceOwnership",
      "outputs": [],
      "stateMutability": "nonpayable",
      "type": "function"
    },
    {
      "inputs": [
        {
          "internalType": "address",
          "name": "from",
          "type": "address"
        },
        {
          "internalType": "address",
          "name": "to",
          "type": "address"
        },
        {
          "internalType": "uint256",
          "name": "tokenId",
          "type": "uint256"
        }
      ],
      "name": "safeTransferFrom",
      "outputs": [],
      "stateMutability": "nonpayable",
      "type": "function"
    },
    {
      "inputs": [
        {
          "internalType": "address",
          "name": "from",
          "type": "address"
        },
        {
          "internalType": "address",
          "name": "to",
          "type": "address"
        },
        {
          "internalType": "uint256",
          "name": "tokenId",
          "type": "uint256"
        },
        {
          "internalType": "bytes",
          "name": "_data",
          "type": "bytes"
        }
      ],
      "name": "safeTransferFrom",
      "outputs": [],
      "stateMutability": "nonpayable",
      "type": "function"
    },
    {
      "inputs": [
        {
          "internalType": "address",
          "name": "operator",
          "type": "address"
        },
        {
          "internalType": "bool",
          "name": "approved",
          "type": "bool"
        }
      ],
      "name": "setApprovalForAll",
      "outputs": [],
      "stateMutability": "nonpayable",
      "type": "function"
    },
    {
      "inputs": [
        {
          "internalType": "string",
          "name": "_baseURI",
          "type": "string"
        }
      ],
      "name": "setBaseURI",
      "outputs": [],
      "stateMutability": "nonpayable",
      "type": "function"
    },
    {
      "inputs": [
        {
          "internalType": "uint256",
          "name": "",
          "type": "uint256"
        }
      ],
      "name": "sold",
      "outputs": [
        {
          "internalType": "bool",
          "name": "",
          "type": "bool"
        }
      ],
      "stateMutability": "view",
      "type": "function"
    },
    {
      "inputs": [
        {
          "internalType": "bytes4",
          "name": "interfaceId",
          "type": "bytes4"
        }
      ],
      "name": "supportsInterface",
      "outputs": [
        {
          "internalType": "bool",
          "name": "",
          "type": "bool"
        }
      ],
      "stateMutability": "view",
      "type": "function"
    },
    {
      "inputs": [],
      "name": "symbol",
      "outputs": [
        {
          "internalType": "string",
          "name": "",
          "type": "string"
        }
      ],
      "stateMutability": "view",
      "type": "function"
    },
    {
      "inputs": [
        {
          "internalType": "uint256",
          "name": "tokenId",
          "type": "uint256"
        }
      ],
      "name": "tokenURI",
      "outputs": [
        {
          "internalType": "string",
          "name": "",
          "type": "string"
        }
      ],
      "stateMutability": "view",
      "type": "function"
    },
    {
      "inputs": [
        {
          "internalType": "address",
          "name": "from",
          "type": "address"
        },
        {
          "internalType": "address",
          "name": "to",
          "type": "address"
        },
        {
          "internalType": "uint256",
          "name": "tokenId",
          "type": "uint256"
        }
      ],
      "name": "transferFrom",
      "outputs": [],
      "stateMutability": "nonpayable",
      "type": "function"
    },
    {
      "inputs": [
        {
          "internalType": "address",
          "name": "newOwner",
          "type": "address"
        }
      ],
      "name": "transferOwnership",
      "outputs": [],
      "stateMutability": "nonpayable",
      "type": "function"
    }
  ],
  "bytecode": "0x60806040526000600c553480156200001657600080fd5b506040518060400160405280600481526020017f47454e5a000000000000000000000000000000000000000000000000000000008152506040518060400160405280600381526020017f474e5a000000000000000000000000000000000000000000000000000000000081525081600090805190602001906200009b929190620001ec565b508060019080519060200190620000b4929190620001ec565b505050620000d7620000cb6200011e60201b60201c565b6200012660201b60201c565b33600760006101000a81548173ffffffffffffffffffffffffffffffffffffffff021916908373ffffffffffffffffffffffffffffffffffffffff16021790555062000301565b600033905090565b6000600660009054906101000a900473ffffffffffffffffffffffffffffffffffffffff16905081600660006101000a81548173ffffffffffffffffffffffffffffffffffffffff021916908373ffffffffffffffffffffffffffffffffffffffff1602179055508173ffffffffffffffffffffffffffffffffffffffff168173ffffffffffffffffffffffffffffffffffffffff167f8be0079c531659141344cd1fd0a4f28419497f9722a3daafe3b4186f6b6457e060405160405180910390a35050565b828054620001fa906200029c565b90600052602060002090601f0160209004810192826200021e57600085556200026a565b82601f106200023957805160ff19168380011785556200026a565b828001600101855582156200026a579182015b82811115620002695782518255916020019190600101906200024c565b5b5090506200027991906200027d565b5090565b5b80821115620002985760008160009055506001016200027e565b5090565b60006002820490506001821680620002b557607f821691505b60208210811415620002cc57620002cb620002d2565b5b50919050565b7f4e487b7100000000000000000000000000000000000000000000000000000000600052602260045260246000fd5b6134ee80620003116000396000f3fe6080604052600436106101355760003560e01c8063715018a6116100ab578063b2bdfa7b1161006f578063b2bdfa7b1461044a578063b88d4fde14610475578063c87b56dd1461049e578063d96a094a146104db578063e985e9c5146104f7578063f2fde38b1461053457610135565b8063715018a6146103775780638da5cb5b1461038e57806395d89b41146103b95780639c03facb146103e4578063a22cb4651461042157610135565b806323b872dd116100fd57806323b872dd1461024557806326a49e371461026e57806342842e0e146102ab57806355f804b3146102d45780636352211e146102fd57806370a082311461033a57610135565b806301ffc9a71461013a578063056b01ce1461017757806306fdde03146101b4578063081812fc146101df578063095ea7b31461021c575b600080fd5b34801561014657600080fd5b50610161600480360381019061015c91906123e5565b61055d565b60405161016e9190612db4565b60405180910390f35b34801561018357600080fd5b5061019e60048036038101906101999190612478565b61063f565b6040516101ab9190612db4565b60405180910390f35b3480156101c057600080fd5b506101c96106fa565b6040516101d69190612dcf565b60405180910390f35b3480156101eb57600080fd5b50610206600480360381019061020191906124cc565b61078c565b6040516102139190612ce6565b60405180910390f35b34801561022857600080fd5b50610243600480360381019061023e91906123a9565b610811565b005b34801561025157600080fd5b5061026c600480360381019061026791906122a3565b610929565b005b34801561027a57600080fd5b50610295600480360381019061029091906124cc565b610989565b6040516102a29190613071565b60405180910390f35b3480156102b757600080fd5b506102d260048036038101906102cd91906122a3565b6109a1565b005b3480156102e057600080fd5b506102fb60048036038101906102f69190612437565b6109c1565b005b34801561030957600080fd5b50610324600480360381019061031f91906124cc565b610a57565b6040516103319190612ce6565b60405180910390f35b34801561034657600080fd5b50610361600480360381019061035c919061223e565b610b09565b60405161036e9190613071565b60405180910390f35b34801561038357600080fd5b5061038c610bc1565b005b34801561039a57600080fd5b506103a3610c49565b6040516103b09190612ce6565b60405180910390f35b3480156103c557600080fd5b506103ce610c73565b6040516103db9190612dcf565b60405180910390f35b3480156103f057600080fd5b5061040b600480360381019061040691906124cc565b610d05565b6040516104189190612db4565b60405180910390f35b34801561042d57600080fd5b506104486004803603810190610443919061236d565b610d25565b005b34801561045657600080fd5b5061045f610ea6565b60405161046c9190612d01565b60405180910390f35b34801561048157600080fd5b5061049c600480360381019061049791906122f2565b610ecc565b005b3480156104aa57600080fd5b506104c560048036038101906104c091906124cc565b610f2e565b6040516104d29190612dcf565b60405180910390f35b6104f560048036038101906104f091906124cc565b6110a1565b005b34801561050357600080fd5b5061051e60048036038101906105199190612267565b61110e565b60405161052b9190612db4565b60405180910390f35b34801561054057600080fd5b5061055b6004803603810190610556919061223e565b6111a2565b005b60007f80ac58cd000000000000000000000000000000000000000000000000000000007bffffffffffffffffffffffffffffffffffffffffffffffffffffffff1916827bffffffffffffffffffffffffffffffffffffffffffffffffffffffff1916148061062857507f5b5e139f000000000000000000000000000000000000000000000000000000007bffffffffffffffffffffffffffffffffffffffffffffffffffffffff1916827bffffffffffffffffffffffffffffffffffffffffffffffffffffffff1916145b8061063857506106378261129a565b5b9050919050565b6000610649611304565b73ffffffffffffffffffffffffffffffffffffffff16610667610c49565b73ffffffffffffffffffffffffffffffffffffffff16146106bd576040517f08c379a00000000000000000000000000000000000000000000000000000000081526004016106b490612fb1565b60405180910390fd5b6000600190508260096000838152602001908152602001600020819055506106e5308261130c565b6106ef81856114da565b600191505092915050565b606060008054610709906132e3565b80601f0160208091040260200160405190810160405280929190818152602001828054610735906132e3565b80156107825780601f1061075757610100808354040283529160200191610782565b820191906000526020600020905b81548152906001019060200180831161076557829003601f168201915b5050505050905090565b60006107978261154e565b6107d6576040517f08c379a00000000000000000000000000000000000000000000000000000000081526004016107cd90612f71565b60405180910390fd5b6004600083815260200190815260200160002060009054906101000a900473ffffffffffffffffffffffffffffffffffffffff169050919050565b600061081c82610a57565b90508073ffffffffffffffffffffffffffffffffffffffff168373ffffffffffffffffffffffffffffffffffffffff16141561088d576040517f08c379a000000000000000000000000000000000000000000000000000000000815260040161088490613011565b60405180910390fd5b8073ffffffffffffffffffffffffffffffffffffffff166108ac611304565b73ffffffffffffffffffffffffffffffffffffffff1614806108db57506108da816108d5611304565b61110e565b5b61091a576040517f08c379a000000000000000000000000000000000000000000000000000000000815260040161091190612ef1565b60405180910390fd5b61092483836115ba565b505050565b61093a610934611304565b82611673565b610979576040517f08c379a000000000000000000000000000000000000000000000000000000000815260040161097090613051565b60405180910390fd5b610984838383611751565b505050565b60096020528060005260406000206000915090505481565b6109bc83838360405180602001604052806000815250610ecc565b505050565b6109c9611304565b73ffffffffffffffffffffffffffffffffffffffff166109e7610c49565b73ffffffffffffffffffffffffffffffffffffffff1614610a3d576040517f08c379a0000000000000000000000000000000000000000000000000000000008152600401610a3490612fb1565b60405180910390fd5b80600b9080519060200190610a53929190612062565b5050565b6000806002600084815260200190815260200160002060009054906101000a900473ffffffffffffffffffffffffffffffffffffffff169050600073ffffffffffffffffffffffffffffffffffffffff168173ffffffffffffffffffffffffffffffffffffffff161415610b00576040517f08c379a0000000000000000000000000000000000000000000000000000000008152600401610af790612f31565b60405180910390fd5b80915050919050565b60008073ffffffffffffffffffffffffffffffffffffffff168273ffffffffffffffffffffffffffffffffffffffff161415610b7a576040517f08c379a0000000000000000000000000000000000000000000000000000000008152600401610b7190612f11565b60405180910390fd5b600360008373ffffffffffffffffffffffffffffffffffffffff1673ffffffffffffffffffffffffffffffffffffffff168152602001908152602001600020549050919050565b610bc9611304565b73ffffffffffffffffffffffffffffffffffffffff16610be7610c49565b73ffffffffffffffffffffffffffffffffffffffff1614610c3d576040517f08c379a0000000000000000000000000000000000000000000000000000000008152600401610c3490612fb1565b60405180910390fd5b610c4760006119ad565b565b6000600660009054906101000a900473ffffffffffffffffffffffffffffffffffffffff16905090565b606060018054610c82906132e3565b80601f0160208091040260200160405190810160405280929190818152602001828054610cae906132e3565b8015610cfb5780601f10610cd057610100808354040283529160200191610cfb565b820191906000526020600020905b815481529060010190602001808311610cde57829003601f168201915b5050505050905090565b60086020528060005260406000206000915054906101000a900460ff1681565b610d2d611304565b73ffffffffffffffffffffffffffffffffffffffff168273ffffffffffffffffffffffffffffffffffffffff161415610d9b576040517f08c379a0000000000000000000000000000000000000000000000000000000008152600401610d9290612e71565b60405180910390fd5b8060056000610da8611304565b73ffffffffffffffffffffffffffffffffffffffff1673ffffffffffffffffffffffffffffffffffffffff16815260200190815260200160002060008473ffffffffffffffffffffffffffffffffffffffff1673ffffffffffffffffffffffffffffffffffffffff16815260200190815260200160002060006101000a81548160ff0219169083151502179055508173ffffffffffffffffffffffffffffffffffffffff16610e55611304565b73ffffffffffffffffffffffffffffffffffffffff167f17307eab39ab6107e8899845ad3d59bd9653f200f220920489ca2b5937696c3183604051610e9a9190612db4565b60405180910390a35050565b600760009054906101000a900473ffffffffffffffffffffffffffffffffffffffff1681565b610edd610ed7611304565b83611673565b610f1c576040517f08c379a0000000000000000000000000000000000000000000000000000000008152600401610f1390613051565b60405180910390fd5b610f2884848484611a73565b50505050565b6060610f398261154e565b610f78576040517f08c379a0000000000000000000000000000000000000000000000000000000008152600401610f6f90612ff1565b60405180910390fd5b6000600a60008481526020019081526020016000208054610f98906132e3565b80601f0160208091040260200160405190810160405280929190818152602001828054610fc4906132e3565b80156110115780601f10610fe657610100808354040283529160200191611011565b820191906000526020600020905b815481529060010190602001808311610ff457829003601f168201915b505050505090506000611022611acf565b905060008151141561103857819250505061109c565b60008251111561106d578082604051602001611055929190612cc2565b6040516020818303038152906040529250505061109c565b8061107785611b61565b604051602001611088929190612cc2565b604051602081830303815290604052925050505b919050565b6110aa81611d0e565b6110b381611e10565b7f6d5507734d4d9e8592119c9e6b3e2bf7eab8bd6252f36e2fa05a5588442479da336009600084815260200190815260200160002054836110f385610f2e565b6040516111039493929190612d68565b60405180910390a150565b6000600560008473ffffffffffffffffffffffffffffffffffffffff1673ffffffffffffffffffffffffffffffffffffffff16815260200190815260200160002060008373ffffffffffffffffffffffffffffffffffffffff1673ffffffffffffffffffffffffffffffffffffffff16815260200190815260200160002060009054906101000a900460ff16905092915050565b6111aa611304565b73ffffffffffffffffffffffffffffffffffffffff166111c8610c49565b73ffffffffffffffffffffffffffffffffffffffff161461121e576040517f08c379a000000000000000000000000000000000000000000000000000000000815260040161121590612fb1565b60405180910390fd5b600073ffffffffffffffffffffffffffffffffffffffff168173ffffffffffffffffffffffffffffffffffffffff16141561128e576040517f08c379a000000000000000000000000000000000000000000000000000000000815260040161128590612e11565b60405180910390fd5b611297816119ad565b50565b60007f01ffc9a7000000000000000000000000000000000000000000000000000000007bffffffffffffffffffffffffffffffffffffffffffffffffffffffff1916827bffffffffffffffffffffffffffffffffffffffffffffffffffffffff1916149050919050565b600033905090565b600073ffffffffffffffffffffffffffffffffffffffff168273ffffffffffffffffffffffffffffffffffffffff16141561137c576040517f08c379a000000000000000000000000000000000000000000000000000000000815260040161137390612f51565b60405180910390fd5b6113858161154e565b156113c5576040517f08c379a00000000000000000000000000000000000000000000000000000000081526004016113bc90612e31565b60405180910390fd5b6113d160008383611eb3565b6001600360008473ffffffffffffffffffffffffffffffffffffffff1673ffffffffffffffffffffffffffffffffffffffff16815260200190815260200160002060008282546114219190613160565b92505081905550816002600083815260200190815260200160002060006101000a81548173ffffffffffffffffffffffffffffffffffffffff021916908373ffffffffffffffffffffffffffffffffffffffff160217905550808273ffffffffffffffffffffffffffffffffffffffff16600073ffffffffffffffffffffffffffffffffffffffff167fddf252ad1be2c89b69c2b068fc378daa952ba7f163c4a11628f55a4df523b3ef60405160405180910390a45050565b6114e38261154e565b611522576040517f08c379a000000000000000000000000000000000000000000000000000000000815260040161151990612f91565b60405180910390fd5b80600a60008481526020019081526020016000209080519060200190611549929190612062565b505050565b60008073ffffffffffffffffffffffffffffffffffffffff166002600084815260200190815260200160002060009054906101000a900473ffffffffffffffffffffffffffffffffffffffff1673ffffffffffffffffffffffffffffffffffffffff1614159050919050565b816004600083815260200190815260200160002060006101000a81548173ffffffffffffffffffffffffffffffffffffffff021916908373ffffffffffffffffffffffffffffffffffffffff160217905550808273ffffffffffffffffffffffffffffffffffffffff1661162d83610a57565b73ffffffffffffffffffffffffffffffffffffffff167f8c5be1e5ebec7d5bd14f71427d1e84f3dd0314c0f7b2291e5b200ac8c7c3b92560405160405180910390a45050565b600061167e8261154e565b6116bd576040517f08c379a00000000000000000000000000000000000000000000000000000000081526004016116b490612e91565b60405180910390fd5b60006116c883610a57565b90508073ffffffffffffffffffffffffffffffffffffffff168473ffffffffffffffffffffffffffffffffffffffff16148061173757508373ffffffffffffffffffffffffffffffffffffffff1661171f8461078c565b73ffffffffffffffffffffffffffffffffffffffff16145b806117485750611747818561110e565b5b91505092915050565b8273ffffffffffffffffffffffffffffffffffffffff1661177182610a57565b73ffffffffffffffffffffffffffffffffffffffff16146117c7576040517f08c379a00000000000000000000000000000000000000000000000000000000081526004016117be90612fd1565b60405180910390fd5b600073ffffffffffffffffffffffffffffffffffffffff168273ffffffffffffffffffffffffffffffffffffffff161415611837576040517f08c379a000000000000000000000000000000000000000000000000000000000815260040161182e90612e51565b60405180910390fd5b611842838383611eb3565b61184d6000826115ba565b6001600360008573ffffffffffffffffffffffffffffffffffffffff1673ffffffffffffffffffffffffffffffffffffffff168152602001908152602001600020600082825461189d91906131e7565b925050819055506001600360008473ffffffffffffffffffffffffffffffffffffffff1673ffffffffffffffffffffffffffffffffffffffff16815260200190815260200160002060008282546118f49190613160565b92505081905550816002600083815260200190815260200160002060006101000a81548173ffffffffffffffffffffffffffffffffffffffff021916908373ffffffffffffffffffffffffffffffffffffffff160217905550808273ffffffffffffffffffffffffffffffffffffffff168473ffffffffffffffffffffffffffffffffffffffff167fddf252ad1be2c89b69c2b068fc378daa952ba7f163c4a11628f55a4df523b3ef60405160405180910390a4505050565b6000600660009054906101000a900473ffffffffffffffffffffffffffffffffffffffff16905081600660006101000a81548173ffffffffffffffffffffffffffffffffffffffff021916908373ffffffffffffffffffffffffffffffffffffffff1602179055508173ffffffffffffffffffffffffffffffffffffffff168173ffffffffffffffffffffffffffffffffffffffff167f8be0079c531659141344cd1fd0a4f28419497f9722a3daafe3b4186f6b6457e060405160405180910390a35050565b611a7e848484611751565b611a8a84848484611eb8565b611ac9576040517f08c379a0000000000000000000000000000000000000000000000000000000008152600401611ac090612df1565b60405180910390fd5b50505050565b6060600b8054611ade906132e3565b80601f0160208091040260200160405190810160405280929190818152602001828054611b0a906132e3565b8015611b575780601f10611b2c57610100808354040283529160200191611b57565b820191906000526020600020905b815481529060010190602001808311611b3a57829003601f168201915b5050505050905090565b60606000821415611ba9576040518060400160405280600181526020017f30000000000000000000000000000000000000000000000000000000000000008152509050611d09565b600082905060005b60008214611bdb578080611bc490613315565b915050600a82611bd491906131b6565b9150611bb1565b60008167ffffffffffffffff811115611c1d577f4e487b7100000000000000000000000000000000000000000000000000000000600052604160045260246000fd5b6040519080825280601f01601f191660200182016040528015611c4f5781602001600182028036833780820191505090505b5090505b60008514611d0257600182611c6891906131e7565b9150600a85611c77919061335e565b6030611c839190613160565b60f81b818381518110611cbf577f4e487b7100000000000000000000000000000000000000000000000000000000600052603260045260246000fd5b60200101907effffffffffffffffffffffffffffffffffffffffffffffffffffffffffffff1916908160001a905350600a85611cfb91906131b6565b9450611c53565b8093505050505b919050565b611d178161154e565b611d56576040517f08c379a0000000000000000000000000000000000000000000000000000000008152600401611d4d90612eb1565b60405180910390fd5b6008600082815260200190815260200160002060009054906101000a900460ff1615611db7576040517f08c379a0000000000000000000000000000000000000000000000000000000008152600401611dae90613031565b60405180910390fd5b6009600082815260200190815260200160002054341015611e0d576040517f08c379a0000000000000000000000000000000000000000000000000000000008152600401611e0490612ed1565b60405180910390fd5b50565b611e1b303383611751565b600760009054906101000a900473ffffffffffffffffffffffffffffffffffffffff1673ffffffffffffffffffffffffffffffffffffffff166108fc349081150290604051600060405180830381858888f19350505050158015611e83573d6000803e3d6000fd5b5060016008600083815260200190815260200160002060006101000a81548160ff02191690831515021790555050565b505050565b6000611ed98473ffffffffffffffffffffffffffffffffffffffff1661204f565b15612042578373ffffffffffffffffffffffffffffffffffffffff1663150b7a02611f02611304565b8786866040518563ffffffff1660e01b8152600401611f249493929190612d1c565b602060405180830381600087803b158015611f3e57600080fd5b505af1925050508015611f6f57506040513d601f19601f82011682018060405250810190611f6c919061240e565b60015b611ff2573d8060008114611f9f576040519150601f19603f3d011682016040523d82523d6000602084013e611fa4565b606091505b50600081511415611fea576040517f08c379a0000000000000000000000000000000000000000000000000000000008152600401611fe190612df1565b60405180910390fd5b805181602001fd5b63150b7a0260e01b7bffffffffffffffffffffffffffffffffffffffffffffffffffffffff1916817bffffffffffffffffffffffffffffffffffffffffffffffffffffffff191614915050612047565b600190505b949350505050565b600080823b905060008111915050919050565b82805461206e906132e3565b90600052602060002090601f01602090048101928261209057600085556120d7565b82601f106120a957805160ff19168380011785556120d7565b828001600101855582156120d7579182015b828111156120d65782518255916020019190600101906120bb565b5b5090506120e491906120e8565b5090565b5b808211156121015760008160009055506001016120e9565b5090565b6000612118612113846130bd565b61308c565b90508281526020810184848401111561213057600080fd5b61213b8482856132a1565b509392505050565b6000612156612151846130ed565b61308c565b90508281526020810184848401111561216e57600080fd5b6121798482856132a1565b509392505050565b6000813590506121908161345c565b92915050565b6000813590506121a581613473565b92915050565b6000813590506121ba8161348a565b92915050565b6000815190506121cf8161348a565b92915050565b600082601f8301126121e657600080fd5b81356121f6848260208601612105565b91505092915050565b600082601f83011261221057600080fd5b8135612220848260208601612143565b91505092915050565b600081359050612238816134a1565b92915050565b60006020828403121561225057600080fd5b600061225e84828501612181565b91505092915050565b6000806040838503121561227a57600080fd5b600061228885828601612181565b925050602061229985828601612181565b9150509250929050565b6000806000606084860312156122b857600080fd5b60006122c686828701612181565b93505060206122d786828701612181565b92505060406122e886828701612229565b9150509250925092565b6000806000806080858703121561230857600080fd5b600061231687828801612181565b945050602061232787828801612181565b935050604061233887828801612229565b925050606085013567ffffffffffffffff81111561235557600080fd5b612361878288016121d5565b91505092959194509250565b6000806040838503121561238057600080fd5b600061238e85828601612181565b925050602061239f85828601612196565b9150509250929050565b600080604083850312156123bc57600080fd5b60006123ca85828601612181565b92505060206123db85828601612229565b9150509250929050565b6000602082840312156123f757600080fd5b6000612405848285016121ab565b91505092915050565b60006020828403121561242057600080fd5b600061242e848285016121c0565b91505092915050565b60006020828403121561244957600080fd5b600082013567ffffffffffffffff81111561246357600080fd5b61246f848285016121ff565b91505092915050565b6000806040838503121561248b57600080fd5b600083013567ffffffffffffffff8111156124a557600080fd5b6124b1858286016121ff565b92505060206124c285828601612229565b9150509250929050565b6000602082840312156124de57600080fd5b60006124ec84828501612229565b91505092915050565b6124fe8161322d565b82525050565b61250d8161321b565b82525050565b61251c8161323f565b82525050565b600061252d8261311d565b6125378185613133565b93506125478185602086016132b0565b6125508161344b565b840191505092915050565b600061256682613128565b6125708185613144565b93506125808185602086016132b0565b6125898161344b565b840191505092915050565b600061259f82613128565b6125a98185613155565b93506125b98185602086016132b0565b80840191505092915050565b60006125d2603283613144565b91507f4552433732313a207472616e7366657220746f206e6f6e20455243373231526560008301527f63656976657220696d706c656d656e74657200000000000000000000000000006020830152604082019050919050565b6000612638602683613144565b91507f4f776e61626c653a206e6577206f776e657220697320746865207a65726f206160008301527f64647265737300000000000000000000000000000000000000000000000000006020830152604082019050919050565b600061269e601c83613144565b91507f4552433732313a20746f6b656e20616c7265616479206d696e746564000000006000830152602082019050919050565b60006126de602483613144565b91507f4552433732313a207472616e7366657220746f20746865207a65726f2061646460008301527f72657373000000000000000000000000000000000000000000000000000000006020830152604082019050919050565b6000612744601983613144565b91507f4552433732313a20617070726f766520746f2063616c6c6572000000000000006000830152602082019050919050565b6000612784602c83613144565b91507f4552433732313a206f70657261746f7220717565727920666f72206e6f6e657860008301527f697374656e7420746f6b656e00000000000000000000000000000000000000006020830152604082019050919050565b60006127ea601583613144565b91507f4572726f722c2077726f6e6720546f6b656e20696400000000000000000000006000830152602082019050919050565b600061282a601783613144565b91507f4572726f722c20546f6b656e20636f737473206d6f72650000000000000000006000830152602082019050919050565b600061286a603883613144565b91507f4552433732313a20617070726f76652063616c6c6572206973206e6f74206f7760008301527f6e6572206e6f7220617070726f76656420666f7220616c6c00000000000000006020830152604082019050919050565b60006128d0602a83613144565b91507f4552433732313a2062616c616e636520717565727920666f7220746865207a6560008301527f726f2061646472657373000000000000000000000000000000000000000000006020830152604082019050919050565b6000612936602983613144565b91507f4552433732313a206f776e657220717565727920666f72206e6f6e657869737460008301527f656e7420746f6b656e00000000000000000000000000000000000000000000006020830152604082019050919050565b600061299c602083613144565b91507f4552433732313a206d696e7420746f20746865207a65726f20616464726573736000830152602082019050919050565b60006129dc602c83613144565b91507f4552433732313a20617070726f76656420717565727920666f72206e6f6e657860008301527f697374656e7420746f6b656e00000000000000000000000000000000000000006020830152604082019050919050565b6000612a42602c83613144565b91507f4552433732314d657461646174613a2055524920736574206f66206e6f6e657860008301527f697374656e7420746f6b656e00000000000000000000000000000000000000006020830152604082019050919050565b6000612aa8602083613144565b91507f4f776e61626c653a2063616c6c6572206973206e6f7420746865206f776e65726000830152602082019050919050565b6000612ae8602983613144565b91507f4552433732313a207472616e73666572206f6620746f6b656e2074686174206960008301527f73206e6f74206f776e00000000000000000000000000000000000000000000006020830152604082019050919050565b6000612b4e602f83613144565b91507f4552433732314d657461646174613a2055524920717565727920666f72206e6f60008301527f6e6578697374656e7420746f6b656e00000000000000000000000000000000006020830152604082019050919050565b6000612bb4602183613144565b91507f4552433732313a20617070726f76616c20746f2063757272656e74206f776e6560008301527f72000000000000000000000000000000000000000000000000000000000000006020830152604082019050919050565b6000612c1a601483613144565b91507f4572726f722c20546f6b656e20697320736f6c640000000000000000000000006000830152602082019050919050565b6000612c5a603183613144565b91507f4552433732313a207472616e736665722063616c6c6572206973206e6f74206f60008301527f776e6572206e6f7220617070726f7665640000000000000000000000000000006020830152604082019050919050565b612cbc81613297565b82525050565b6000612cce8285612594565b9150612cda8284612594565b91508190509392505050565b6000602082019050612cfb6000830184612504565b92915050565b6000602082019050612d1660008301846124f5565b92915050565b6000608082019050612d316000830187612504565b612d3e6020830186612504565b612d4b6040830185612cb3565b8181036060830152612d5d8184612522565b905095945050505050565b6000608082019050612d7d6000830187612504565b612d8a6020830186612cb3565b612d976040830185612cb3565b8181036060830152612da9818461255b565b905095945050505050565b6000602082019050612dc96000830184612513565b92915050565b60006020820190508181036000830152612de9818461255b565b905092915050565b60006020820190508181036000830152612e0a816125c5565b9050919050565b60006020820190508181036000830152612e2a8161262b565b9050919050565b60006020820190508181036000830152612e4a81612691565b9050919050565b60006020820190508181036000830152612e6a816126d1565b9050919050565b60006020820190508181036000830152612e8a81612737565b9050919050565b60006020820190508181036000830152612eaa81612777565b9050919050565b60006020820190508181036000830152612eca816127dd565b9050919050565b60006020820190508181036000830152612eea8161281d565b9050919050565b60006020820190508181036000830152612f0a8161285d565b9050919050565b60006020820190508181036000830152612f2a816128c3565b9050919050565b60006020820190508181036000830152612f4a81612929565b9050919050565b60006020820190508181036000830152612f6a8161298f565b9050919050565b60006020820190508181036000830152612f8a816129cf565b9050919050565b60006020820190508181036000830152612faa81612a35565b9050919050565b60006020820190508181036000830152612fca81612a9b565b9050919050565b60006020820190508181036000830152612fea81612adb565b9050919050565b6000602082019050818103600083015261300a81612b41565b9050919050565b6000602082019050818103600083015261302a81612ba7565b9050919050565b6000602082019050818103600083015261304a81612c0d565b9050919050565b6000602082019050818103600083015261306a81612c4d565b9050919050565b60006020820190506130866000830184612cb3565b92915050565b6000604051905081810181811067ffffffffffffffff821117156130b3576130b261341c565b5b8060405250919050565b600067ffffffffffffffff8211156130d8576130d761341c565b5b601f19601f8301169050602081019050919050565b600067ffffffffffffffff8211156131085761310761341c565b5b601f19601f8301169050602081019050919050565b600081519050919050565b600081519050919050565b600082825260208201905092915050565b600082825260208201905092915050565b600081905092915050565b600061316b82613297565b915061317683613297565b9250827fffffffffffffffffffffffffffffffffffffffffffffffffffffffffffffffff038211156131ab576131aa61338f565b5b828201905092915050565b60006131c182613297565b91506131cc83613297565b9250826131dc576131db6133be565b5b828204905092915050565b60006131f282613297565b91506131fd83613297565b9250828210156132105761320f61338f565b5b828203905092915050565b600061322682613277565b9050919050565b600061323882613277565b9050919050565b60008115159050919050565b60007fffffffff0000000000000000000000000000000000000000000000000000000082169050919050565b600073ffffffffffffffffffffffffffffffffffffffff82169050919050565b6000819050919050565b82818337600083830152505050565b60005b838110156132ce5780820151818401526020810190506132b3565b838111156132dd576000848401525b50505050565b600060028204905060018216806132fb57607f821691505b6020821081141561330f5761330e6133ed565b5b50919050565b600061332082613297565b91507fffffffffffffffffffffffffffffffffffffffffffffffffffffffffffffffff8214156133535761335261338f565b5b600182019050919050565b600061336982613297565b915061337483613297565b925082613384576133836133be565b5b828206905092915050565b7f4e487b7100000000000000000000000000000000000000000000000000000000600052601160045260246000fd5b7f4e487b7100000000000000000000000000000000000000000000000000000000600052601260045260246000fd5b7f4e487b7100000000000000000000000000000000000000000000000000000000600052602260045260246000fd5b7f4e487b7100000000000000000000000000000000000000000000000000000000600052604160045260246000fd5b6000601f19601f8301169050919050565b6134658161321b565b811461347057600080fd5b50565b61347c8161323f565b811461348757600080fd5b50565b6134938161324b565b811461349e57600080fd5b50565b6134aa81613297565b81146134b557600080fd5b5056fea264697066735822122096d6dbf4d81a90f9414a4ccbcbc8de0e053f79829c69f02347817cc9bf95c6e064736f6c63430008000033",
  "linkReferences": {},
  "deployedLinkReferences": {}
}