{
  "address": "0xC4749db7059f8Bb6F7005fB19C900BB7a858F3C4",
  "abi": [
    {
      "inputs": [
        {
          "internalType": "address",
          "name": "_VRFCoordinator",
          "type": "address"
        },
        {
          "internalType": "address",
          "name": "_LinkToken",
          "type": "address"
        },
        {
          "internalType": "bytes32",
          "name": "_keyHash",
          "type": "bytes32"
        },
        {
          "internalType": "uint256",
          "name": "_fee",
          "type": "uint256"
        }
      ],
      "stateMutability": "nonpayable",
      "type": "constructor"
    },
    {
      "anonymous": false,
      "inputs": [
        {
          "indexed": true,
          "internalType": "address",
          "name": "owner",
          "type": "address"
        },
        {
          "indexed": true,
          "internalType": "address",
          "name": "approved",
          "type": "address"
        },
        {
          "indexed": true,
          "internalType": "uint256",
          "name": "tokenId",
          "type": "uint256"
        }
      ],
      "name": "Approval",
      "type": "event"
    },
    {
      "anonymous": false,
      "inputs": [
        {
          "indexed": true,
          "internalType": "address",
          "name": "owner",
          "type": "address"
        },
        {
          "indexed": true,
          "internalType": "address",
          "name": "operator",
          "type": "address"
        },
        {
          "indexed": false,
          "internalType": "bool",
          "name": "approved",
          "type": "bool"
        }
      ],
      "name": "ApprovalForAll",
      "type": "event"
    },
    {
      "anonymous": false,
      "inputs": [
        {
          "indexed": true,
          "internalType": "uint256",
          "name": "tokenId",
          "type": "uint256"
        },
        {
          "indexed": false,
          "internalType": "string",
          "name": "tokenURI",
          "type": "string"
        }
      ],
      "name": "CreatedRandomSVG",
      "type": "event"
    },
    {
      "anonymous": false,
      "inputs": [
        {
          "indexed": true,
          "internalType": "uint256",
          "name": "tokenId",
          "type": "uint256"
        },
        {
          "indexed": false,
          "internalType": "uint256",
          "name": "randomNumber",
          "type": "uint256"
        }
      ],
      "name": "CreatedUnfinshedRandomSVG",
      "type": "event"
    },
    {
      "anonymous": false,
      "inputs": [
        {
          "indexed": true,
          "internalType": "address",
          "name": "from",
          "type": "address"
        },
        {
          "indexed": true,
          "internalType": "address",
          "name": "to",
          "type": "address"
        },
        {
          "indexed": true,
          "internalType": "uint256",
          "name": "tokenId",
          "type": "uint256"
        }
      ],
      "name": "Transfer",
      "type": "event"
    },
    {
      "anonymous": false,
      "inputs": [
        {
          "indexed": true,
          "internalType": "bytes32",
          "name": "requestId",
          "type": "bytes32"
        },
        {
          "indexed": true,
          "internalType": "uint256",
          "name": "tokenId",
          "type": "uint256"
        }
      ],
      "name": "requestedRandomSVG",
      "type": "event"
    },
    {
      "inputs": [
        {
          "internalType": "address",
          "name": "to",
          "type": "address"
        },
        {
          "internalType": "uint256",
          "name": "tokenId",
          "type": "uint256"
        }
      ],
      "name": "approve",
      "outputs": [],
      "stateMutability": "nonpayable",
      "type": "function"
    },
    {
      "inputs": [
        {
          "internalType": "address",
          "name": "owner",
          "type": "address"
        }
      ],
      "name": "balanceOf",
      "outputs": [
        {
          "internalType": "uint256",
          "name": "",
          "type": "uint256"
        }
      ],
      "stateMutability": "view",
      "type": "function"
    },
    {
      "inputs": [
        {
          "internalType": "uint256",
          "name": "",
          "type": "uint256"
        }
      ],
      "name": "colors",
      "outputs": [
        {
          "internalType": "string",
          "name": "",
          "type": "string"
        }
      ],
      "stateMutability": "view",
      "type": "function"
    },
    {
      "inputs": [],
      "name": "create",
      "outputs": [
        {
          "internalType": "bytes32",
          "name": "requestId",
          "type": "bytes32"
        }
      ],
      "stateMutability": "nonpayable",
      "type": "function"
    },
    {
      "inputs": [],
      "name": "fee",
      "outputs": [
        {
          "internalType": "uint256",
          "name": "",
          "type": "uint256"
        }
      ],
      "stateMutability": "view",
      "type": "function"
    },
    {
      "inputs": [
        {
          "internalType": "uint256",
          "name": "tokenId",
          "type": "uint256"
        }
      ],
      "name": "finishMint",
      "outputs": [],
      "stateMutability": "nonpayable",
      "type": "function"
    },
    {
      "inputs": [
        {
          "internalType": "string",
          "name": "imageURI",
          "type": "string"
        }
      ],
      "name": "formatTokenURI",
      "outputs": [
        {
          "internalType": "string",
          "name": "",
          "type": "string"
        }
      ],
      "stateMutability": "pure",
      "type": "function"
    },
    {
      "inputs": [
        {
          "internalType": "uint256",
          "name": "_randomNumber",
          "type": "uint256"
        }
      ],
      "name": "generatePath",
      "outputs": [
        {
          "internalType": "string",
          "name": "pathSvg",
          "type": "string"
        }
      ],
      "stateMutability": "view",
      "type": "function"
    },
    {
      "inputs": [
        {
          "internalType": "uint256",
          "name": "randomNumber",
          "type": "uint256"
        }
      ],
      "name": "generatePathCommand",
      "outputs": [
        {
          "internalType": "string",
          "name": "pathCommand",
          "type": "string"
        }
      ],
      "stateMutability": "view",
      "type": "function"
    },
    {
      "inputs": [
        {
          "internalType": "uint256",
          "name": "randomNumber",
          "type": "uint256"
        }
      ],
      "name": "generateSVG",
      "outputs": [
        {
          "internalType": "string",
          "name": "finalSvg",
          "type": "string"
        }
      ],
      "stateMutability": "view",
      "type": "function"
    },
    {
      "inputs": [
        {
          "internalType": "uint256",
          "name": "tokenId",
          "type": "uint256"
        }
      ],
      "name": "getApproved",
      "outputs": [
        {
          "internalType": "address",
          "name": "",
          "type": "address"
        }
      ],
      "stateMutability": "view",
      "type": "function"
    },
    {
      "inputs": [
        {
          "internalType": "address",
          "name": "owner",
          "type": "address"
        },
        {
          "internalType": "address",
          "name": "operator",
          "type": "address"
        }
      ],
      "name": "isApprovedForAll",
      "outputs": [
        {
          "internalType": "bool",
          "name": "",
          "type": "bool"
        }
      ],
      "stateMutability": "view",
      "type": "function"
    },
    {
      "inputs": [],
      "name": "keyHash",
      "outputs": [
        {
          "internalType": "bytes32",
          "name": "",
          "type": "bytes32"
        }
      ],
      "stateMutability": "view",
      "type": "function"
    },
    {
      "inputs": [],
      "name": "maxNumberOfPaths",
      "outputs": [
        {
          "internalType": "uint256",
          "name": "",
          "type": "uint256"
        }
      ],
      "stateMutability": "view",
      "type": "function"
    },
    {
      "inputs": [],
      "name": "maxNumberOfPathsCommands",
      "outputs": [
        {
          "internalType": "uint256",
          "name": "",
          "type": "uint256"
        }
      ],
      "stateMutability": "view",
      "type": "function"
    },
    {
      "inputs": [],
      "name": "name",
      "outputs": [
        {
          "internalType": "string",
          "name": "",
          "type": "string"
        }
      ],
      "stateMutability": "view",
      "type": "function"
    },
    {
      "inputs": [
        {
          "internalType": "uint256",
          "name": "tokenId",
          "type": "uint256"
        }
      ],
      "name": "ownerOf",
      "outputs": [
        {
          "internalType": "address",
          "name": "",
          "type": "address"
        }
      ],
      "stateMutability": "view",
      "type": "function"
    },
    {
      "inputs": [
        {
          "internalType": "uint256",
          "name": "",
          "type": "uint256"
        }
      ],
      "name": "pathCommands",
      "outputs": [
        {
          "internalType": "string",
          "name": "",
          "type": "string"
        }
      ],
      "stateMutability": "view",
      "type": "function"
    },
    {
      "inputs": [
        {
          "internalType": "bytes32",
          "name": "requestId",
          "type": "bytes32"
        },
        {
          "internalType": "uint256",
          "name": "randomness",
          "type": "uint256"
        }
      ],
      "name": "rawFulfillRandomness",
      "outputs": [],
      "stateMutability": "nonpayable",
      "type": "function"
    },
    {
      "inputs": [
        {
          "internalType": "bytes32",
          "name": "",
          "type": "bytes32"
        }
      ],
      "name": "requestIdToSender",
      "outputs": [
        {
          "internalType": "address",
          "name": "",
          "type": "address"
        }
      ],
      "stateMutability": "view",
      "type": "function"
    },
    {
      "inputs": [
        {
          "internalType": "bytes32",
          "name": "",
          "type": "bytes32"
        }
      ],
      "name": "requestIdToTokenId",
      "outputs": [
        {
          "internalType": "uint256",
          "name": "",
          "type": "uint256"
        }
      ],
      "stateMutability": "view",
      "type": "function"
    },
    {
      "inputs": [
        {
          "internalType": "address",
          "name": "from",
          "type": "address"
        },
        {
          "internalType": "address",
          "name": "to",
          "type": "address"
        },
        {
          "internalType": "uint256",
          "name": "tokenId",
          "type": "uint256"
        }
      ],
      "name": "safeTransferFrom",
      "outputs": [],
      "stateMutability": "nonpayable",
      "type": "function"
    },
    {
      "inputs": [
        {
          "internalType": "address",
          "name": "from",
          "type": "address"
        },
        {
          "internalType": "address",
          "name": "to",
          "type": "address"
        },
        {
          "internalType": "uint256",
          "name": "tokenId",
          "type": "uint256"
        },
        {
          "internalType": "bytes",
          "name": "_data",
          "type": "bytes"
        }
      ],
      "name": "safeTransferFrom",
      "outputs": [],
      "stateMutability": "nonpayable",
      "type": "function"
    },
    {
      "inputs": [
        {
          "internalType": "address",
          "name": "operator",
          "type": "address"
        },
        {
          "internalType": "bool",
          "name": "approved",
          "type": "bool"
        }
      ],
      "name": "setApprovalForAll",
      "outputs": [],
      "stateMutability": "nonpayable",
      "type": "function"
    },
    {
      "inputs": [],
      "name": "size",
      "outputs": [
        {
          "internalType": "uint256",
          "name": "",
          "type": "uint256"
        }
      ],
      "stateMutability": "view",
      "type": "function"
    },
    {
      "inputs": [
        {
          "internalType": "bytes4",
          "name": "interfaceId",
          "type": "bytes4"
        }
      ],
      "name": "supportsInterface",
      "outputs": [
        {
          "internalType": "bool",
          "name": "",
          "type": "bool"
        }
      ],
      "stateMutability": "view",
      "type": "function"
    },
    {
      "inputs": [
        {
          "internalType": "string",
          "name": "svg",
          "type": "string"
        }
      ],
      "name": "svgToImageURI",
      "outputs": [
        {
          "internalType": "string",
          "name": "",
          "type": "string"
        }
      ],
      "stateMutability": "pure",
      "type": "function"
    },
    {
      "inputs": [],
      "name": "symbol",
      "outputs": [
        {
          "internalType": "string",
          "name": "",
          "type": "string"
        }
      ],
      "stateMutability": "view",
      "type": "function"
    },
    {
      "inputs": [
        {
          "internalType": "uint256",
          "name": "",
          "type": "uint256"
        }
      ],
      "name": "tokenIdToRandomNumber",
      "outputs": [
        {
          "internalType": "uint256",
          "name": "",
          "type": "uint256"
        }
      ],
      "stateMutability": "view",
      "type": "function"
    },
    {
      "inputs": [
        {
          "internalType": "uint256",
          "name": "tokenId",
          "type": "uint256"
        }
      ],
      "name": "tokenURI",
      "outputs": [
        {
          "internalType": "string",
          "name": "",
          "type": "string"
        }
      ],
      "stateMutability": "view",
      "type": "function"
    },
    {
      "inputs": [
        {
          "internalType": "address",
          "name": "from",
          "type": "address"
        },
        {
          "internalType": "address",
          "name": "to",
          "type": "address"
        },
        {
          "internalType": "uint256",
          "name": "tokenId",
          "type": "uint256"
        }
      ],
      "name": "transferFrom",
      "outputs": [],
      "stateMutability": "nonpayable",
      "type": "function"
    }
  ],
  "transactionHash": "0xbe09945bdcc8511251e49f1b71803a388677ad3f7f741fdf5dcab717073f2d36",
  "args": [
    "0xb3dCcb4Cf7a26f6cf6B120Cf5A73875B7BBc655B",
    "0x01be23585060835e02b77ef475b0cc51aa1e0709",
    "0x2ed0feb3e7fd2022120aa84fab1945545a9f2ffc9076fd6156fa96eaff4c1311",
    "100000000000000000"
  ],
  "solcInputHash": "62f1a399a8766f54264447f8d00c37ba",
  "bytecode": "0x60c06040523480156200001157600080fd5b5060405162004f2338038062004f238339818101604052810190620000379190620005c3565b83836040518060400160405280600981526020017f52616e646f6d53564700000000000000000000000000000000000000000000008152506040518060400160405280600481526020017f72737667000000000000000000000000000000000000000000000000000000008152508160009080519060200190620000bd92919062000392565b508060019080519060200190620000d692919062000392565b5050508173ffffffffffffffffffffffffffffffffffffffff1660a08173ffffffffffffffffffffffffffffffffffffffff1660601b815250508073ffffffffffffffffffffffffffffffffffffffff1660808173ffffffffffffffffffffffffffffffffffffffff1660601b81525050505080600981905550816008819055506000600a81905550600a600b819055506005600c819055506101f4600d8190555060405180604001604052806040518060400160405280600181526020017f4d0000000000000000000000000000000000000000000000000000000000000081525081526020016040518060400160405280600181526020017f4c00000000000000000000000000000000000000000000000000000000000000815250815250600e9060026200020992919062000423565b506040518060c001604052806040518060400160405280600381526020017f726564000000000000000000000000000000000000000000000000000000000081525081526020016040518060400160405280600481526020017f626c75650000000000000000000000000000000000000000000000000000000081525081526020016040518060400160405280600581526020017f677265656e00000000000000000000000000000000000000000000000000000081525081526020016040518060400160405280600681526020017f79656c6c6f77000000000000000000000000000000000000000000000000000081525081526020016040518060400160405280600581526020017f626c61636b00000000000000000000000000000000000000000000000000000081525081526020016040518060400160405280600581526020017f7768697465000000000000000000000000000000000000000000000000000000815250815250600f906006620003879291906200048a565b50505050506200072a565b828054620003a09062000677565b90600052602060002090601f016020900481019282620003c4576000855562000410565b82601f10620003df57805160ff191683800117855562000410565b8280016001018555821562000410579182015b828111156200040f578251825591602001919060010190620003f2565b5b5090506200041f9190620004f1565b5090565b82805482825590600052602060002090810192821562000477579160200282015b82811115620004765782518290805190602001906200046592919062000392565b509160200191906001019062000444565b5b50905062000486919062000510565b5090565b828054828255906000526020600020908101928215620004de579160200282015b82811115620004dd578251829080519060200190620004cc92919062000392565b5091602001919060010190620004ab565b5b509050620004ed919062000510565b5090565b5b808211156200050c576000816000905550600101620004f2565b5090565b5b808211156200053457600081816200052a919062000538565b5060010162000511565b5090565b508054620005469062000677565b6000825580601f106200055a57506200057b565b601f0160209004906000526020600020908101906200057a9190620004f1565b5b50565b6000815190506200058f81620006dc565b92915050565b600081519050620005a681620006f6565b92915050565b600081519050620005bd8162000710565b92915050565b60008060008060808587031215620005da57600080fd5b6000620005ea878288016200057e565b9450506020620005fd878288016200057e565b9350506040620006108782880162000595565b92505060606200062387828801620005ac565b91505092959194509250565b60006200063c826200064d565b9050919050565b6000819050919050565b600073ffffffffffffffffffffffffffffffffffffffff82169050919050565b6000819050919050565b600060028204905060018216806200069057607f821691505b60208210811415620006a757620006a6620006ad565b5b50919050565b7f4e487b7100000000000000000000000000000000000000000000000000000000600052602260045260246000fd5b620006e7816200062f565b8114620006f357600080fd5b50565b620007018162000643565b81146200070d57600080fd5b50565b6200071b816200066d565b81146200072757600080fd5b50565b60805160601c60a05160601c6147c66200075d6000396000818161113101526124e8015260006124ac01526147c66000f3fe608060405234801561001057600080fd5b50600436106101e55760003560e01c806370a082311161010f578063b88d4fde116100a2578063c87b56dd11610071578063c87b56dd14610602578063ddca3f4314610632578063e985e9c514610650578063efc81a8c14610680576101e5565b8063b88d4fde14610568578063bd11f69d14610584578063c21bf36f146105b4578063c68b49d1146105d2576101e5565b8063955968d4116100de578063955968d4146104ce57806395d89b41146104fe5780639c1cd7951461051c578063a22cb4651461054c576101e5565b806370a082311461043457806371aee1931461046457806394985ddd14610494578063949d225d146104b0576101e5565b806323b872dd1161018757806361728f391161015657806361728f391461039a578063624194c7146103b85780636352211e146103d45780636dcee4ca14610404576101e5565b806323b872dd1461030257806330d871c61461031e57806333af59891461034e57806342842e0e1461037e576101e5565b8063095ea7b3116101c3578063095ea7b3146102685780630b8e312714610284578063219c0eee146102a257806322881f88146102d2576101e5565b806301ffc9a7146101ea57806306fdde031461021a578063081812fc14610238575b600080fd5b61020460048036038101906101ff9190613057565b61069e565b6040516102119190613ed9565b60405180910390f35b610222610780565b60405161022f9190613f7d565b60405180910390f35b610252600480360381019061024d91906130ea565b610812565b60405161025f9190613e34565b60405180910390f35b610282600480360381019061027d9190612f8d565b610897565b005b61028c6109af565b604051610299919061421f565b60405180910390f35b6102bc60048036038101906102b79190612ff2565b6109b5565b6040516102c99190613e34565b60405180910390f35b6102ec60048036038101906102e79190612ff2565b6109e8565b6040516102f9919061421f565b60405180910390f35b61031c60048036038101906103179190612e87565b610a00565b005b610338600480360381019061033391906130a9565b610a60565b6040516103459190613f7d565b60405180910390f35b610368600480360381019061036391906130ea565b610af3565b6040516103759190613f7d565b60405180910390f35b61039860048036038101906103939190612e87565b610ce5565b005b6103a2610d05565b6040516103af9190613ef4565b60405180910390f35b6103d260048036038101906103cd91906130ea565b610d0b565b005b6103ee60048036038101906103e991906130ea565b610e74565b6040516103fb9190613e34565b60405180910390f35b61041e600480360381019061041991906130ea565b610f26565b60405161042b9190613f7d565b60405180910390f35b61044e60048036038101906104499190612e22565b611027565b60405161045b919061421f565b60405180910390f35b61047e600480360381019061047991906130a9565b6110df565b60405161048b9190613f7d565b60405180910390f35b6104ae60048036038101906104a9919061301b565b61112f565b005b6104b86111cb565b6040516104c5919061421f565b60405180910390f35b6104e860048036038101906104e391906130ea565b6111d1565b6040516104f59190613f7d565b60405180910390f35b61050661127d565b6040516105139190613f7d565b60405180910390f35b610536600480360381019061053191906130ea565b61130f565b604051610543919061421f565b60405180910390f35b61056660048036038101906105619190612f51565b611327565b005b610582600480360381019061057d9190612ed6565b6114a8565b005b61059e600480360381019061059991906130ea565b61150a565b6040516105ab9190613f7d565b60405180910390f35b6105bc6115b6565b6040516105c9919061421f565b60405180910390f35b6105ec60048036038101906105e791906130ea565b6115bc565b6040516105f99190613f7d565b60405180910390f35b61061c600480360381019061061791906130ea565b61176f565b6040516106299190613f7d565b60405180910390f35b61063a6118c1565b604051610647919061421f565b60405180910390f35b61066a60048036038101906106659190612e4b565b6118c7565b6040516106779190613ed9565b60405180910390f35b61068861195b565b6040516106959190613ef4565b60405180910390f35b60007f80ac58cd000000000000000000000000000000000000000000000000000000007bffffffffffffffffffffffffffffffffffffffffffffffffffffffff1916827bffffffffffffffffffffffffffffffffffffffffffffffffffffffff1916148061076957507f5b5e139f000000000000000000000000000000000000000000000000000000007bffffffffffffffffffffffffffffffffffffffffffffffffffffffff1916827bffffffffffffffffffffffffffffffffffffffffffffffffffffffff1916145b80610779575061077882611a25565b5b9050919050565b60606000805461078f90614550565b80601f01602080910402602001604051908101604052809291908181526020018280546107bb90614550565b80156108085780601f106107dd57610100808354040283529160200191610808565b820191906000526020600020905b8154815290600101906020018083116107eb57829003601f168201915b5050505050905090565b600061081d82611a8f565b61085c576040517f08c379a00000000000000000000000000000000000000000000000000000000081526004016108539061411f565b60405180910390fd5b6004600083815260200190815260200160002060009054906101000a900473ffffffffffffffffffffffffffffffffffffffff169050919050565b60006108a282610e74565b90508073ffffffffffffffffffffffffffffffffffffffff168373ffffffffffffffffffffffffffffffffffffffff161415610913576040517f08c379a000000000000000000000000000000000000000000000000000000000815260040161090a9061419f565b60405180910390fd5b8073ffffffffffffffffffffffffffffffffffffffff16610932611afb565b73ffffffffffffffffffffffffffffffffffffffff16148061096157506109608161095b611afb565b6118c7565b5b6109a0576040517f08c379a00000000000000000000000000000000000000000000000000000000081526004016109979061405f565b60405180910390fd5b6109aa8383611b03565b505050565b600c5481565b60106020528060005260406000206000915054906101000a900473ffffffffffffffffffffffffffffffffffffffff1681565b60116020528060005260406000206000915090505481565b610a11610a0b611afb565b82611bbc565b610a50576040517f08c379a0000000000000000000000000000000000000000000000000000000008152600401610a47906141df565b60405180910390fd5b610a5b838383611c9a565b505050565b606060006040518060400160405280601a81526020017f646174613a696d6167652f7376672b786d6c3b6261736536342c00000000000081525090506000610ac684604051602001610ab29190613cac565b604051602081830303815290604052611ef6565b90508181604051602001610adb929190613cc3565b60405160208183030381529060405292505050919050565b606060006001600c5484610b0791906145df565b610b119190614337565b90506040518060400160405280600981526020017f3c7061746820643d270000000000000000000000000000000000000000000000815250915060005b81811015610bd95760008482600d54610b679190614337565b604051602001610b7892919061423a565b6040516020818303038152906040528051906020012060001c90506000610b9e826115bc565b90508481604051602001610bb3929190613cc3565b604051602081830303815290604052945050508080610bd190614582565b915050610b4e565b506000600f808054905085610bee91906145df565b81548110610c25577f4e487b7100000000000000000000000000000000000000000000000000000000600052603260045260246000fd5b906000526020600020018054610c3a90614550565b80601f0160208091040260200160405190810160405280929190818152602001828054610c6690614550565b8015610cb35780601f10610c8857610100808354040283529160200191610cb3565b820191906000526020600020905b815481529060010190602001808311610c9657829003601f168201915b505050505090508281604051602001610ccd929190613ce7565b60405160208183030381529060405292505050919050565b610d00838383604051806020016040528060008152506114a8565b505050565b60085481565b6000610d168261176f565b511115610d58576040517f08c379a0000000000000000000000000000000000000000000000000000000008152600401610d4f906141bf565b60405180910390fd5b80600a5411610d9c576040517f08c379a0000000000000000000000000000000000000000000000000000000008152600401610d9390613fdf565b60405180910390fd5b6000601260008381526020019081526020016000205411610df2576040517f08c379a0000000000000000000000000000000000000000000000000000000008152600401610de9906141ff565b60405180910390fd5b6000601260008381526020019081526020016000205490506000610e1582610f26565b90506000610e2282610a60565b9050610e3684610e31836110df565b612095565b837f15a6487b7915a7116ce2a61d43b17e9b47484b1931f3c79f2f3d139b307b389383604051610e669190613f7d565b60405180910390a250505050565b6000806002600084815260200190815260200160002060009054906101000a900473ffffffffffffffffffffffffffffffffffffffff169050600073ffffffffffffffffffffffffffffffffffffffff168173ffffffffffffffffffffffffffffffffffffffff161415610f1d576040517f08c379a0000000000000000000000000000000000000000000000000000000008152600401610f149061409f565b60405180910390fd5b80915050919050565b606060006001600b5484610f3a91906145df565b610f449190614337565b9050610f51600d54612109565b610f5c600d54612109565b604051602001610f6d929190613dcd565b604051602081830303815290604052915060005b818111610ffe5760008482604051602001610f9d92919061423a565b6040516020818303038152906040528051906020012060001c90506000610fc382610af3565b90508481604051602001610fd8929190613cc3565b604051602081830303815290604052945050508080610ff690614582565b915050610f81565b50816040516020016110109190613d68565b604051602081830303815290604052915050919050565b60008073ffffffffffffffffffffffffffffffffffffffff168273ffffffffffffffffffffffffffffffffffffffff161415611098576040517f08c379a000000000000000000000000000000000000000000000000000000000815260040161108f9061407f565b60405180910390fd5b600360008373ffffffffffffffffffffffffffffffffffffffff1673ffffffffffffffffffffffffffffffffffffffff168152602001908152602001600020549050919050565b6060611109826040516020016110f59190613d8a565b604051602081830303815290604052611ef6565b6040516020016111199190613e12565b6040516020818303038152906040529050919050565b7f000000000000000000000000000000000000000000000000000000000000000073ffffffffffffffffffffffffffffffffffffffff163373ffffffffffffffffffffffffffffffffffffffff16146111bd576040517f08c379a00000000000000000000000000000000000000000000000000000000081526004016111b49061417f565b60405180910390fd5b6111c782826122de565b5050565b600d5481565b600e81815481106111e157600080fd5b9060005260206000200160009150905080546111fc90614550565b80601f016020809104026020016040519081016040528092919081815260200182805461122890614550565b80156112755780601f1061124a57610100808354040283529160200191611275565b820191906000526020600020905b81548152906001019060200180831161125857829003601f168201915b505050505081565b60606001805461128c90614550565b80601f01602080910402602001604051908101604052809291908181526020018280546112b890614550565b80156113055780601f106112da57610100808354040283529160200191611305565b820191906000526020600020905b8154815290600101906020018083116112e857829003601f168201915b5050505050905090565b60126020528060005260406000206000915090505481565b61132f611afb565b73ffffffffffffffffffffffffffffffffffffffff168273ffffffffffffffffffffffffffffffffffffffff16141561139d576040517f08c379a00000000000000000000000000000000000000000000000000000000081526004016113949061401f565b60405180910390fd5b80600560006113aa611afb565b73ffffffffffffffffffffffffffffffffffffffff1673ffffffffffffffffffffffffffffffffffffffff16815260200190815260200160002060008473ffffffffffffffffffffffffffffffffffffffff1673ffffffffffffffffffffffffffffffffffffffff16815260200190815260200160002060006101000a81548160ff0219169083151502179055508173ffffffffffffffffffffffffffffffffffffffff16611457611afb565b73ffffffffffffffffffffffffffffffffffffffff167f17307eab39ab6107e8899845ad3d59bd9653f200f220920489ca2b5937696c318360405161149c9190613ed9565b60405180910390a35050565b6114b96114b3611afb565b83611bbc565b6114f8576040517f08c379a00000000000000000000000000000000000000000000000000000000081526004016114ef906141df565b60405180910390fd5b6115048484848461238e565b50505050565b600f818154811061151a57600080fd5b90600052602060002001600091509050805461153590614550565b80601f016020809104026020016040519081016040528092919081815260200182805461156190614550565b80156115ae5780601f10611583576101008083540402835291602001916115ae565b820191906000526020600020905b81548152906001019060200180831161159157829003601f168201915b505050505081565b600b5481565b6060600e8080549050836115d091906145df565b81548110611607577f4e487b7100000000000000000000000000000000000000000000000000000000600052603260045260246000fd5b90600052602060002001805461161c90614550565b80601f016020809104026020016040519081016040528092919081815260200182805461164890614550565b80156116955780601f1061166a57610100808354040283529160200191611695565b820191906000526020600020905b81548152906001019060200180831161167857829003601f168201915b505050505090506000600d54836002600d546116b191906143f5565b6040516020016116c292919061423a565b6040516020818303038152906040528051906020012060001c6116e591906145df565b90506000600d54846003600d546116fc91906143f5565b60405160200161170d92919061423a565b6040516020818303038152906040528051906020012060001c61173091906145df565b90508261173c83612109565b61174583612109565b60405160200161175793929190613d21565b60405160208183030381529060405292505050919050565b606061177a82611a8f565b6117b9576040517f08c379a00000000000000000000000000000000000000000000000000000000081526004016117b0906140ff565b60405180910390fd5b60006006600084815260200190815260200160002080546117d990614550565b80601f016020809104026020016040519081016040528092919081815260200182805461180590614550565b80156118525780601f1061182757610100808354040283529160200191611852565b820191906000526020600020905b81548152906001019060200180831161183557829003601f168201915b5050505050905060006118636123ea565b90506000815114156118795781925050506118bc565b6000825111156118ae578082604051602001611896929190613cc3565b604051602081830303815290604052925050506118bc565b6118b784612401565b925050505b919050565b60095481565b6000600560008473ffffffffffffffffffffffffffffffffffffffff1673ffffffffffffffffffffffffffffffffffffffff16815260200190815260200160002060008373ffffffffffffffffffffffffffffffffffffffff1673ffffffffffffffffffffffffffffffffffffffff16815260200190815260200160002060009054906101000a900460ff16905092915050565b600061196b6008546009546124a8565b9050336010600083815260200190815260200160002060006101000a81548173ffffffffffffffffffffffffffffffffffffffff021916908373ffffffffffffffffffffffffffffffffffffffff1602179055506000600a5490508060116000848152602001908152602001600020819055506001600a546119ed9190614337565b600a8190555080827fb97343f1f2afc4959f818046ccae28fd7b05fcd2b7a7dc651cbb52a096cae03560405160405180910390a35090565b60007f01ffc9a7000000000000000000000000000000000000000000000000000000007bffffffffffffffffffffffffffffffffffffffffffffffffffffffff1916827bffffffffffffffffffffffffffffffffffffffffffffffffffffffff1916149050919050565b60008073ffffffffffffffffffffffffffffffffffffffff166002600084815260200190815260200160002060009054906101000a900473ffffffffffffffffffffffffffffffffffffffff1673ffffffffffffffffffffffffffffffffffffffff1614159050919050565b600033905090565b816004600083815260200190815260200160002060006101000a81548173ffffffffffffffffffffffffffffffffffffffff021916908373ffffffffffffffffffffffffffffffffffffffff160217905550808273ffffffffffffffffffffffffffffffffffffffff16611b7683610e74565b73ffffffffffffffffffffffffffffffffffffffff167f8c5be1e5ebec7d5bd14f71427d1e84f3dd0314c0f7b2291e5b200ac8c7c3b92560405160405180910390a45050565b6000611bc782611a8f565b611c06576040517f08c379a0000000000000000000000000000000000000000000000000000000008152600401611bfd9061403f565b60405180910390fd5b6000611c1183610e74565b90508073ffffffffffffffffffffffffffffffffffffffff168473ffffffffffffffffffffffffffffffffffffffff161480611c8057508373ffffffffffffffffffffffffffffffffffffffff16611c6884610812565b73ffffffffffffffffffffffffffffffffffffffff16145b80611c915750611c9081856118c7565b5b91505092915050565b8273ffffffffffffffffffffffffffffffffffffffff16611cba82610e74565b73ffffffffffffffffffffffffffffffffffffffff1614611d10576040517f08c379a0000000000000000000000000000000000000000000000000000000008152600401611d079061413f565b60405180910390fd5b600073ffffffffffffffffffffffffffffffffffffffff168273ffffffffffffffffffffffffffffffffffffffff161415611d80576040517f08c379a0000000000000000000000000000000000000000000000000000000008152600401611d7790613fff565b60405180910390fd5b611d8b83838361260a565b611d96600082611b03565b6001600360008573ffffffffffffffffffffffffffffffffffffffff1673ffffffffffffffffffffffffffffffffffffffff1681526020019081526020016000206000828254611de6919061444f565b925050819055506001600360008473ffffffffffffffffffffffffffffffffffffffff1673ffffffffffffffffffffffffffffffffffffffff1681526020019081526020016000206000828254611e3d9190614337565b92505081905550816002600083815260200190815260200160002060006101000a81548173ffffffffffffffffffffffffffffffffffffffff021916908373ffffffffffffffffffffffffffffffffffffffff160217905550808273ffffffffffffffffffffffffffffffffffffffff168473ffffffffffffffffffffffffffffffffffffffff167fddf252ad1be2c89b69c2b068fc378daa952ba7f163c4a11628f55a4df523b3ef60405160405180910390a4505050565b6060600082511415611f1957604051806020016040528060008152509050612090565b60006040518060600160405280604081526020016147516040913990506000600360028551611f489190614337565b611f5291906143c4565b6004611f5e91906143f5565b90506000602082611f6f9190614337565b67ffffffffffffffff811115611fae577f4e487b7100000000000000000000000000000000000000000000000000000000600052604160045260246000fd5b6040519080825280601f01601f191660200182016040528015611fe05781602001600182028036833780820191505090505b509050818152600183018586518101602084015b8183101561204f576003830192508251603f8160121c168501518253600182019150603f81600c1c168501518253600182019150603f8160061c168501518253600182019150603f8116850151825360018201915050611ff4565b600389510660018114612069576002811461207957612084565b613d3d60f01b6002830352612084565b603d60f81b60018303525b50505050508093505050505b919050565b61209e82611a8f565b6120dd576040517f08c379a00000000000000000000000000000000000000000000000000000000081526004016120d4906140bf565b60405180910390fd5b80600660008481526020019081526020016000209080519060200190612104929190612c1c565b505050565b60606000821415612151576040518060400160405280600181526020017f300000000000000000000000000000000000000000000000000000000000000081525090506122d9565b600082905060005b6000821461218357808061216c90614582565b915050600a8261217c91906143c4565b9150612159565b60008167ffffffffffffffff8111156121c5577f4e487b7100000000000000000000000000000000000000000000000000000000600052604160045260246000fd5b6040519080825280601f01601f1916602001820160405280156121f75781602001600182028036833780820191505090505b50905060008290505b600086146122d157600181612215919061444f565b90506000600a808861222791906143c4565b61223191906143f5565b8761223c919061444f565b6030612248919061438d565b905060008160f81b90508084848151811061228c577f4e487b7100000000000000000000000000000000000000000000000000000000600052603260045260246000fd5b60200101907effffffffffffffffffffffffffffffffffffffffffffffffffffffffffffff1916908160001a905350600a886122c891906143c4565b97505050612200565b819450505050505b919050565b60006010600084815260200190815260200160002060009054906101000a900473ffffffffffffffffffffffffffffffffffffffff169050600060116000858152602001908152602001600020549050612338828261260f565b826012600083815260200190815260200160002081905550807fc1dc5e7e624c115b367e69d05ea39237424dd750c152cad241ec6c4911c49fa584604051612380919061421f565b60405180910390a250505050565b612399848484611c9a565b6123a58484848461262d565b6123e4576040517f08c379a00000000000000000000000000000000000000000000000000000000081526004016123db90613f9f565b60405180910390fd5b50505050565b606060405180602001604052806000815250905090565b606061240c82611a8f565b61244b576040517f08c379a00000000000000000000000000000000000000000000000000000000081526004016124429061415f565b60405180910390fd5b60006124556123ea565b9050600081511161247557604051806020016040528060008152506124a0565b8061247f846127c4565b604051602001612490929190613cc3565b6040516020818303038152906040525b915050919050565b60007f000000000000000000000000000000000000000000000000000000000000000073ffffffffffffffffffffffffffffffffffffffff16634000aea07f00000000000000000000000000000000000000000000000000000000000000008486600060405160200161251c929190613f0f565b6040516020818303038152906040526040518463ffffffff1660e01b815260040161254993929190613e9b565b602060405180830381600087803b15801561256357600080fd5b505af1158015612577573d6000803e3d6000fd5b505050506040513d601f19601f8201168201806040525081019061259b9190612fc9565b5060006125be846000306007600089815260200190815260200160002054612971565b9050600160076000868152602001908152602001600020546125e09190614337565b600760008681526020019081526020016000208190555061260184826129ad565b91505092915050565b505050565b6126298282604051806020016040528060008152506129e0565b5050565b600061264e8473ffffffffffffffffffffffffffffffffffffffff16612a3b565b156127b7578373ffffffffffffffffffffffffffffffffffffffff1663150b7a02612677611afb565b8786866040518563ffffffff1660e01b81526004016126999493929190613e4f565b602060405180830381600087803b1580156126b357600080fd5b505af19250505080156126e457506040513d601f19601f820116820180604052508101906126e19190613080565b60015b612767573d8060008114612714576040519150601f19603f3d011682016040523d82523d6000602084013e612719565b606091505b5060008151141561275f576040517f08c379a000000000000000000000000000000000000000000000000000000000815260040161275690613f9f565b60405180910390fd5b805181602001fd5b63150b7a0260e01b7bffffffffffffffffffffffffffffffffffffffffffffffffffffffff1916817bffffffffffffffffffffffffffffffffffffffffffffffffffffffff1916149150506127bc565b600190505b949350505050565b6060600082141561280c576040518060400160405280600181526020017f3000000000000000000000000000000000000000000000000000000000000000815250905061296c565b600082905060005b6000821461283e57808061282790614582565b915050600a8261283791906143c4565b9150612814565b60008167ffffffffffffffff811115612880577f4e487b7100000000000000000000000000000000000000000000000000000000600052604160045260246000fd5b6040519080825280601f01601f1916602001820160405280156128b25781602001600182028036833780820191505090505b5090505b60008514612965576001826128cb919061444f565b9150600a856128da91906145df565b60306128e69190614337565b60f81b818381518110612922577f4e487b7100000000000000000000000000000000000000000000000000000000600052603260045260246000fd5b60200101907effffffffffffffffffffffffffffffffffffffffffffffffffffffffffffff1916908160001a905350600a8561295e91906143c4565b94506128b6565b8093505050505b919050565b60008484848460405160200161298a9493929190613f38565b6040516020818303038152906040528051906020012060001c9050949350505050565b600082826040516020016129c2929190613c80565b60405160208183030381529060405280519060200120905092915050565b6129ea8383612a4e565b6129f7600084848461262d565b612a36576040517f08c379a0000000000000000000000000000000000000000000000000000000008152600401612a2d90613f9f565b60405180910390fd5b505050565b600080823b905060008111915050919050565b600073ffffffffffffffffffffffffffffffffffffffff168273ffffffffffffffffffffffffffffffffffffffff161415612abe576040517f08c379a0000000000000000000000000000000000000000000000000000000008152600401612ab5906140df565b60405180910390fd5b612ac781611a8f565b15612b07576040517f08c379a0000000000000000000000000000000000000000000000000000000008152600401612afe90613fbf565b60405180910390fd5b612b136000838361260a565b6001600360008473ffffffffffffffffffffffffffffffffffffffff1673ffffffffffffffffffffffffffffffffffffffff1681526020019081526020016000206000828254612b639190614337565b92505081905550816002600083815260200190815260200160002060006101000a81548173ffffffffffffffffffffffffffffffffffffffff021916908373ffffffffffffffffffffffffffffffffffffffff160217905550808273ffffffffffffffffffffffffffffffffffffffff16600073ffffffffffffffffffffffffffffffffffffffff167fddf252ad1be2c89b69c2b068fc378daa952ba7f163c4a11628f55a4df523b3ef60405160405180910390a45050565b828054612c2890614550565b90600052602060002090601f016020900481019282612c4a5760008555612c91565b82601f10612c6357805160ff1916838001178555612c91565b82800160010185558215612c91579182015b82811115612c90578251825591602001919060010190612c75565b5b509050612c9e9190612ca2565b5090565b5b80821115612cbb576000816000905550600101612ca3565b5090565b6000612cd2612ccd84614294565b614263565b905082815260208101848484011115612cea57600080fd5b612cf584828561450e565b509392505050565b6000612d10612d0b846142c4565b614263565b905082815260208101848484011115612d2857600080fd5b612d3384828561450e565b509392505050565b600081359050612d4a816146dd565b92915050565b600081359050612d5f816146f4565b92915050565b600081519050612d74816146f4565b92915050565b600081359050612d898161470b565b92915050565b600081359050612d9e81614722565b92915050565b600081519050612db381614722565b92915050565b600082601f830112612dca57600080fd5b8135612dda848260208601612cbf565b91505092915050565b600082601f830112612df457600080fd5b8135612e04848260208601612cfd565b91505092915050565b600081359050612e1c81614739565b92915050565b600060208284031215612e3457600080fd5b6000612e4284828501612d3b565b91505092915050565b60008060408385031215612e5e57600080fd5b6000612e6c85828601612d3b565b9250506020612e7d85828601612d3b565b9150509250929050565b600080600060608486031215612e9c57600080fd5b6000612eaa86828701612d3b565b9350506020612ebb86828701612d3b565b9250506040612ecc86828701612e0d565b9150509250925092565b60008060008060808587031215612eec57600080fd5b6000612efa87828801612d3b565b9450506020612f0b87828801612d3b565b9350506040612f1c87828801612e0d565b925050606085013567ffffffffffffffff811115612f3957600080fd5b612f4587828801612db9565b91505092959194509250565b60008060408385031215612f6457600080fd5b6000612f7285828601612d3b565b9250506020612f8385828601612d50565b9150509250929050565b60008060408385031215612fa057600080fd5b6000612fae85828601612d3b565b9250506020612fbf85828601612e0d565b9150509250929050565b600060208284031215612fdb57600080fd5b6000612fe984828501612d65565b91505092915050565b60006020828403121561300457600080fd5b600061301284828501612d7a565b91505092915050565b6000806040838503121561302e57600080fd5b600061303c85828601612d7a565b925050602061304d85828601612e0d565b9150509250929050565b60006020828403121561306957600080fd5b600061307784828501612d8f565b91505092915050565b60006020828403121561309257600080fd5b60006130a084828501612da4565b91505092915050565b6000602082840312156130bb57600080fd5b600082013567ffffffffffffffff8111156130d557600080fd5b6130e184828501612de3565b91505092915050565b6000602082840312156130fc57600080fd5b600061310a84828501612e0d565b91505092915050565b61311c81614483565b82525050565b61312b81614495565b82525050565b61313a816144a1565b82525050565b61315161314c826144a1565b6145cb565b82525050565b6000613162826142f4565b61316c818561430a565b935061317c81856020860161451d565b613185816146cc565b840191505092915050565b600061319b826142ff565b6131a5818561431b565b93506131b581856020860161451d565b6131be816146cc565b840191505092915050565b60006131d4826142ff565b6131de818561432c565b93506131ee81856020860161451d565b80840191505092915050565b600061320760098361432c565b91507f7b226e616d65223a2200000000000000000000000000000000000000000000006000830152600982019050919050565b600061324760328361431b565b91507f4552433732313a207472616e7366657220746f206e6f6e20455243373231526560008301527f63656976657220696d706c656d656e74657200000000000000000000000000006020830152604082019050919050565b60006132ad601c8361431b565b91507f4552433732313a20746f6b656e20616c7265616479206d696e746564000000006000830152602082019050919050565b60006132ed601f8361431b565b91507f546f6b656e496420686173206e6f74206265656e206d696e74656420796574006000830152602082019050919050565b600061332d60248361431b565b91507f4552433732313a207472616e7366657220746f20746865207a65726f2061646460008301527f72657373000000000000000000000000000000000000000000000000000000006020830152604082019050919050565b600061339360198361431b565b91507f4552433732313a20617070726f766520746f2063616c6c6572000000000000006000830152602082019050919050565b60006133d3602c8361431b565b91507f4552433732313a206f70657261746f7220717565727920666f72206e6f6e657860008301527f697374656e7420746f6b656e00000000000000000000000000000000000000006020830152604082019050919050565b6000613439601d8361432c565b91507f272066696c6c3d277472616e73706172656e7427207374726f6b653d270000006000830152601d82019050919050565b600061347960018361432c565b91507f20000000000000000000000000000000000000000000000000000000000000006000830152600182019050919050565b60006134b960038361432c565b91507f272f3e00000000000000000000000000000000000000000000000000000000006000830152600382019050919050565b60006134f960078361432c565b91507f535647204e4654000000000000000000000000000000000000000000000000006000830152600782019050919050565b600061353960388361431b565b91507f4552433732313a20617070726f76652063616c6c6572206973206e6f74206f7760008301527f6e6572206e6f7220617070726f76656420666f7220616c6c00000000000000006020830152604082019050919050565b600061359f602a8361431b565b91507f4552433732313a2062616c616e636520717565727920666f7220746865207a6560008301527f726f2061646472657373000000000000000000000000000000000000000000006020830152604082019050919050565b600061360560298361431b565b91507f4552433732313a206f776e657220717565727920666f72206e6f6e657869737460008301527f656e7420746f6b656e00000000000000000000000000000000000000000000006020830152604082019050919050565b600061366b602e8361431b565b91507f45524337323155524953746f726167653a2055524920736574206f66206e6f6e60008301527f6578697374656e7420746f6b656e0000000000000000000000000000000000006020830152604082019050919050565b60006136d160028361432c565b91507f227d0000000000000000000000000000000000000000000000000000000000006000830152600282019050919050565b600061371160208361431b565b91507f4552433732313a206d696e7420746f20746865207a65726f20616464726573736000830152602082019050919050565b600061375160318361431b565b91507f45524337323155524953746f726167653a2055524920717565727920666f722060008301527f6e6f6e6578697374656e7420746f6b656e0000000000000000000000000000006020830152604082019050919050565b60006137b7602c8361431b565b91507f4552433732313a20617070726f76656420717565727920666f72206e6f6e657860008301527f697374656e7420746f6b656e00000000000000000000000000000000000000006020830152604082019050919050565b600061381d60298361431b565b91507f4552433732313a207472616e73666572206f6620746f6b656e2074686174206960008301527f73206e6f74206f776e00000000000000000000000000000000000000000000006020830152604082019050919050565b600061388360308361432c565b91507f3c73766720786d6c6e733d27687474703a2f2f7777772e77332e6f72672f323060008301527f30302f73766727206865696768743d27000000000000000000000000000000006020830152603082019050919050565b60006138e9602f8361431b565b91507f4552433732314d657461646174613a2055524920717565727920666f72206e6f60008301527f6e6578697374656e7420746f6b656e00000000000000000000000000000000006020830152604082019050919050565b600061394f601f8361431b565b91507f4f6e6c7920565246436f6f7264696e61746f722063616e2066756c66696c6c006000830152602082019050919050565b600061398f60438361432c565b91507f222c20226465736372697074696f6e223a22416e204e4654206261736564206f60008301527f6e2053564721222c202261747472696275746573223a22222c2022696d61676560208301527f223a2200000000000000000000000000000000000000000000000000000000006040830152604382019050919050565b6000613a1b60218361431b565b91507f4552433732313a20617070726f76616c20746f2063757272656e74206f776e6560008301527f72000000000000000000000000000000000000000000000000000000000000006020830152604082019050919050565b6000613a81601c8361431b565b91507f746f6b656e55524920697320616c726561647920616c6c2073657421000000006000830152602082019050919050565b6000613ac1601d8361432c565b91507f646174613a6170706c69636174696f6e2f6a736f6e3b6261736536342c0000006000830152601d82019050919050565b6000613b0160318361431b565b91507f4552433732313a207472616e736665722063616c6c6572206973206e6f74206f60008301527f776e6572206e6f7220617070726f7665640000000000000000000000000000006020830152604082019050919050565b6000613b6760028361432c565b91507f273e0000000000000000000000000000000000000000000000000000000000006000830152600282019050919050565b6000613ba760068361432c565b91507f3c2f7376673e00000000000000000000000000000000000000000000000000006000830152600682019050919050565b6000613be7601e8361431b565b91507f4e65656420746f207761697420666f7220436861696e6c696e6b2056524600006000830152602082019050919050565b6000613c2760098361432c565b91507f272077696474683d2700000000000000000000000000000000000000000000006000830152600982019050919050565b613c63816144f7565b82525050565b613c7a613c75826144f7565b6145d5565b82525050565b6000613c8c8285613140565b602082019150613c9c8284613c69565b6020820191508190509392505050565b6000613cb882846131c9565b915081905092915050565b6000613ccf82856131c9565b9150613cdb82846131c9565b91508190509392505050565b6000613cf382856131c9565b9150613cfe8261342c565b9150613d0a82846131c9565b9150613d15826134ac565b91508190509392505050565b6000613d2d82866131c9565b9150613d388261346c565b9150613d4482856131c9565b9150613d4f8261346c565b9150613d5b82846131c9565b9150819050949350505050565b6000613d7482846131c9565b9150613d7f82613b9a565b915081905092915050565b6000613d95826131fa565b9150613da0826134ec565b9150613dab82613982565b9150613db782846131c9565b9150613dc2826136c4565b915081905092915050565b6000613dd882613876565b9150613de482856131c9565b9150613def82613c1a565b9150613dfb82846131c9565b9150613e0682613b5a565b91508190509392505050565b6000613e1d82613ab4565b9150613e2982846131c9565b915081905092915050565b6000602082019050613e496000830184613113565b92915050565b6000608082019050613e646000830187613113565b613e716020830186613113565b613e7e6040830185613c5a565b8181036060830152613e908184613157565b905095945050505050565b6000606082019050613eb06000830186613113565b613ebd6020830185613c5a565b8181036040830152613ecf8184613157565b9050949350505050565b6000602082019050613eee6000830184613122565b92915050565b6000602082019050613f096000830184613131565b92915050565b6000604082019050613f246000830185613131565b613f316020830184613c5a565b9392505050565b6000608082019050613f4d6000830187613131565b613f5a6020830186613c5a565b613f676040830185613113565b613f746060830184613c5a565b95945050505050565b60006020820190508181036000830152613f978184613190565b905092915050565b60006020820190508181036000830152613fb88161323a565b9050919050565b60006020820190508181036000830152613fd8816132a0565b9050919050565b60006020820190508181036000830152613ff8816132e0565b9050919050565b6000602082019050818103600083015261401881613320565b9050919050565b6000602082019050818103600083015261403881613386565b9050919050565b60006020820190508181036000830152614058816133c6565b9050919050565b600060208201905081810360008301526140788161352c565b9050919050565b6000602082019050818103600083015261409881613592565b9050919050565b600060208201905081810360008301526140b8816135f8565b9050919050565b600060208201905081810360008301526140d88161365e565b9050919050565b600060208201905081810360008301526140f881613704565b9050919050565b6000602082019050818103600083015261411881613744565b9050919050565b60006020820190508181036000830152614138816137aa565b9050919050565b6000602082019050818103600083015261415881613810565b9050919050565b60006020820190508181036000830152614178816138dc565b9050919050565b6000602082019050818103600083015261419881613942565b9050919050565b600060208201905081810360008301526141b881613a0e565b9050919050565b600060208201905081810360008301526141d881613a74565b9050919050565b600060208201905081810360008301526141f881613af4565b9050919050565b6000602082019050818103600083015261421881613bda565b9050919050565b60006020820190506142346000830184613c5a565b92915050565b600060408201905061424f6000830185613c5a565b61425c6020830184613c5a565b9392505050565b6000604051905081810181811067ffffffffffffffff8211171561428a5761428961469d565b5b8060405250919050565b600067ffffffffffffffff8211156142af576142ae61469d565b5b601f19601f8301169050602081019050919050565b600067ffffffffffffffff8211156142df576142de61469d565b5b601f19601f8301169050602081019050919050565b600081519050919050565b600081519050919050565b600082825260208201905092915050565b600082825260208201905092915050565b600081905092915050565b6000614342826144f7565b915061434d836144f7565b9250827fffffffffffffffffffffffffffffffffffffffffffffffffffffffffffffffff0382111561438257614381614610565b5b828201905092915050565b600061439882614501565b91506143a383614501565b92508260ff038211156143b9576143b8614610565b5b828201905092915050565b60006143cf826144f7565b91506143da836144f7565b9250826143ea576143e961463f565b5b828204905092915050565b6000614400826144f7565b915061440b836144f7565b9250817fffffffffffffffffffffffffffffffffffffffffffffffffffffffffffffffff048311821515161561444457614443614610565b5b828202905092915050565b600061445a826144f7565b9150614465836144f7565b92508282101561447857614477614610565b5b828203905092915050565b600061448e826144d7565b9050919050565b60008115159050919050565b6000819050919050565b60007fffffffff0000000000000000000000000000000000000000000000000000000082169050919050565b600073ffffffffffffffffffffffffffffffffffffffff82169050919050565b6000819050919050565b600060ff82169050919050565b82818337600083830152505050565b60005b8381101561453b578082015181840152602081019050614520565b8381111561454a576000848401525b50505050565b6000600282049050600182168061456857607f821691505b6020821081141561457c5761457b61466e565b5b50919050565b600061458d826144f7565b91507fffffffffffffffffffffffffffffffffffffffffffffffffffffffffffffffff8214156145c0576145bf614610565b5b600182019050919050565b6000819050919050565b6000819050919050565b60006145ea826144f7565b91506145f5836144f7565b9250826146055761460461463f565b5b828206905092915050565b7f4e487b7100000000000000000000000000000000000000000000000000000000600052601160045260246000fd5b7f4e487b7100000000000000000000000000000000000000000000000000000000600052601260045260246000fd5b7f4e487b7100000000000000000000000000000000000000000000000000000000600052602260045260246000fd5b7f4e487b7100000000000000000000000000000000000000000000000000000000600052604160045260246000fd5b6000601f19601f8301169050919050565b6146e681614483565b81146146f157600080fd5b50565b6146fd81614495565b811461470857600080fd5b50565b614714816144a1565b811461471f57600080fd5b50565b61472b816144ab565b811461473657600080fd5b50565b614742816144f7565b811461474d57600080fd5b5056fe4142434445464748494a4b4c4d4e4f505152535455565758595a6162636465666768696a6b6c6d6e6f707172737475767778797a303132333435363738392b2fa2646970667358221220e7ce9b903913355dd7939678371b6589e12a916c26ecf1d9db45904884ede5af64736f6c63430008000033",
  "devdoc": {
    "kind": "dev",
    "methods": {
      "approve(address,uint256)": {
        "details": "See {IERC721-approve}."
      },
      "balanceOf(address)": {
        "details": "See {IERC721-balanceOf}."
      },
      "getApproved(uint256)": {
        "details": "See {IERC721-getApproved}."
      },
      "isApprovedForAll(address,address)": {
        "details": "See {IERC721-isApprovedForAll}."
      },
      "name()": {
        "details": "See {IERC721Metadata-name}."
      },
      "ownerOf(uint256)": {
        "details": "See {IERC721-ownerOf}."
      },
      "safeTransferFrom(address,address,uint256)": {
        "details": "See {IERC721-safeTransferFrom}."
      },
      "safeTransferFrom(address,address,uint256,bytes)": {
        "details": "See {IERC721-safeTransferFrom}."
      },
      "setApprovalForAll(address,bool)": {
        "details": "See {IERC721-setApprovalForAll}."
      },
      "supportsInterface(bytes4)": {
        "details": "See {IERC165-supportsInterface}."
      },
      "symbol()": {
        "details": "See {IERC721Metadata-symbol}."
      },
      "tokenURI(uint256)": {
        "details": "See {IERC721Metadata-tokenURI}."
      },
      "transferFrom(address,address,uint256)": {
        "details": "See {IERC721-transferFrom}."
      }
    },
    "version": 1
  },
  "userdoc": {
    "kind": "user",
    "methods": {},
    "version": 1
  },
  "storageLayout": {
    "storage": [
      {
        "astId": 291,
        "contract": "contracts/RandomSVG.sol:RandomSVG",
        "label": "_name",
        "offset": 0,
        "slot": "0",
        "type": "t_string_storage"
      },
      {
        "astId": 293,
        "contract": "contracts/RandomSVG.sol:RandomSVG",
        "label": "_symbol",
        "offset": 0,
        "slot": "1",
        "type": "t_string_storage"
      },
      {
        "astId": 297,
        "contract": "contracts/RandomSVG.sol:RandomSVG",
        "label": "_owners",
        "offset": 0,
        "slot": "2",
        "type": "t_mapping(t_uint256,t_address)"
      },
      {
        "astId": 301,
        "contract": "contracts/RandomSVG.sol:RandomSVG",
        "label": "_balances",
        "offset": 0,
        "slot": "3",
        "type": "t_mapping(t_address,t_uint256)"
      },
      {
        "astId": 305,
        "contract": "contracts/RandomSVG.sol:RandomSVG",
        "label": "_tokenApprovals",
        "offset": 0,
        "slot": "4",
        "type": "t_mapping(t_uint256,t_address)"
      },
      {
        "astId": 311,
        "contract": "contracts/RandomSVG.sol:RandomSVG",
        "label": "_operatorApprovals",
        "offset": 0,
        "slot": "5",
        "type": "t_mapping(t_address,t_mapping(t_address,t_bool))"
      },
      {
        "astId": 1228,
        "contract": "contracts/RandomSVG.sol:RandomSVG",
        "label": "_tokenURIs",
        "offset": 0,
        "slot": "6",
        "type": "t_mapping(t_uint256,t_string_storage)"
      },
      {
        "astId": 79,
        "contract": "contracts/RandomSVG.sol:RandomSVG",
        "label": "nonces",
        "offset": 0,
        "slot": "7",
        "type": "t_mapping(t_bytes32,t_uint256)"
      },
      {
        "astId": 2054,
        "contract": "contracts/RandomSVG.sol:RandomSVG",
        "label": "keyHash",
        "offset": 0,
        "slot": "8",
        "type": "t_bytes32"
      },
      {
        "astId": 2056,
        "contract": "contracts/RandomSVG.sol:RandomSVG",
        "label": "fee",
        "offset": 0,
        "slot": "9",
        "type": "t_uint256"
      },
      {
        "astId": 2058,
        "contract": "contracts/RandomSVG.sol:RandomSVG",
        "label": "tokenCounter",
        "offset": 0,
        "slot": "10",
        "type": "t_uint256"
      },
      {
        "astId": 2060,
        "contract": "contracts/RandomSVG.sol:RandomSVG",
        "label": "maxNumberOfPaths",
        "offset": 0,
        "slot": "11",
        "type": "t_uint256"
      },
      {
        "astId": 2062,
        "contract": "contracts/RandomSVG.sol:RandomSVG",
        "label": "maxNumberOfPathsCommands",
        "offset": 0,
        "slot": "12",
        "type": "t_uint256"
      },
      {
        "astId": 2064,
        "contract": "contracts/RandomSVG.sol:RandomSVG",
        "label": "size",
        "offset": 0,
        "slot": "13",
        "type": "t_uint256"
      },
      {
        "astId": 2067,
        "contract": "contracts/RandomSVG.sol:RandomSVG",
        "label": "pathCommands",
        "offset": 0,
        "slot": "14",
        "type": "t_array(t_string_storage)dyn_storage"
      },
      {
        "astId": 2070,
        "contract": "contracts/RandomSVG.sol:RandomSVG",
        "label": "colors",
        "offset": 0,
        "slot": "15",
        "type": "t_array(t_string_storage)dyn_storage"
      },
      {
        "astId": 2074,
        "contract": "contracts/RandomSVG.sol:RandomSVG",
        "label": "requestIdToSender",
        "offset": 0,
        "slot": "16",
        "type": "t_mapping(t_bytes32,t_address)"
      },
      {
        "astId": 2078,
        "contract": "contracts/RandomSVG.sol:RandomSVG",
        "label": "requestIdToTokenId",
        "offset": 0,
        "slot": "17",
        "type": "t_mapping(t_bytes32,t_uint256)"
      },
      {
        "astId": 2082,
        "contract": "contracts/RandomSVG.sol:RandomSVG",
        "label": "tokenIdToRandomNumber",
        "offset": 0,
        "slot": "18",
        "type": "t_mapping(t_uint256,t_uint256)"
      }
    ],
    "types": {
      "t_address": {
        "encoding": "inplace",
        "label": "address",
        "numberOfBytes": "20"
      },
      "t_array(t_string_storage)dyn_storage": {
        "base": "t_string_storage",
        "encoding": "dynamic_array",
        "label": "string[]",
        "numberOfBytes": "32"
      },
      "t_bool": {
        "encoding": "inplace",
        "label": "bool",
        "numberOfBytes": "1"
      },
      "t_bytes32": {
        "encoding": "inplace",
        "label": "bytes32",
        "numberOfBytes": "32"
      },
      "t_mapping(t_address,t_bool)": {
        "encoding": "mapping",
        "key": "t_address",
        "label": "mapping(address => bool)",
        "numberOfBytes": "32",
        "value": "t_bool"
      },
      "t_mapping(t_address,t_mapping(t_address,t_bool))": {
        "encoding": "mapping",
        "key": "t_address",
        "label": "mapping(address => mapping(address => bool))",
        "numberOfBytes": "32",
        "value": "t_mapping(t_address,t_bool)"
      },
      "t_mapping(t_address,t_uint256)": {
        "encoding": "mapping",
        "key": "t_address",
        "label": "mapping(address => uint256)",
        "numberOfBytes": "32",
        "value": "t_uint256"
      },
      "t_mapping(t_bytes32,t_address)": {
        "encoding": "mapping",
        "key": "t_bytes32",
        "label": "mapping(bytes32 => address)",
        "numberOfBytes": "32",
        "value": "t_address"
      },
      "t_mapping(t_bytes32,t_uint256)": {
        "encoding": "mapping",
        "key": "t_bytes32",
        "label": "mapping(bytes32 => uint256)",
        "numberOfBytes": "32",
        "value": "t_uint256"
      },
      "t_mapping(t_uint256,t_address)": {
        "encoding": "mapping",
        "key": "t_uint256",
        "label": "mapping(uint256 => address)",
        "numberOfBytes": "32",
        "value": "t_address"
      },
      "t_mapping(t_uint256,t_string_storage)": {
        "encoding": "mapping",
        "key": "t_uint256",
        "label": "mapping(uint256 => string)",
        "numberOfBytes": "32",
        "value": "t_string_storage"
      },
      "t_mapping(t_uint256,t_uint256)": {
        "encoding": "mapping",
        "key": "t_uint256",
        "label": "mapping(uint256 => uint256)",
        "numberOfBytes": "32",
        "value": "t_uint256"
      },
      "t_string_storage": {
        "encoding": "bytes",
        "label": "string",
        "numberOfBytes": "32"
      },
      "t_uint256": {
        "encoding": "inplace",
        "label": "uint256",
        "numberOfBytes": "32"
      }
    }
  }
}